Archive member included to satisfy reference by file (symbol)

/home/ece/Ac6/SystemWorkbench/plugins/fr.ac6.mcu.externaltools.arm-none.linux64_1.13.1.201707031232/tools/compiler/bin/../lib/gcc/arm-none-eabi/5.4.1/../../../../arm-none-eabi/lib/armv7e-m/fpu/libm.a(lib_a-s_trunc.o)
                              Source/App/MEMS/mems.o (trunc)
/home/ece/Ac6/SystemWorkbench/plugins/fr.ac6.mcu.externaltools.arm-none.linux64_1.13.1.201707031232/tools/compiler/bin/../lib/gcc/arm-none-eabi/5.4.1/../../../../arm-none-eabi/lib/armv7e-m/fpu/libm.a(lib_a-w_pow.o)
                              Source/App/MEMS/mems.o (pow)
/home/ece/Ac6/SystemWorkbench/plugins/fr.ac6.mcu.externaltools.arm-none.linux64_1.13.1.201707031232/tools/compiler/bin/../lib/gcc/arm-none-eabi/5.4.1/../../../../arm-none-eabi/lib/armv7e-m/fpu/libm.a(lib_a-e_pow.o)
                              /home/ece/Ac6/SystemWorkbench/plugins/fr.ac6.mcu.externaltools.arm-none.linux64_1.13.1.201707031232/tools/compiler/bin/../lib/gcc/arm-none-eabi/5.4.1/../../../../arm-none-eabi/lib/armv7e-m/fpu/libm.a(lib_a-w_pow.o) (__ieee754_pow)
/home/ece/Ac6/SystemWorkbench/plugins/fr.ac6.mcu.externaltools.arm-none.linux64_1.13.1.201707031232/tools/compiler/bin/../lib/gcc/arm-none-eabi/5.4.1/../../../../arm-none-eabi/lib/armv7e-m/fpu/libm.a(lib_a-e_sqrt.o)
                              /home/ece/Ac6/SystemWorkbench/plugins/fr.ac6.mcu.externaltools.arm-none.linux64_1.13.1.201707031232/tools/compiler/bin/../lib/gcc/arm-none-eabi/5.4.1/../../../../arm-none-eabi/lib/armv7e-m/fpu/libm.a(lib_a-e_pow.o) (__ieee754_sqrt)
/home/ece/Ac6/SystemWorkbench/plugins/fr.ac6.mcu.externaltools.arm-none.linux64_1.13.1.201707031232/tools/compiler/bin/../lib/gcc/arm-none-eabi/5.4.1/../../../../arm-none-eabi/lib/armv7e-m/fpu/libm.a(lib_a-s_fabs.o)
                              /home/ece/Ac6/SystemWorkbench/plugins/fr.ac6.mcu.externaltools.arm-none.linux64_1.13.1.201707031232/tools/compiler/bin/../lib/gcc/arm-none-eabi/5.4.1/../../../../arm-none-eabi/lib/armv7e-m/fpu/libm.a(lib_a-e_pow.o) (fabs)
/home/ece/Ac6/SystemWorkbench/plugins/fr.ac6.mcu.externaltools.arm-none.linux64_1.13.1.201707031232/tools/compiler/bin/../lib/gcc/arm-none-eabi/5.4.1/../../../../arm-none-eabi/lib/armv7e-m/fpu/libm.a(lib_a-s_finite.o)
                              /home/ece/Ac6/SystemWorkbench/plugins/fr.ac6.mcu.externaltools.arm-none.linux64_1.13.1.201707031232/tools/compiler/bin/../lib/gcc/arm-none-eabi/5.4.1/../../../../arm-none-eabi/lib/armv7e-m/fpu/libm.a(lib_a-w_pow.o) (finite)
/home/ece/Ac6/SystemWorkbench/plugins/fr.ac6.mcu.externaltools.arm-none.linux64_1.13.1.201707031232/tools/compiler/bin/../lib/gcc/arm-none-eabi/5.4.1/../../../../arm-none-eabi/lib/armv7e-m/fpu/libm.a(lib_a-s_lib_ver.o)
                              /home/ece/Ac6/SystemWorkbench/plugins/fr.ac6.mcu.externaltools.arm-none.linux64_1.13.1.201707031232/tools/compiler/bin/../lib/gcc/arm-none-eabi/5.4.1/../../../../arm-none-eabi/lib/armv7e-m/fpu/libm.a(lib_a-w_pow.o) (__fdlib_version)
/home/ece/Ac6/SystemWorkbench/plugins/fr.ac6.mcu.externaltools.arm-none.linux64_1.13.1.201707031232/tools/compiler/bin/../lib/gcc/arm-none-eabi/5.4.1/../../../../arm-none-eabi/lib/armv7e-m/fpu/libm.a(lib_a-s_matherr.o)
                              /home/ece/Ac6/SystemWorkbench/plugins/fr.ac6.mcu.externaltools.arm-none.linux64_1.13.1.201707031232/tools/compiler/bin/../lib/gcc/arm-none-eabi/5.4.1/../../../../arm-none-eabi/lib/armv7e-m/fpu/libm.a(lib_a-w_pow.o) (matherr)
/home/ece/Ac6/SystemWorkbench/plugins/fr.ac6.mcu.externaltools.arm-none.linux64_1.13.1.201707031232/tools/compiler/bin/../lib/gcc/arm-none-eabi/5.4.1/../../../../arm-none-eabi/lib/armv7e-m/fpu/libm.a(lib_a-s_nan.o)
                              /home/ece/Ac6/SystemWorkbench/plugins/fr.ac6.mcu.externaltools.arm-none.linux64_1.13.1.201707031232/tools/compiler/bin/../lib/gcc/arm-none-eabi/5.4.1/../../../../arm-none-eabi/lib/armv7e-m/fpu/libm.a(lib_a-e_pow.o) (nan)
/home/ece/Ac6/SystemWorkbench/plugins/fr.ac6.mcu.externaltools.arm-none.linux64_1.13.1.201707031232/tools/compiler/bin/../lib/gcc/arm-none-eabi/5.4.1/../../../../arm-none-eabi/lib/armv7e-m/fpu/libm.a(lib_a-s_rint.o)
                              /home/ece/Ac6/SystemWorkbench/plugins/fr.ac6.mcu.externaltools.arm-none.linux64_1.13.1.201707031232/tools/compiler/bin/../lib/gcc/arm-none-eabi/5.4.1/../../../../arm-none-eabi/lib/armv7e-m/fpu/libm.a(lib_a-w_pow.o) (rint)
/home/ece/Ac6/SystemWorkbench/plugins/fr.ac6.mcu.externaltools.arm-none.linux64_1.13.1.201707031232/tools/compiler/bin/../lib/gcc/arm-none-eabi/5.4.1/../../../../arm-none-eabi/lib/armv7e-m/fpu/libm.a(lib_a-s_scalbn.o)
                              /home/ece/Ac6/SystemWorkbench/plugins/fr.ac6.mcu.externaltools.arm-none.linux64_1.13.1.201707031232/tools/compiler/bin/../lib/gcc/arm-none-eabi/5.4.1/../../../../arm-none-eabi/lib/armv7e-m/fpu/libm.a(lib_a-e_pow.o) (scalbn)
/home/ece/Ac6/SystemWorkbench/plugins/fr.ac6.mcu.externaltools.arm-none.linux64_1.13.1.201707031232/tools/compiler/bin/../lib/gcc/arm-none-eabi/5.4.1/../../../../arm-none-eabi/lib/armv7e-m/fpu/libm.a(lib_a-s_copysign.o)
                              /home/ece/Ac6/SystemWorkbench/plugins/fr.ac6.mcu.externaltools.arm-none.linux64_1.13.1.201707031232/tools/compiler/bin/../lib/gcc/arm-none-eabi/5.4.1/../../../../arm-none-eabi/lib/armv7e-m/fpu/libm.a(lib_a-s_scalbn.o) (copysign)
/home/ece/Ac6/SystemWorkbench/plugins/fr.ac6.mcu.externaltools.arm-none.linux64_1.13.1.201707031232/tools/compiler/bin/../lib/gcc/arm-none-eabi/5.4.1/armv7e-m/fpu/libgcc.a(_arm_addsubdf3.o)
                              /home/ece/Ac6/SystemWorkbench/plugins/fr.ac6.mcu.externaltools.arm-none.linux64_1.13.1.201707031232/tools/compiler/bin/../lib/gcc/arm-none-eabi/5.4.1/../../../../arm-none-eabi/lib/armv7e-m/fpu/libm.a(lib_a-e_pow.o) (__aeabi_dsub)
/home/ece/Ac6/SystemWorkbench/plugins/fr.ac6.mcu.externaltools.arm-none.linux64_1.13.1.201707031232/tools/compiler/bin/../lib/gcc/arm-none-eabi/5.4.1/armv7e-m/fpu/libgcc.a(_arm_muldivdf3.o)
                              Source/App/MEMS/mems.o (__aeabi_dmul)
/home/ece/Ac6/SystemWorkbench/plugins/fr.ac6.mcu.externaltools.arm-none.linux64_1.13.1.201707031232/tools/compiler/bin/../lib/gcc/arm-none-eabi/5.4.1/armv7e-m/fpu/libgcc.a(_arm_cmpdf2.o)
                              /home/ece/Ac6/SystemWorkbench/plugins/fr.ac6.mcu.externaltools.arm-none.linux64_1.13.1.201707031232/tools/compiler/bin/../lib/gcc/arm-none-eabi/5.4.1/../../../../arm-none-eabi/lib/armv7e-m/fpu/libm.a(lib_a-w_pow.o) (__aeabi_dcmpeq)
/home/ece/Ac6/SystemWorkbench/plugins/fr.ac6.mcu.externaltools.arm-none.linux64_1.13.1.201707031232/tools/compiler/bin/../lib/gcc/arm-none-eabi/5.4.1/armv7e-m/fpu/libgcc.a(_arm_unorddf2.o)
                              /home/ece/Ac6/SystemWorkbench/plugins/fr.ac6.mcu.externaltools.arm-none.linux64_1.13.1.201707031232/tools/compiler/bin/../lib/gcc/arm-none-eabi/5.4.1/../../../../arm-none-eabi/lib/armv7e-m/fpu/libm.a(lib_a-w_pow.o) (__aeabi_dcmpun)
/home/ece/Ac6/SystemWorkbench/plugins/fr.ac6.mcu.externaltools.arm-none.linux64_1.13.1.201707031232/tools/compiler/bin/../lib/gcc/arm-none-eabi/5.4.1/armv7e-m/fpu/libgcc.a(_arm_fixdfsi.o)
                              Source/App/MEMS/mems.o (__aeabi_d2iz)
/home/ece/Ac6/SystemWorkbench/plugins/fr.ac6.mcu.externaltools.arm-none.linux64_1.13.1.201707031232/tools/compiler/bin/../lib/gcc/arm-none-eabi/5.4.1/armv7e-m/fpu/libgcc.a(_arm_fixunsdfsi.o)
                              Source/Drivers/BSP/Components/hts221/hts221.o (__aeabi_d2uiz)
/home/ece/Ac6/SystemWorkbench/plugins/fr.ac6.mcu.externaltools.arm-none.linux64_1.13.1.201707031232/tools/compiler/bin/../lib/gcc/arm-none-eabi/5.4.1/../../../../arm-none-eabi/lib/armv7e-m/fpu/libc.a(lib_a-errno.o)
                              /home/ece/Ac6/SystemWorkbench/plugins/fr.ac6.mcu.externaltools.arm-none.linux64_1.13.1.201707031232/tools/compiler/bin/../lib/gcc/arm-none-eabi/5.4.1/../../../../arm-none-eabi/lib/armv7e-m/fpu/libm.a(lib_a-w_pow.o) (__errno)
/home/ece/Ac6/SystemWorkbench/plugins/fr.ac6.mcu.externaltools.arm-none.linux64_1.13.1.201707031232/tools/compiler/bin/../lib/gcc/arm-none-eabi/5.4.1/../../../../arm-none-eabi/lib/armv7e-m/fpu/libc.a(lib_a-exit.o)
                              /home/ece/Ac6/SystemWorkbench/plugins/fr.ac6.mcu.externaltools.arm-none.linux64_1.13.1.201707031232/tools/compiler/bin/../lib/gcc/arm-none-eabi/5.4.1/../../../../arm-none-eabi/lib/armv7e-m/fpu/crt0.o (exit)
/home/ece/Ac6/SystemWorkbench/plugins/fr.ac6.mcu.externaltools.arm-none.linux64_1.13.1.201707031232/tools/compiler/bin/../lib/gcc/arm-none-eabi/5.4.1/../../../../arm-none-eabi/lib/armv7e-m/fpu/libc.a(lib_a-impure.o)
                              /home/ece/Ac6/SystemWorkbench/plugins/fr.ac6.mcu.externaltools.arm-none.linux64_1.13.1.201707031232/tools/compiler/bin/../lib/gcc/arm-none-eabi/5.4.1/../../../../arm-none-eabi/lib/armv7e-m/fpu/libc.a(lib_a-exit.o) (_global_impure_ptr)
/home/ece/Ac6/SystemWorkbench/plugins/fr.ac6.mcu.externaltools.arm-none.linux64_1.13.1.201707031232/tools/compiler/bin/../lib/gcc/arm-none-eabi/5.4.1/../../../../arm-none-eabi/lib/armv7e-m/fpu/libc.a(lib_a-init.o)
                              /home/ece/Ac6/SystemWorkbench/plugins/fr.ac6.mcu.externaltools.arm-none.linux64_1.13.1.201707031232/tools/compiler/bin/../lib/gcc/arm-none-eabi/5.4.1/../../../../arm-none-eabi/lib/armv7e-m/fpu/crt0.o (__libc_init_array)
/home/ece/Ac6/SystemWorkbench/plugins/fr.ac6.mcu.externaltools.arm-none.linux64_1.13.1.201707031232/tools/compiler/bin/../lib/gcc/arm-none-eabi/5.4.1/../../../../arm-none-eabi/lib/armv7e-m/fpu/libc.a(lib_a-memset.o)
                              /home/ece/Ac6/SystemWorkbench/plugins/fr.ac6.mcu.externaltools.arm-none.linux64_1.13.1.201707031232/tools/compiler/bin/../lib/gcc/arm-none-eabi/5.4.1/../../../../arm-none-eabi/lib/armv7e-m/fpu/crt0.o (memset)
/home/ece/Ac6/SystemWorkbench/plugins/fr.ac6.mcu.externaltools.arm-none.linux64_1.13.1.201707031232/tools/compiler/bin/../lib/gcc/arm-none-eabi/5.4.1/../../../../arm-none-eabi/lib/armv7e-m/fpu/libc.a(lib_a-reent.o)
                              Source/Drivers/Utils/Trace/syscalls.o (errno)
/home/ece/Ac6/SystemWorkbench/plugins/fr.ac6.mcu.externaltools.arm-none.linux64_1.13.1.201707031232/tools/compiler/bin/../lib/gcc/arm-none-eabi/5.4.1/../../../../arm-none-eabi/lib/armv7e-m/fpu/libc.a(lib_a-strlen.o)
                              Source/Drivers/Utils/Trace/trace.o (strlen)
/home/ece/Ac6/SystemWorkbench/plugins/fr.ac6.mcu.externaltools.arm-none.linux64_1.13.1.201707031232/tools/compiler/bin/../lib/gcc/arm-none-eabi/5.4.1/../../../../arm-none-eabi/lib/armv7e-m/fpu/libc.a(lib_a-vsnprintf.o)
                              Source/Drivers/Utils/Trace/trace.o (vsnprintf)
/home/ece/Ac6/SystemWorkbench/plugins/fr.ac6.mcu.externaltools.arm-none.linux64_1.13.1.201707031232/tools/compiler/bin/../lib/gcc/arm-none-eabi/5.4.1/../../../../arm-none-eabi/lib/armv7e-m/fpu/libc.a(lib_a-__call_atexit.o)
                              /home/ece/Ac6/SystemWorkbench/plugins/fr.ac6.mcu.externaltools.arm-none.linux64_1.13.1.201707031232/tools/compiler/bin/../lib/gcc/arm-none-eabi/5.4.1/../../../../arm-none-eabi/lib/armv7e-m/fpu/libc.a(lib_a-exit.o) (__call_exitprocs)
/home/ece/Ac6/SystemWorkbench/plugins/fr.ac6.mcu.externaltools.arm-none.linux64_1.13.1.201707031232/tools/compiler/bin/../lib/gcc/arm-none-eabi/5.4.1/../../../../arm-none-eabi/lib/armv7e-m/fpu/libc.a(lib_a-atexit.o)
                              /home/ece/Ac6/SystemWorkbench/plugins/fr.ac6.mcu.externaltools.arm-none.linux64_1.13.1.201707031232/tools/compiler/bin/../lib/gcc/arm-none-eabi/5.4.1/../../../../arm-none-eabi/lib/armv7e-m/fpu/libc.a(lib_a-__call_atexit.o) (atexit)
/home/ece/Ac6/SystemWorkbench/plugins/fr.ac6.mcu.externaltools.arm-none.linux64_1.13.1.201707031232/tools/compiler/bin/../lib/gcc/arm-none-eabi/5.4.1/../../../../arm-none-eabi/lib/armv7e-m/fpu/libc.a(lib_a-fini.o)
                              /home/ece/Ac6/SystemWorkbench/plugins/fr.ac6.mcu.externaltools.arm-none.linux64_1.13.1.201707031232/tools/compiler/bin/../lib/gcc/arm-none-eabi/5.4.1/../../../../arm-none-eabi/lib/armv7e-m/fpu/libc.a(lib_a-__call_atexit.o) (__libc_fini_array)
/home/ece/Ac6/SystemWorkbench/plugins/fr.ac6.mcu.externaltools.arm-none.linux64_1.13.1.201707031232/tools/compiler/bin/../lib/gcc/arm-none-eabi/5.4.1/../../../../arm-none-eabi/lib/armv7e-m/fpu/libc.a(lib_a-freer.o)
                              /home/ece/Ac6/SystemWorkbench/plugins/fr.ac6.mcu.externaltools.arm-none.linux64_1.13.1.201707031232/tools/compiler/bin/../lib/gcc/arm-none-eabi/5.4.1/../../../../arm-none-eabi/lib/armv7e-m/fpu/libc.a(lib_a-reent.o) (_free_r)
/home/ece/Ac6/SystemWorkbench/plugins/fr.ac6.mcu.externaltools.arm-none.linux64_1.13.1.201707031232/tools/compiler/bin/../lib/gcc/arm-none-eabi/5.4.1/../../../../arm-none-eabi/lib/armv7e-m/fpu/libc.a(lib_a-mallocr.o)
                              /home/ece/Ac6/SystemWorkbench/plugins/fr.ac6.mcu.externaltools.arm-none.linux64_1.13.1.201707031232/tools/compiler/bin/../lib/gcc/arm-none-eabi/5.4.1/../../../../arm-none-eabi/lib/armv7e-m/fpu/libc.a(lib_a-freer.o) (__malloc_current_mallinfo)
/home/ece/Ac6/SystemWorkbench/plugins/fr.ac6.mcu.externaltools.arm-none.linux64_1.13.1.201707031232/tools/compiler/bin/../lib/gcc/arm-none-eabi/5.4.1/../../../../arm-none-eabi/lib/armv7e-m/fpu/libc.a(lib_a-mlock.o)
                              /home/ece/Ac6/SystemWorkbench/plugins/fr.ac6.mcu.externaltools.arm-none.linux64_1.13.1.201707031232/tools/compiler/bin/../lib/gcc/arm-none-eabi/5.4.1/../../../../arm-none-eabi/lib/armv7e-m/fpu/libc.a(lib_a-freer.o) (__malloc_lock)
/home/ece/Ac6/SystemWorkbench/plugins/fr.ac6.mcu.externaltools.arm-none.linux64_1.13.1.201707031232/tools/compiler/bin/../lib/gcc/arm-none-eabi/5.4.1/../../../../arm-none-eabi/lib/armv7e-m/fpu/libc.a(lib_a-sbrkr.o)
                              /home/ece/Ac6/SystemWorkbench/plugins/fr.ac6.mcu.externaltools.arm-none.linux64_1.13.1.201707031232/tools/compiler/bin/../lib/gcc/arm-none-eabi/5.4.1/../../../../arm-none-eabi/lib/armv7e-m/fpu/libc.a(lib_a-freer.o) (_sbrk_r)
/home/ece/Ac6/SystemWorkbench/plugins/fr.ac6.mcu.externaltools.arm-none.linux64_1.13.1.201707031232/tools/compiler/bin/../lib/gcc/arm-none-eabi/5.4.1/../../../../arm-none-eabi/lib/armv7e-m/fpu/libc.a(lib_a-svfprintf.o)
                              /home/ece/Ac6/SystemWorkbench/plugins/fr.ac6.mcu.externaltools.arm-none.linux64_1.13.1.201707031232/tools/compiler/bin/../lib/gcc/arm-none-eabi/5.4.1/../../../../arm-none-eabi/lib/armv7e-m/fpu/libc.a(lib_a-vsnprintf.o) (_svfprintf_r)
/home/ece/Ac6/SystemWorkbench/plugins/fr.ac6.mcu.externaltools.arm-none.linux64_1.13.1.201707031232/tools/compiler/bin/../lib/gcc/arm-none-eabi/5.4.1/../../../../arm-none-eabi/lib/armv7e-m/fpu/libc.a(lib_a-__atexit.o)
                              /home/ece/Ac6/SystemWorkbench/plugins/fr.ac6.mcu.externaltools.arm-none.linux64_1.13.1.201707031232/tools/compiler/bin/../lib/gcc/arm-none-eabi/5.4.1/../../../../arm-none-eabi/lib/armv7e-m/fpu/libc.a(lib_a-atexit.o) (__register_exitproc)
/home/ece/Ac6/SystemWorkbench/plugins/fr.ac6.mcu.externaltools.arm-none.linux64_1.13.1.201707031232/tools/compiler/bin/../lib/gcc/arm-none-eabi/5.4.1/../../../../arm-none-eabi/lib/armv7e-m/fpu/libc.a(lib_a-dtoa.o)
                              /home/ece/Ac6/SystemWorkbench/plugins/fr.ac6.mcu.externaltools.arm-none.linux64_1.13.1.201707031232/tools/compiler/bin/../lib/gcc/arm-none-eabi/5.4.1/../../../../arm-none-eabi/lib/armv7e-m/fpu/libc.a(lib_a-svfprintf.o) (_dtoa_r)
/home/ece/Ac6/SystemWorkbench/plugins/fr.ac6.mcu.externaltools.arm-none.linux64_1.13.1.201707031232/tools/compiler/bin/../lib/gcc/arm-none-eabi/5.4.1/../../../../arm-none-eabi/lib/armv7e-m/fpu/libc.a(lib_a-localeconv.o)
                              /home/ece/Ac6/SystemWorkbench/plugins/fr.ac6.mcu.externaltools.arm-none.linux64_1.13.1.201707031232/tools/compiler/bin/../lib/gcc/arm-none-eabi/5.4.1/../../../../arm-none-eabi/lib/armv7e-m/fpu/libc.a(lib_a-svfprintf.o) (_localeconv_r)
/home/ece/Ac6/SystemWorkbench/plugins/fr.ac6.mcu.externaltools.arm-none.linux64_1.13.1.201707031232/tools/compiler/bin/../lib/gcc/arm-none-eabi/5.4.1/../../../../arm-none-eabi/lib/armv7e-m/fpu/libc.a(lib_a-memchr.o)
                              /home/ece/Ac6/SystemWorkbench/plugins/fr.ac6.mcu.externaltools.arm-none.linux64_1.13.1.201707031232/tools/compiler/bin/../lib/gcc/arm-none-eabi/5.4.1/../../../../arm-none-eabi/lib/armv7e-m/fpu/libc.a(lib_a-svfprintf.o) (memchr)
/home/ece/Ac6/SystemWorkbench/plugins/fr.ac6.mcu.externaltools.arm-none.linux64_1.13.1.201707031232/tools/compiler/bin/../lib/gcc/arm-none-eabi/5.4.1/../../../../arm-none-eabi/lib/armv7e-m/fpu/libc.a(lib_a-memcpy.o)
                              /home/ece/Ac6/SystemWorkbench/plugins/fr.ac6.mcu.externaltools.arm-none.linux64_1.13.1.201707031232/tools/compiler/bin/../lib/gcc/arm-none-eabi/5.4.1/../../../../arm-none-eabi/lib/armv7e-m/fpu/libc.a(lib_a-dtoa.o) (memcpy)
/home/ece/Ac6/SystemWorkbench/plugins/fr.ac6.mcu.externaltools.arm-none.linux64_1.13.1.201707031232/tools/compiler/bin/../lib/gcc/arm-none-eabi/5.4.1/../../../../arm-none-eabi/lib/armv7e-m/fpu/libc.a(lib_a-mprec.o)
                              /home/ece/Ac6/SystemWorkbench/plugins/fr.ac6.mcu.externaltools.arm-none.linux64_1.13.1.201707031232/tools/compiler/bin/../lib/gcc/arm-none-eabi/5.4.1/../../../../arm-none-eabi/lib/armv7e-m/fpu/libc.a(lib_a-dtoa.o) (_Balloc)
/home/ece/Ac6/SystemWorkbench/plugins/fr.ac6.mcu.externaltools.arm-none.linux64_1.13.1.201707031232/tools/compiler/bin/../lib/gcc/arm-none-eabi/5.4.1/../../../../arm-none-eabi/lib/armv7e-m/fpu/libc.a(lib_a-svfiprintf.o)
                              /home/ece/Ac6/SystemWorkbench/plugins/fr.ac6.mcu.externaltools.arm-none.linux64_1.13.1.201707031232/tools/compiler/bin/../lib/gcc/arm-none-eabi/5.4.1/../../../../arm-none-eabi/lib/armv7e-m/fpu/libc.a(lib_a-svfprintf.o) (__ssprint_r)
/home/ece/Ac6/SystemWorkbench/plugins/fr.ac6.mcu.externaltools.arm-none.linux64_1.13.1.201707031232/tools/compiler/bin/../lib/gcc/arm-none-eabi/5.4.1/../../../../arm-none-eabi/lib/armv7e-m/fpu/libc.a(lib_a-callocr.o)
                              /home/ece/Ac6/SystemWorkbench/plugins/fr.ac6.mcu.externaltools.arm-none.linux64_1.13.1.201707031232/tools/compiler/bin/../lib/gcc/arm-none-eabi/5.4.1/../../../../arm-none-eabi/lib/armv7e-m/fpu/libc.a(lib_a-mprec.o) (_calloc_r)
/home/ece/Ac6/SystemWorkbench/plugins/fr.ac6.mcu.externaltools.arm-none.linux64_1.13.1.201707031232/tools/compiler/bin/../lib/gcc/arm-none-eabi/5.4.1/../../../../arm-none-eabi/lib/armv7e-m/fpu/libc.a(lib_a-locale.o)
                              /home/ece/Ac6/SystemWorkbench/plugins/fr.ac6.mcu.externaltools.arm-none.linux64_1.13.1.201707031232/tools/compiler/bin/../lib/gcc/arm-none-eabi/5.4.1/../../../../arm-none-eabi/lib/armv7e-m/fpu/libc.a(lib_a-localeconv.o) (__global_locale)
/home/ece/Ac6/SystemWorkbench/plugins/fr.ac6.mcu.externaltools.arm-none.linux64_1.13.1.201707031232/tools/compiler/bin/../lib/gcc/arm-none-eabi/5.4.1/../../../../arm-none-eabi/lib/armv7e-m/fpu/libc.a(lib_a-mbtowc_r.o)
                              /home/ece/Ac6/SystemWorkbench/plugins/fr.ac6.mcu.externaltools.arm-none.linux64_1.13.1.201707031232/tools/compiler/bin/../lib/gcc/arm-none-eabi/5.4.1/../../../../arm-none-eabi/lib/armv7e-m/fpu/libc.a(lib_a-locale.o) (__ascii_mbtowc)
/home/ece/Ac6/SystemWorkbench/plugins/fr.ac6.mcu.externaltools.arm-none.linux64_1.13.1.201707031232/tools/compiler/bin/../lib/gcc/arm-none-eabi/5.4.1/../../../../arm-none-eabi/lib/armv7e-m/fpu/libc.a(lib_a-memmove.o)
                              /home/ece/Ac6/SystemWorkbench/plugins/fr.ac6.mcu.externaltools.arm-none.linux64_1.13.1.201707031232/tools/compiler/bin/../lib/gcc/arm-none-eabi/5.4.1/../../../../arm-none-eabi/lib/armv7e-m/fpu/libc.a(lib_a-svfiprintf.o) (memmove)
/home/ece/Ac6/SystemWorkbench/plugins/fr.ac6.mcu.externaltools.arm-none.linux64_1.13.1.201707031232/tools/compiler/bin/../lib/gcc/arm-none-eabi/5.4.1/../../../../arm-none-eabi/lib/armv7e-m/fpu/libc.a(lib_a-reallocr.o)
                              /home/ece/Ac6/SystemWorkbench/plugins/fr.ac6.mcu.externaltools.arm-none.linux64_1.13.1.201707031232/tools/compiler/bin/../lib/gcc/arm-none-eabi/5.4.1/../../../../arm-none-eabi/lib/armv7e-m/fpu/libc.a(lib_a-svfiprintf.o) (_realloc_r)
/home/ece/Ac6/SystemWorkbench/plugins/fr.ac6.mcu.externaltools.arm-none.linux64_1.13.1.201707031232/tools/compiler/bin/../lib/gcc/arm-none-eabi/5.4.1/../../../../arm-none-eabi/lib/armv7e-m/fpu/libc.a(lib_a-strcmp.o)
                              /home/ece/Ac6/SystemWorkbench/plugins/fr.ac6.mcu.externaltools.arm-none.linux64_1.13.1.201707031232/tools/compiler/bin/../lib/gcc/arm-none-eabi/5.4.1/../../../../arm-none-eabi/lib/armv7e-m/fpu/libc.a(lib_a-locale.o) (strcmp)
/home/ece/Ac6/SystemWorkbench/plugins/fr.ac6.mcu.externaltools.arm-none.linux64_1.13.1.201707031232/tools/compiler/bin/../lib/gcc/arm-none-eabi/5.4.1/../../../../arm-none-eabi/lib/armv7e-m/fpu/libc.a(lib_a-wctomb_r.o)
                              /home/ece/Ac6/SystemWorkbench/plugins/fr.ac6.mcu.externaltools.arm-none.linux64_1.13.1.201707031232/tools/compiler/bin/../lib/gcc/arm-none-eabi/5.4.1/../../../../arm-none-eabi/lib/armv7e-m/fpu/libc.a(lib_a-locale.o) (__ascii_wctomb)
/home/ece/Ac6/SystemWorkbench/plugins/fr.ac6.mcu.externaltools.arm-none.linux64_1.13.1.201707031232/tools/compiler/bin/../lib/gcc/arm-none-eabi/5.4.1/../../../../arm-none-eabi/lib/armv7e-m/fpu/libc.a(lib_a-ctype_.o)
                              /home/ece/Ac6/SystemWorkbench/plugins/fr.ac6.mcu.externaltools.arm-none.linux64_1.13.1.201707031232/tools/compiler/bin/../lib/gcc/arm-none-eabi/5.4.1/../../../../arm-none-eabi/lib/armv7e-m/fpu/libc.a(lib_a-locale.o) (_ctype_)
/home/ece/Ac6/SystemWorkbench/plugins/fr.ac6.mcu.externaltools.arm-none.linux64_1.13.1.201707031232/tools/compiler/bin/../lib/gcc/arm-none-eabi/5.4.1/armv7e-m/fpu/libgcc.a(_aeabi_uldivmod.o)
                              /home/ece/Ac6/SystemWorkbench/plugins/fr.ac6.mcu.externaltools.arm-none.linux64_1.13.1.201707031232/tools/compiler/bin/../lib/gcc/arm-none-eabi/5.4.1/../../../../arm-none-eabi/lib/armv7e-m/fpu/libc.a(lib_a-svfprintf.o) (__aeabi_uldivmod)
/home/ece/Ac6/SystemWorkbench/plugins/fr.ac6.mcu.externaltools.arm-none.linux64_1.13.1.201707031232/tools/compiler/bin/../lib/gcc/arm-none-eabi/5.4.1/armv7e-m/fpu/libgcc.a(_udivmoddi4.o)
                              /home/ece/Ac6/SystemWorkbench/plugins/fr.ac6.mcu.externaltools.arm-none.linux64_1.13.1.201707031232/tools/compiler/bin/../lib/gcc/arm-none-eabi/5.4.1/armv7e-m/fpu/libgcc.a(_aeabi_uldivmod.o) (__udivmoddi4)
/home/ece/Ac6/SystemWorkbench/plugins/fr.ac6.mcu.externaltools.arm-none.linux64_1.13.1.201707031232/tools/compiler/bin/../lib/gcc/arm-none-eabi/5.4.1/armv7e-m/fpu/libgcc.a(_dvmd_tls.o)
                              /home/ece/Ac6/SystemWorkbench/plugins/fr.ac6.mcu.externaltools.arm-none.linux64_1.13.1.201707031232/tools/compiler/bin/../lib/gcc/arm-none-eabi/5.4.1/armv7e-m/fpu/libgcc.a(_aeabi_uldivmod.o) (__aeabi_ldiv0)

Allocating common symbols
Common symbol       size              file

TEMPERATURE_Value   0x4               Source/App/MEMS/mems.o
T0_out              0x2               Source/Drivers/BSP/Components/hts221/hts221.o
errno               0x4               /home/ece/Ac6/SystemWorkbench/plugins/fr.ac6.mcu.externaltools.arm-none.linux64_1.13.1.201707031232/tools/compiler/bin/../lib/gcc/arm-none-eabi/5.4.1/../../../../arm-none-eabi/lib/armv7e-m/fpu/libc.a(lib_a-reent.o)
PRESSURE_Value      0x4               Source/App/MEMS/mems.o
pFlash              0x20              Source/Drivers/STM32F4xx_HAL_Driver/Src/stm32f4xx_hal_flash.o
GYR_Value           0xc               Source/App/MEMS/mems.o
T0_degC             0x4               Source/Drivers/BSP/Components/hts221/hts221.o
T1_out              0x2               Source/Drivers/BSP/Components/hts221/hts221.o
HUMIDITY_Value      0x4               Source/App/MEMS/mems.o
T1_degC             0x4               Source/Drivers/BSP/Components/hts221/hts221.o
H0_rh               0x4               Source/Drivers/BSP/Components/hts221/hts221.o
H1_rh               0x4               Source/Drivers/BSP/Components/hts221/hts221.o
H0_T0_out           0x2               Source/Drivers/BSP/Components/hts221/hts221.o
ACC_Value           0xc               Source/App/MEMS/mems.o
mems_read_period_ms
                    0x4               Source/App/MEMS/mems.o
H1_T0_out           0x2               Source/Drivers/BSP/Components/hts221/hts221.o
MAG_Value           0xc               Source/App/MEMS/mems.o

Discarded input sections

 .text          0x00000000        0x0 /home/ece/Ac6/SystemWorkbench/plugins/fr.ac6.mcu.externaltools.arm-none.linux64_1.13.1.201707031232/tools/compiler/bin/../lib/gcc/arm-none-eabi/5.4.1/armv7e-m/fpu/crti.o
 .data          0x00000000        0x0 /home/ece/Ac6/SystemWorkbench/plugins/fr.ac6.mcu.externaltools.arm-none.linux64_1.13.1.201707031232/tools/compiler/bin/../lib/gcc/arm-none-eabi/5.4.1/armv7e-m/fpu/crti.o
 .bss           0x00000000        0x0 /home/ece/Ac6/SystemWorkbench/plugins/fr.ac6.mcu.externaltools.arm-none.linux64_1.13.1.201707031232/tools/compiler/bin/../lib/gcc/arm-none-eabi/5.4.1/armv7e-m/fpu/crti.o
 .data          0x00000000        0x4 /home/ece/Ac6/SystemWorkbench/plugins/fr.ac6.mcu.externaltools.arm-none.linux64_1.13.1.201707031232/tools/compiler/bin/../lib/gcc/arm-none-eabi/5.4.1/armv7e-m/fpu/crtbegin.o
 .text          0x00000000       0x74 /home/ece/Ac6/SystemWorkbench/plugins/fr.ac6.mcu.externaltools.arm-none.linux64_1.13.1.201707031232/tools/compiler/bin/../lib/gcc/arm-none-eabi/5.4.1/../../../../arm-none-eabi/lib/armv7e-m/fpu/crt0.o
 .data          0x00000000        0x0 /home/ece/Ac6/SystemWorkbench/plugins/fr.ac6.mcu.externaltools.arm-none.linux64_1.13.1.201707031232/tools/compiler/bin/../lib/gcc/arm-none-eabi/5.4.1/../../../../arm-none-eabi/lib/armv7e-m/fpu/crt0.o
 .bss           0x00000000        0x0 /home/ece/Ac6/SystemWorkbench/plugins/fr.ac6.mcu.externaltools.arm-none.linux64_1.13.1.201707031232/tools/compiler/bin/../lib/gcc/arm-none-eabi/5.4.1/../../../../arm-none-eabi/lib/armv7e-m/fpu/crt0.o
 .ARM.extab     0x00000000        0x0 /home/ece/Ac6/SystemWorkbench/plugins/fr.ac6.mcu.externaltools.arm-none.linux64_1.13.1.201707031232/tools/compiler/bin/../lib/gcc/arm-none-eabi/5.4.1/../../../../arm-none-eabi/lib/armv7e-m/fpu/crt0.o
 .ARM.exidx     0x00000000        0x8 /home/ece/Ac6/SystemWorkbench/plugins/fr.ac6.mcu.externaltools.arm-none.linux64_1.13.1.201707031232/tools/compiler/bin/../lib/gcc/arm-none-eabi/5.4.1/../../../../arm-none-eabi/lib/armv7e-m/fpu/crt0.o
 .ARM.attributes
                0x00000000       0x20 /home/ece/Ac6/SystemWorkbench/plugins/fr.ac6.mcu.externaltools.arm-none.linux64_1.13.1.201707031232/tools/compiler/bin/../lib/gcc/arm-none-eabi/5.4.1/../../../../arm-none-eabi/lib/armv7e-m/fpu/crt0.o
 .group         0x00000000        0x8 Source/App/Button/button.o
 .group         0x00000000        0x8 Source/App/Button/button.o
 .group         0x00000000        0x8 Source/App/Button/button.o
 .group         0x00000000        0x8 Source/App/Button/button.o
 .group         0x00000000        0x8 Source/App/Button/button.o
 .group         0x00000000        0x8 Source/App/Button/button.o
 .group         0x00000000        0x8 Source/App/Button/button.o
Memory Configuration

Name             Origin             Length             Attributes
FLASH            0x08000000         0x00080000         xr
RAM              0x20000000         0x00018000         xrw
*default*        0x00000000         0xffffffff

Linker script and memory map

LOAD /home/ece/Ac6/SystemWorkbench/plugins/fr.ac6.mcu.externaltools.arm-none.linux64_1.13.1.201707031232/tools/compiler/bin/../lib/gcc/arm-none-eabi/5.4.1/armv7e-m/fpu/crti.o
LOAD /home/ece/Ac6/SystemWorkbench/plugins/fr.ac6.mcu.externaltools.arm-none.linux64_1.13.1.201707031232/tools/compiler/bin/../lib/gcc/arm-none-eabi/5.4.1/armv7e-m/fpu/crtbegin.o
LOAD /home/ece/Ac6/SystemWorkbench/plugins/fr.ac6.mcu.externaltools.arm-none.linux64_1.13.1.201707031232/tools/compiler/bin/../lib/gcc/arm-none-eabi/5.4.1/../../../../arm-none-eabi/lib/armv7e-m/fpu/crt0.o
LOAD Source/App/Button/button.o
LOAD Source/App/MEMS/mems.o
LOAD Source/App/Main/cube_hal_f4.o
LOAD Source/App/Main/main.o
LOAD Source/App/Main/startup_stm32f401xe.o
LOAD Source/App/Main/stm32f4xx_hal_msp.o
LOAD Source/App/Main/stm32f4xx_it.o
LOAD Source/App/Main/system_stm32f4xx.o
LOAD Source/App/Motion/motion.o
LOAD Source/App/Time/clock.o
LOAD Source/App/Time/gp_timer.o
LOAD Source/Drivers/BSP/Components/hts221/hts221.o
LOAD Source/Drivers/BSP/Components/lis3mdl/lis3mdl.o
LOAD Source/Drivers/BSP/Components/lps25h/lps25h.o
LOAD Source/Drivers/BSP/Components/lps25hb/lps25hb.o
LOAD Source/Drivers/BSP/Components/lsm6ds0/lsm6ds0.o
LOAD Source/Drivers/BSP/Components/lsm6ds3/lsm6ds3.o
LOAD Source/Drivers/BSP/STM32F4xx-Nucleo/stm32f4xx_nucleo.o
LOAD Source/Drivers/BSP/X_NUCLEO_IKS01A1/x_nucleo_iks01a1.o
LOAD Source/Drivers/BSP/X_NUCLEO_IKS01A1/x_nucleo_iks01a1_hum_temp.o
LOAD Source/Drivers/BSP/X_NUCLEO_IKS01A1/x_nucleo_iks01a1_imu_6axes.o
LOAD Source/Drivers/BSP/X_NUCLEO_IKS01A1/x_nucleo_iks01a1_magneto.o
LOAD Source/Drivers/BSP/X_NUCLEO_IKS01A1/x_nucleo_iks01a1_pressure.o
LOAD Source/Drivers/STM32F4xx_HAL_Driver/Src/stm32f4xx_hal.o
LOAD Source/Drivers/STM32F4xx_HAL_Driver/Src/stm32f4xx_hal_adc.o
LOAD Source/Drivers/STM32F4xx_HAL_Driver/Src/stm32f4xx_hal_adc_ex.o
LOAD Source/Drivers/STM32F4xx_HAL_Driver/Src/stm32f4xx_hal_can.o
LOAD Source/Drivers/STM32F4xx_HAL_Driver/Src/stm32f4xx_hal_cec.o
LOAD Source/Drivers/STM32F4xx_HAL_Driver/Src/stm32f4xx_hal_cortex.o
LOAD Source/Drivers/STM32F4xx_HAL_Driver/Src/stm32f4xx_hal_crc.o
LOAD Source/Drivers/STM32F4xx_HAL_Driver/Src/stm32f4xx_hal_cryp.o
LOAD Source/Drivers/STM32F4xx_HAL_Driver/Src/stm32f4xx_hal_cryp_ex.o
LOAD Source/Drivers/STM32F4xx_HAL_Driver/Src/stm32f4xx_hal_dac.o
LOAD Source/Drivers/STM32F4xx_HAL_Driver/Src/stm32f4xx_hal_dac_ex.o
LOAD Source/Drivers/STM32F4xx_HAL_Driver/Src/stm32f4xx_hal_dcmi.o
LOAD Source/Drivers/STM32F4xx_HAL_Driver/Src/stm32f4xx_hal_dcmi_ex.o
LOAD Source/Drivers/STM32F4xx_HAL_Driver/Src/stm32f4xx_hal_dma.o
LOAD Source/Drivers/STM32F4xx_HAL_Driver/Src/stm32f4xx_hal_dma2d.o
LOAD Source/Drivers/STM32F4xx_HAL_Driver/Src/stm32f4xx_hal_dma_ex.o
LOAD Source/Drivers/STM32F4xx_HAL_Driver/Src/stm32f4xx_hal_eth.o
LOAD Source/Drivers/STM32F4xx_HAL_Driver/Src/stm32f4xx_hal_flash.o
LOAD Source/Drivers/STM32F4xx_HAL_Driver/Src/stm32f4xx_hal_flash_ex.o
LOAD Source/Drivers/STM32F4xx_HAL_Driver/Src/stm32f4xx_hal_flash_ramfunc.o
LOAD Source/Drivers/STM32F4xx_HAL_Driver/Src/stm32f4xx_hal_fmpi2c.o
LOAD Source/Drivers/STM32F4xx_HAL_Driver/Src/stm32f4xx_hal_fmpi2c_ex.o
LOAD Source/Drivers/STM32F4xx_HAL_Driver/Src/stm32f4xx_hal_gpio.o
LOAD Source/Drivers/STM32F4xx_HAL_Driver/Src/stm32f4xx_hal_hash.o
LOAD Source/Drivers/STM32F4xx_HAL_Driver/Src/stm32f4xx_hal_hash_ex.o
LOAD Source/Drivers/STM32F4xx_HAL_Driver/Src/stm32f4xx_hal_hcd.o
LOAD Source/Drivers/STM32F4xx_HAL_Driver/Src/stm32f4xx_hal_i2c.o
LOAD Source/Drivers/STM32F4xx_HAL_Driver/Src/stm32f4xx_hal_i2c_ex.o
LOAD Source/Drivers/STM32F4xx_HAL_Driver/Src/stm32f4xx_hal_i2s.o
LOAD Source/Drivers/STM32F4xx_HAL_Driver/Src/stm32f4xx_hal_i2s_ex.o
LOAD Source/Drivers/STM32F4xx_HAL_Driver/Src/stm32f4xx_hal_irda.o
LOAD Source/Drivers/STM32F4xx_HAL_Driver/Src/stm32f4xx_hal_iwdg.o
LOAD Source/Drivers/STM32F4xx_HAL_Driver/Src/stm32f4xx_hal_ltdc.o
LOAD Source/Drivers/STM32F4xx_HAL_Driver/Src/stm32f4xx_hal_nand.o
LOAD Source/Drivers/STM32F4xx_HAL_Driver/Src/stm32f4xx_hal_nor.o
LOAD Source/Drivers/STM32F4xx_HAL_Driver/Src/stm32f4xx_hal_pccard.o
LOAD Source/Drivers/STM32F4xx_HAL_Driver/Src/stm32f4xx_hal_pcd.o
LOAD Source/Drivers/STM32F4xx_HAL_Driver/Src/stm32f4xx_hal_pcd_ex.o
LOAD Source/Drivers/STM32F4xx_HAL_Driver/Src/stm32f4xx_hal_pwr.o
LOAD Source/Drivers/STM32F4xx_HAL_Driver/Src/stm32f4xx_hal_pwr_ex.o
LOAD Source/Drivers/STM32F4xx_HAL_Driver/Src/stm32f4xx_hal_qspi.o
LOAD Source/Drivers/STM32F4xx_HAL_Driver/Src/stm32f4xx_hal_rcc.o
LOAD Source/Drivers/STM32F4xx_HAL_Driver/Src/stm32f4xx_hal_rcc_ex.o
LOAD Source/Drivers/STM32F4xx_HAL_Driver/Src/stm32f4xx_hal_rng.o
LOAD Source/Drivers/STM32F4xx_HAL_Driver/Src/stm32f4xx_hal_rtc.o
LOAD Source/Drivers/STM32F4xx_HAL_Driver/Src/stm32f4xx_hal_rtc_ex.o
LOAD Source/Drivers/STM32F4xx_HAL_Driver/Src/stm32f4xx_hal_sai.o
LOAD Source/Drivers/STM32F4xx_HAL_Driver/Src/stm32f4xx_hal_sai_ex.o
LOAD Source/Drivers/STM32F4xx_HAL_Driver/Src/stm32f4xx_hal_sd.o
LOAD Source/Drivers/STM32F4xx_HAL_Driver/Src/stm32f4xx_hal_sdram.o
LOAD Source/Drivers/STM32F4xx_HAL_Driver/Src/stm32f4xx_hal_smartcard.o
LOAD Source/Drivers/STM32F4xx_HAL_Driver/Src/stm32f4xx_hal_spdifrx.o
LOAD Source/Drivers/STM32F4xx_HAL_Driver/Src/stm32f4xx_hal_spi.o
LOAD Source/Drivers/STM32F4xx_HAL_Driver/Src/stm32f4xx_hal_sram.o
LOAD Source/Drivers/STM32F4xx_HAL_Driver/Src/stm32f4xx_hal_tim.o
LOAD Source/Drivers/STM32F4xx_HAL_Driver/Src/stm32f4xx_hal_tim_ex.o
LOAD Source/Drivers/STM32F4xx_HAL_Driver/Src/stm32f4xx_hal_uart.o
LOAD Source/Drivers/STM32F4xx_HAL_Driver/Src/stm32f4xx_hal_usart.o
LOAD Source/Drivers/STM32F4xx_HAL_Driver/Src/stm32f4xx_hal_wwdg.o
LOAD Source/Drivers/STM32F4xx_HAL_Driver/Src/stm32f4xx_ll_fmc.o
LOAD Source/Drivers/STM32F4xx_HAL_Driver/Src/stm32f4xx_ll_fsmc.o
LOAD Source/Drivers/STM32F4xx_HAL_Driver/Src/stm32f4xx_ll_sdmmc.o
LOAD Source/Drivers/STM32F4xx_HAL_Driver/Src/stm32f4xx_ll_usb.o
LOAD Source/Drivers/Utils/Trace/syscalls.o
LOAD Source/Drivers/Utils/Trace/trace.o
LOAD Source/Drivers/Utils/Trace/trace_impl.o
LOAD /home/ece/Ac6/SystemWorkbench/plugins/fr.ac6.mcu.externaltools.arm-none.linux64_1.13.1.201707031232/tools/compiler/bin/../lib/gcc/arm-none-eabi/5.4.1/../../../../arm-none-eabi/lib/armv7e-m/fpu/libm.a
START GROUP
LOAD /home/ece/Ac6/SystemWorkbench/plugins/fr.ac6.mcu.externaltools.arm-none.linux64_1.13.1.201707031232/tools/compiler/bin/../lib/gcc/arm-none-eabi/5.4.1/armv7e-m/fpu/libgcc.a
LOAD /home/ece/Ac6/SystemWorkbench/plugins/fr.ac6.mcu.externaltools.arm-none.linux64_1.13.1.201707031232/tools/compiler/bin/../lib/gcc/arm-none-eabi/5.4.1/../../../../arm-none-eabi/lib/armv7e-m/fpu/libc.a
END GROUP
LOAD /home/ece/Ac6/SystemWorkbench/plugins/fr.ac6.mcu.externaltools.arm-none.linux64_1.13.1.201707031232/tools/compiler/bin/../lib/gcc/arm-none-eabi/5.4.1/armv7e-m/fpu/crtend.o
LOAD /home/ece/Ac6/SystemWorkbench/plugins/fr.ac6.mcu.externaltools.arm-none.linux64_1.13.1.201707031232/tools/compiler/bin/../lib/gcc/arm-none-eabi/5.4.1/armv7e-m/fpu/crtn.o
                0x20017fff                _estack = 0x20017fff
                0x00000200                _Min_Heap_Size = 0x200
                0x00000400                _Min_Stack_Size = 0x400

.isr_vector     0x08000000      0x194
                0x08000000                . = ALIGN (0x4)
 *(.isr_vector)
 .isr_vector    0x08000000      0x194 Source/App/Main/startup_stm32f401xe.o
                0x08000000                g_pfnVectors
                0x08000194                . = ALIGN (0x4)

.text           0x080001c0     0xc19c
                0x080001c0                . = ALIGN (0x4)
 *(.text)
 .text          0x080001c0       0x5c /home/ece/Ac6/SystemWorkbench/plugins/fr.ac6.mcu.externaltools.arm-none.linux64_1.13.1.201707031232/tools/compiler/bin/../lib/gcc/arm-none-eabi/5.4.1/armv7e-m/fpu/crtbegin.o
 .text          0x0800021c      0x370 /home/ece/Ac6/SystemWorkbench/plugins/fr.ac6.mcu.externaltools.arm-none.linux64_1.13.1.201707031232/tools/compiler/bin/../lib/gcc/arm-none-eabi/5.4.1/armv7e-m/fpu/libgcc.a(_arm_addsubdf3.o)
                0x0800021c                __aeabi_drsub
                0x08000224                __aeabi_dsub
                0x08000224                __subdf3
                0x08000228                __adddf3
                0x08000228                __aeabi_dadd
                0x080004a0                __aeabi_ui2d
                0x080004a0                __floatunsidf
                0x080004c0                __floatsidf
                0x080004c0                __aeabi_i2d
                0x080004e4                __extendsfdf2
                0x080004e4                __aeabi_f2d
                0x08000520                __aeabi_ul2d
                0x08000520                __floatundidf
                0x08000530                __floatdidf
                0x08000530                __aeabi_l2d
 .text          0x0800058c      0x424 /home/ece/Ac6/SystemWorkbench/plugins/fr.ac6.mcu.externaltools.arm-none.linux64_1.13.1.201707031232/tools/compiler/bin/../lib/gcc/arm-none-eabi/5.4.1/armv7e-m/fpu/libgcc.a(_arm_muldivdf3.o)
                0x0800058c                __aeabi_dmul
                0x0800058c                __muldf3
                0x080007e0                __aeabi_ddiv
                0x080007e0                __divdf3
 .text          0x080009b0      0x110 /home/ece/Ac6/SystemWorkbench/plugins/fr.ac6.mcu.externaltools.arm-none.linux64_1.13.1.201707031232/tools/compiler/bin/../lib/gcc/arm-none-eabi/5.4.1/armv7e-m/fpu/libgcc.a(_arm_cmpdf2.o)
                0x080009b0                __gtdf2
                0x080009b0                __gedf2
                0x080009b8                __ltdf2
                0x080009b8                __ledf2
                0x080009c0                __cmpdf2
                0x080009c0                __eqdf2
                0x080009c0                __nedf2
                0x08000a3c                __aeabi_cdrcmple
                0x08000a4c                __aeabi_cdcmple
                0x08000a4c                __aeabi_cdcmpeq
                0x08000a5c                __aeabi_dcmpeq
                0x08000a70                __aeabi_dcmplt
                0x08000a84                __aeabi_dcmple
                0x08000a98                __aeabi_dcmpge
                0x08000aac                __aeabi_dcmpgt
 .text          0x08000ac0       0x2c /home/ece/Ac6/SystemWorkbench/plugins/fr.ac6.mcu.externaltools.arm-none.linux64_1.13.1.201707031232/tools/compiler/bin/../lib/gcc/arm-none-eabi/5.4.1/armv7e-m/fpu/libgcc.a(_arm_unorddf2.o)
                0x08000ac0                __aeabi_dcmpun
                0x08000ac0                __unorddf2
 .text          0x08000aec       0x50 /home/ece/Ac6/SystemWorkbench/plugins/fr.ac6.mcu.externaltools.arm-none.linux64_1.13.1.201707031232/tools/compiler/bin/../lib/gcc/arm-none-eabi/5.4.1/armv7e-m/fpu/libgcc.a(_arm_fixdfsi.o)
                0x08000aec                __fixdfsi
                0x08000aec                __aeabi_d2iz
 .text          0x08000b3c       0x40 /home/ece/Ac6/SystemWorkbench/plugins/fr.ac6.mcu.externaltools.arm-none.linux64_1.13.1.201707031232/tools/compiler/bin/../lib/gcc/arm-none-eabi/5.4.1/armv7e-m/fpu/libgcc.a(_arm_fixunsdfsi.o)
                0x08000b3c                __fixunsdfsi
                0x08000b3c                __aeabi_d2uiz
 *fill*         0x08000b7c        0x4 
 .text          0x08000b80       0xdc /home/ece/Ac6/SystemWorkbench/plugins/fr.ac6.mcu.externaltools.arm-none.linux64_1.13.1.201707031232/tools/compiler/bin/../lib/gcc/arm-none-eabi/5.4.1/../../../../arm-none-eabi/lib/armv7e-m/fpu/libc.a(lib_a-strlen.o)
                0x08000b80                strlen
 *fill*         0x08000c5c        0x4 
 .text          0x08000c60       0xa0 /home/ece/Ac6/SystemWorkbench/plugins/fr.ac6.mcu.externaltools.arm-none.linux64_1.13.1.201707031232/tools/compiler/bin/../lib/gcc/arm-none-eabi/5.4.1/../../../../arm-none-eabi/lib/armv7e-m/fpu/libc.a(lib_a-memchr.o)
                0x08000c60                memchr
 .text          0x08000d00      0x134 /home/ece/Ac6/SystemWorkbench/plugins/fr.ac6.mcu.externaltools.arm-none.linux64_1.13.1.201707031232/tools/compiler/bin/../lib/gcc/arm-none-eabi/5.4.1/../../../../arm-none-eabi/lib/armv7e-m/fpu/libc.a(lib_a-memcpy.o)
                0x08000d00                memcpy
 .text          0x08000e34       0x30 /home/ece/Ac6/SystemWorkbench/plugins/fr.ac6.mcu.externaltools.arm-none.linux64_1.13.1.201707031232/tools/compiler/bin/../lib/gcc/arm-none-eabi/5.4.1/armv7e-m/fpu/libgcc.a(_aeabi_uldivmod.o)
                0x08000e34                __aeabi_uldivmod
 .text          0x08000e64      0x2e4 /home/ece/Ac6/SystemWorkbench/plugins/fr.ac6.mcu.externaltools.arm-none.linux64_1.13.1.201707031232/tools/compiler/bin/../lib/gcc/arm-none-eabi/5.4.1/armv7e-m/fpu/libgcc.a(_udivmoddi4.o)
                0x08000e64                __udivmoddi4
 .text          0x08001148        0x4 /home/ece/Ac6/SystemWorkbench/plugins/fr.ac6.mcu.externaltools.arm-none.linux64_1.13.1.201707031232/tools/compiler/bin/../lib/gcc/arm-none-eabi/5.4.1/armv7e-m/fpu/libgcc.a(_dvmd_tls.o)
                0x08001148                __aeabi_ldiv0
                0x08001148                __aeabi_idiv0
 *(.text*)
 .text.Button_Init
                0x0800114c       0x28 Source/App/Button/button.o
                0x0800114c                Button_Init
 .text.Button_Button_Pressed_CB
                0x08001174       0x14 Source/App/Button/button.o
                0x08001174                Button_Button_Pressed_CB
 .text.Button_Button_Released_CB
                0x08001188       0x14 Source/App/Button/button.o
                0x08001188                Button_Button_Released_CB
 .text.Button_Button_Pressed_And_Released_CB
                0x0800119c       0x14 Source/App/Button/button.o
                0x0800119c                Button_Button_Pressed_And_Released_CB
 .text.Button_Button_Long_Pressed_CB
                0x080011b0       0x14 Source/App/Button/button.o
                0x080011b0                Button_Button_Long_Pressed_CB
 .text.Button_Process
                0x080011c4       0xa8 Source/App/Button/button.o
                0x080011c4                Button_Process
 .text.Mems_Init
                0x0800126c       0x18 Source/App/MEMS/mems.o
                0x0800126c                Mems_Init
 .text.Mems_Acc_CB
                0x08001284       0x24 Source/App/MEMS/mems.o
                0x08001284                Mems_Acc_CB
 .text.Mems_Gyr_CB
                0x080012a8       0x24 Source/App/MEMS/mems.o
                0x080012a8                Mems_Gyr_CB
 .text.Mems_Mag_CB
                0x080012cc       0x24 Source/App/MEMS/mems.o
                0x080012cc                Mems_Mag_CB
 .text.Mems_Pressure_CB
                0x080012f0       0x20 Source/App/MEMS/mems.o
                0x080012f0                Mems_Pressure_CB
 .text.Mems_Hum_CB
                0x08001310       0x20 Source/App/MEMS/mems.o
                0x08001310                Mems_Hum_CB
 .text.Mems_Temp_CB
                0x08001330       0x20 Source/App/MEMS/mems.o
                0x08001330                Mems_Temp_CB
 .text.Imu_6axes_Sensor_Handler
                0x08001350       0x8c Source/App/MEMS/mems.o
 .text.Magneto_Sensor_Handler
                0x080013dc       0x48 Source/App/MEMS/mems.o
 .text.Pressure_Sensor_Handler
                0x08001424       0x4c Source/App/MEMS/mems.o
 .text.HumTemp_Sensor_Handler
                0x08001470       0x98 Source/App/MEMS/mems.o
 .text.Mems_Process
                0x08001508       0x7c Source/App/MEMS/mems.o
                0x08001508                Mems_Process
 *fill*         0x08001584        0x4 
 .text.floatToInt
                0x08001588       0xa0 Source/App/MEMS/mems.o
 .text.SystemClock_Config
                0x08001628       0x9c Source/App/Main/cube_hal_f4.o
                0x08001628                SystemClock_Config
 .text.main     0x080016c4       0x28 Source/App/Main/main.o
                0x080016c4                main
 .text.Reset_Handler
                0x080016ec       0x50 Source/App/Main/startup_stm32f401xe.o
                0x080016ec                Reset_Handler
 .text.Default_Handler
                0x0800173c        0x2 Source/App/Main/startup_stm32f401xe.o
                0x0800173c                RTC_Alarm_IRQHandler
                0x0800173c                EXTI2_IRQHandler
                0x0800173c                SPI4_IRQHandler
                0x0800173c                TIM1_CC_IRQHandler
                0x0800173c                DMA2_Stream5_IRQHandler
                0x0800173c                DMA1_Stream5_IRQHandler
                0x0800173c                PVD_IRQHandler
                0x0800173c                SDIO_IRQHandler
                0x0800173c                TAMP_STAMP_IRQHandler
                0x0800173c                PendSV_Handler
                0x0800173c                EXTI3_IRQHandler
                0x0800173c                TIM1_UP_TIM10_IRQHandler
                0x0800173c                I2C3_ER_IRQHandler
                0x0800173c                EXTI0_IRQHandler
                0x0800173c                I2C2_EV_IRQHandler
                0x0800173c                DMA1_Stream2_IRQHandler
                0x0800173c                FPU_IRQHandler
                0x0800173c                UsageFault_Handler
                0x0800173c                DMA2_Stream2_IRQHandler
                0x0800173c                SPI1_IRQHandler
                0x0800173c                TIM1_BRK_TIM9_IRQHandler
                0x0800173c                DMA2_Stream3_IRQHandler
                0x0800173c                USART6_IRQHandler
                0x0800173c                DMA2_Stream0_IRQHandler
                0x0800173c                TIM4_IRQHandler
                0x0800173c                I2C1_EV_IRQHandler
                0x0800173c                DMA1_Stream6_IRQHandler
                0x0800173c                DMA1_Stream1_IRQHandler
                0x0800173c                TIM3_IRQHandler
                0x0800173c                RCC_IRQHandler
                0x0800173c                Default_Handler
                0x0800173c                ADC_IRQHandler
                0x0800173c                DMA1_Stream7_IRQHandler
                0x0800173c                TIM5_IRQHandler
                0x0800173c                DMA2_Stream7_IRQHandler
                0x0800173c                I2C3_EV_IRQHandler
                0x0800173c                EXTI9_5_IRQHandler
                0x0800173c                RTC_WKUP_IRQHandler
                0x0800173c                SPI2_IRQHandler
                0x0800173c                MemManage_Handler
                0x0800173c                DMA1_Stream0_IRQHandler
                0x0800173c                SVC_Handler
                0x0800173c                EXTI4_IRQHandler
                0x0800173c                WWDG_IRQHandler
                0x0800173c                TIM2_IRQHandler
                0x0800173c                OTG_FS_WKUP_IRQHandler
                0x0800173c                TIM1_TRG_COM_TIM11_IRQHandler
                0x0800173c                EXTI1_IRQHandler
                0x0800173c                USART2_IRQHandler
                0x0800173c                I2C2_ER_IRQHandler
                0x0800173c                DMA2_Stream1_IRQHandler
                0x0800173c                FLASH_IRQHandler
                0x0800173c                DMA2_Stream4_IRQHandler
                0x0800173c                BusFault_Handler
                0x0800173c                USART1_IRQHandler
                0x0800173c                OTG_FS_IRQHandler
                0x0800173c                SPI3_IRQHandler
                0x0800173c                DMA1_Stream4_IRQHandler
                0x0800173c                I2C1_ER_IRQHandler
                0x0800173c                DMA2_Stream6_IRQHandler
                0x0800173c                DMA1_Stream3_IRQHandler
 *fill*         0x0800173e        0x2 
 .text.NMI_Handler
                0x08001740       0x10 Source/App/Main/stm32f4xx_it.o
                0x08001740                NMI_Handler
 .text.HardFault_Handler
                0x08001750        0x8 Source/App/Main/stm32f4xx_it.o
                0x08001750                HardFault_Handler
 .text.DebugMon_Handler
                0x08001758       0x10 Source/App/Main/stm32f4xx_it.o
                0x08001758                DebugMon_Handler
 .text.SysTick_Handler
                0x08001768        0xc Source/App/Main/stm32f4xx_it.o
                0x08001768                SysTick_Handler
 .text.EXTI15_10_IRQHandler
                0x08001774       0x10 Source/App/Main/stm32f4xx_it.o
                0x08001774                EXTI15_10_IRQHandler
 .text.SystemInit
                0x08001784       0x6c Source/App/Main/system_stm32f4xx.o
                0x08001784                SystemInit
 .text.Motion_Init
                0x080017f0       0x10 Source/App/Motion/motion.o
                0x080017f0                Motion_Init
 .text.Motion_Process
                0x08001800       0x10 Source/App/Motion/motion.o
                0x08001800                Motion_Process
 .text.Clock_Time
                0x08001810       0x10 Source/App/Time/clock.o
                0x08001810                Clock_Time
 .text.Timer_Set
                0x08001820       0x24 Source/App/Time/gp_timer.o
                0x08001820                Timer_Set
 .text.Timer_Restart
                0x08001844       0x1c Source/App/Time/gp_timer.o
                0x08001844                Timer_Restart
 .text.Timer_Expired
                0x08001860       0x30 Source/App/Time/gp_timer.o
                0x08001860                Timer_Expired
 .text.Timer_Time
                0x08001890       0x1c Source/App/Time/gp_timer.o
                0x08001890                Timer_Time
 .text.HTS221_Calibration
                0x080018ac      0x1fc Source/Drivers/BSP/Components/hts221/hts221.o
 .text.HTS221_Init
                0x08001aa8       0x8c Source/Drivers/BSP/Components/hts221/hts221.o
 .text.HTS221_ReadID
                0x08001b34       0x28 Source/Drivers/BSP/Components/hts221/hts221.o
 .text.HTS221_RebootCmd
                0x08001b5c       0x48 Source/Drivers/BSP/Components/hts221/hts221.o
 .text.HTS221_GetHumidity
                0x08001ba4      0x1b0 Source/Drivers/BSP/Components/hts221/hts221.o
 .text.HTS221_GetTemperature
                0x08001d54      0x178 Source/Drivers/BSP/Components/hts221/hts221.o
 .text.HTS221_Power_On
                0x08001ecc       0x48 Source/Drivers/BSP/Components/hts221/hts221.o
 .text.HTS221_Power_OFF
                0x08001f14       0x48 Source/Drivers/BSP/Components/hts221/hts221.o
 .text.LIS3MDL_Init
                0x08001f5c      0x110 Source/Drivers/BSP/Components/lis3mdl/lis3mdl.o
 .text.LIS3MDL_Read_M_ID
                0x0800206c       0x28 Source/Drivers/BSP/Components/lis3mdl/lis3mdl.o
 .text.LIS3MDL_M_GetAxesRaw
                0x08002094       0xa8 Source/Drivers/BSP/Components/lis3mdl/lis3mdl.o
 .text.LIS3MDL_M_GetAxes
                0x0800213c       0xf8 Source/Drivers/BSP/Components/lis3mdl/lis3mdl.o
 .text.LPS25H_Init
                0x08002234      0x128 Source/Drivers/BSP/Components/lps25h/lps25h.o
 .text.LPS25H_ReadID
                0x0800235c       0x30 Source/Drivers/BSP/Components/lps25h/lps25h.o
 .text.LPS25H_RebootCmd
                0x0800238c       0x50 Source/Drivers/BSP/Components/lps25h/lps25h.o
 .text.LPS25H_I2C_ReadRawPressure
                0x080023dc       0x7c Source/Drivers/BSP/Components/lps25h/lps25h.o
 .text.LPS25H_GetPressure
                0x08002458       0x48 Source/Drivers/BSP/Components/lps25h/lps25h.o
 .text.LPS25H_I2C_ReadRawTemperature
                0x080024a0       0x4c Source/Drivers/BSP/Components/lps25h/lps25h.o
 .text.LPS25H_GetTemperature
                0x080024ec       0x50 Source/Drivers/BSP/Components/lps25h/lps25h.o
 .text.LPS25H_PowerOn
                0x0800253c       0x50 Source/Drivers/BSP/Components/lps25h/lps25h.o
 .text.LPS25H_PowerOff
                0x0800258c       0x50 Source/Drivers/BSP/Components/lps25h/lps25h.o
 .text.LPS25H_SlaveAddrRemap
                0x080025dc       0x2c Source/Drivers/BSP/Components/lps25h/lps25h.o
 .text.LPS25HB_Init
                0x08002608      0x128 Source/Drivers/BSP/Components/lps25hb/lps25hb.o
 .text.LPS25HB_ReadID
                0x08002730       0x30 Source/Drivers/BSP/Components/lps25hb/lps25hb.o
 .text.LPS25HB_RebootCmd
                0x08002760       0x50 Source/Drivers/BSP/Components/lps25hb/lps25hb.o
 .text.LPS25HB_I2C_ReadRawPressure
                0x080027b0       0x7c Source/Drivers/BSP/Components/lps25hb/lps25hb.o
 .text.LPS25HB_GetPressure
                0x0800282c       0x48 Source/Drivers/BSP/Components/lps25hb/lps25hb.o
 .text.LPS25HB_I2C_ReadRawTemperature
                0x08002874       0x4c Source/Drivers/BSP/Components/lps25hb/lps25hb.o
 .text.LPS25HB_GetTemperature
                0x080028c0       0x50 Source/Drivers/BSP/Components/lps25hb/lps25hb.o
 .text.LPS25HB_PowerOn
                0x08002910       0x50 Source/Drivers/BSP/Components/lps25hb/lps25hb.o
 .text.LPS25HB_PowerOff
                0x08002960       0x50 Source/Drivers/BSP/Components/lps25hb/lps25hb.o
 .text.LPS25HB_SlaveAddrRemap
                0x080029b0       0x2c Source/Drivers/BSP/Components/lps25hb/lps25hb.o
 .text.LSM6DS0_Init
                0x080029dc       0xbc Source/Drivers/BSP/Components/lsm6ds0/lsm6ds0.o
 .text.LSM6DS0_Read_XG_ID
                0x08002a98       0x28 Source/Drivers/BSP/Components/lsm6ds0/lsm6ds0.o
 .text.LSM6DS0_X_GetAxesRaw
                0x08002ac0       0xa8 Source/Drivers/BSP/Components/lsm6ds0/lsm6ds0.o
 .text.LSM6DS0_X_GetAxes
                0x08002b68       0xa4 Source/Drivers/BSP/Components/lsm6ds0/lsm6ds0.o
 .text.LSM6DS0_G_GetAxesRaw
                0x08002c0c       0xa8 Source/Drivers/BSP/Components/lsm6ds0/lsm6ds0.o
 .text.LSM6DS0_X_Set_Axes_Status
                0x08002cb4       0xc4 Source/Drivers/BSP/Components/lsm6ds0/lsm6ds0.o
 .text.LSM6DS0_G_Set_Axes_Status
                0x08002d78       0xc4 Source/Drivers/BSP/Components/lsm6ds0/lsm6ds0.o
 .text.LSM6DS0_G_GetAxes
                0x08002e3c       0xa4 Source/Drivers/BSP/Components/lsm6ds0/lsm6ds0.o
 .text.LSM6DS0_X_Get_ODR
                0x08002ee0       0xb0 Source/Drivers/BSP/Components/lsm6ds0/lsm6ds0.o
 .text.LSM6DS0_X_Set_ODR
                0x08002f90       0xf4 Source/Drivers/BSP/Components/lsm6ds0/lsm6ds0.o
 .text.LSM6DS0_X_GetSensitivity
                0x08003084       0xdc Source/Drivers/BSP/Components/lsm6ds0/lsm6ds0.o
 .text.LSM6DS0_X_Get_FS
                0x08003160       0xd4 Source/Drivers/BSP/Components/lsm6ds0/lsm6ds0.o
 .text.LSM6DS0_X_Set_FS
                0x08003234       0xa8 Source/Drivers/BSP/Components/lsm6ds0/lsm6ds0.o
 .text.LSM6DS0_G_Get_ODR
                0x080032dc       0xb0 Source/Drivers/BSP/Components/lsm6ds0/lsm6ds0.o
 .text.LSM6DS0_G_Set_ODR
                0x0800338c       0xf8 Source/Drivers/BSP/Components/lsm6ds0/lsm6ds0.o
 .text.LSM6DS0_G_GetSensitivity
                0x08003484       0x6c Source/Drivers/BSP/Components/lsm6ds0/lsm6ds0.o
 .text.LSM6DS0_G_Get_FS
                0x080034f0       0x6c Source/Drivers/BSP/Components/lsm6ds0/lsm6ds0.o
 .text.LSM6DS0_G_Set_FS
                0x0800355c       0x98 Source/Drivers/BSP/Components/lsm6ds0/lsm6ds0.o
 .text.LSM6DS3_Init
                0x080035f4       0xcc Source/Drivers/BSP/Components/lsm6ds3/lsm6ds3.o
 .text.LSM6DS3_Read_XG_ID
                0x080036c0       0x28 Source/Drivers/BSP/Components/lsm6ds3/lsm6ds3.o
 .text.LSM6DS3_Common_Sensor_Enable
                0x080036e8       0x9c Source/Drivers/BSP/Components/lsm6ds3/lsm6ds3.o
 .text.LSM6DS3_X_GetAxesRaw
                0x08003784       0xa8 Source/Drivers/BSP/Components/lsm6ds3/lsm6ds3.o
 .text.LSM6DS3_X_GetAxes
                0x0800382c       0xa4 Source/Drivers/BSP/Components/lsm6ds3/lsm6ds3.o
 .text.LSM6DS3_G_GetAxesRaw
                0x080038d0       0xa8 Source/Drivers/BSP/Components/lsm6ds3/lsm6ds3.o
 .text.LSM6DS3_X_Set_Axes_Status
                0x08003978       0xc4 Source/Drivers/BSP/Components/lsm6ds3/lsm6ds3.o
 .text.LSM6DS3_G_Set_Axes_Status
                0x08003a3c       0xc4 Source/Drivers/BSP/Components/lsm6ds3/lsm6ds3.o
 .text.LSM6DS3_G_GetAxes
                0x08003b00       0xa4 Source/Drivers/BSP/Components/lsm6ds3/lsm6ds3.o
 .text.LSM6DS3_X_Get_ODR
                0x08003ba4       0xfc Source/Drivers/BSP/Components/lsm6ds3/lsm6ds3.o
 .text.LSM6DS3_X_Set_ODR
                0x08003ca0      0x158 Source/Drivers/BSP/Components/lsm6ds3/lsm6ds3.o
 .text.LSM6DS3_X_GetSensitivity
                0x08003df8       0xac Source/Drivers/BSP/Components/lsm6ds3/lsm6ds3.o
 .text.LSM6DS3_X_Get_FS
                0x08003ea4       0xa4 Source/Drivers/BSP/Components/lsm6ds3/lsm6ds3.o
 .text.LSM6DS3_X_Set_FS
                0x08003f48       0xa8 Source/Drivers/BSP/Components/lsm6ds3/lsm6ds3.o
 .text.LSM6DS3_G_Get_ODR
                0x08003ff0       0xdc Source/Drivers/BSP/Components/lsm6ds3/lsm6ds3.o
 .text.LSM6DS3_G_Set_ODR
                0x080040cc      0x124 Source/Drivers/BSP/Components/lsm6ds3/lsm6ds3.o
 .text.LSM6DS3_G_GetSensitivity
                0x080041f0       0xe0 Source/Drivers/BSP/Components/lsm6ds3/lsm6ds3.o
 .text.LSM6DS3_G_Get_FS
                0x080042d0       0xe0 Source/Drivers/BSP/Components/lsm6ds3/lsm6ds3.o
 .text.LSM6DS3_G_Set_FS
                0x080043b0      0x150 Source/Drivers/BSP/Components/lsm6ds3/lsm6ds3.o
 .text.LSM6DS3_Enable_Free_Fall_Detection
                0x08004500      0x15c Source/Drivers/BSP/Components/lsm6ds3/lsm6ds3.o
 .text.LSM6DS3_Disable_Free_Fall_Detection
                0x0800465c       0x98 Source/Drivers/BSP/Components/lsm6ds3/lsm6ds3.o
 .text.LSM6DS3_Get_Status_Free_Fall_Detection
                0x080046f4       0x50 Source/Drivers/BSP/Components/lsm6ds3/lsm6ds3.o
 .text.BSP_PB_Init
                0x08004744       0xb0 Source/Drivers/BSP/STM32F4xx-Nucleo/stm32f4xx_nucleo.o
                0x08004744                BSP_PB_Init
 .text.BSP_PB_GetState
                0x080047f4       0x2c Source/Drivers/BSP/STM32F4xx-Nucleo/stm32f4xx_nucleo.o
                0x080047f4                BSP_PB_GetState
 .text.LSM6DS0_IO_Init
                0x08004820       0x10 Source/Drivers/BSP/X_NUCLEO_IKS01A1/x_nucleo_iks01a1.o
                0x08004820                LSM6DS0_IO_Init
 .text.LSM6DS0_IO_ITConfig
                0x08004830       0x10 Source/Drivers/BSP/X_NUCLEO_IKS01A1/x_nucleo_iks01a1.o
                0x08004830                LSM6DS0_IO_ITConfig
 .text.LSM6DS3_IO_Init
                0x08004840       0x10 Source/Drivers/BSP/X_NUCLEO_IKS01A1/x_nucleo_iks01a1.o
                0x08004840                LSM6DS3_IO_Init
 .text.LSM6DS3_IO_ITConfig
                0x08004850       0xa8 Source/Drivers/BSP/X_NUCLEO_IKS01A1/x_nucleo_iks01a1.o
                0x08004850                LSM6DS3_IO_ITConfig
 .text.LSM6DS0_IO_Write
                0x080048f8       0x30 Source/Drivers/BSP/X_NUCLEO_IKS01A1/x_nucleo_iks01a1.o
                0x080048f8                LSM6DS0_IO_Write
 .text.LSM6DS3_IO_Write
                0x08004928       0x30 Source/Drivers/BSP/X_NUCLEO_IKS01A1/x_nucleo_iks01a1.o
                0x08004928                LSM6DS3_IO_Write
 .text.LSM6DS0_IO_Read
                0x08004958       0x30 Source/Drivers/BSP/X_NUCLEO_IKS01A1/x_nucleo_iks01a1.o
                0x08004958                LSM6DS0_IO_Read
 .text.LSM6DS3_IO_Read
                0x08004988       0x30 Source/Drivers/BSP/X_NUCLEO_IKS01A1/x_nucleo_iks01a1.o
                0x08004988                LSM6DS3_IO_Read
 .text.LIS3MDL_IO_Init
                0x080049b8       0x10 Source/Drivers/BSP/X_NUCLEO_IKS01A1/x_nucleo_iks01a1.o
                0x080049b8                LIS3MDL_IO_Init
 .text.LIS3MDL_IO_ITConfig
                0x080049c8       0x10 Source/Drivers/BSP/X_NUCLEO_IKS01A1/x_nucleo_iks01a1.o
                0x080049c8                LIS3MDL_IO_ITConfig
 .text.LIS3MDL_IO_Write
                0x080049d8       0x30 Source/Drivers/BSP/X_NUCLEO_IKS01A1/x_nucleo_iks01a1.o
                0x080049d8                LIS3MDL_IO_Write
 .text.LIS3MDL_IO_Read
                0x08004a08       0x30 Source/Drivers/BSP/X_NUCLEO_IKS01A1/x_nucleo_iks01a1.o
                0x08004a08                LIS3MDL_IO_Read
 .text.LPS25H_IO_Init
                0x08004a38       0x10 Source/Drivers/BSP/X_NUCLEO_IKS01A1/x_nucleo_iks01a1.o
                0x08004a38                LPS25H_IO_Init
 .text.LPS25H_IO_ITConfig
                0x08004a48       0x10 Source/Drivers/BSP/X_NUCLEO_IKS01A1/x_nucleo_iks01a1.o
                0x08004a48                LPS25H_IO_ITConfig
 .text.LPS25HB_IO_Init
                0x08004a58       0x10 Source/Drivers/BSP/X_NUCLEO_IKS01A1/x_nucleo_iks01a1.o
                0x08004a58                LPS25HB_IO_Init
 .text.LPS25HB_IO_ITConfig
                0x08004a68       0x10 Source/Drivers/BSP/X_NUCLEO_IKS01A1/x_nucleo_iks01a1.o
                0x08004a68                LPS25HB_IO_ITConfig
 .text.LPS25H_IO_Write
                0x08004a78       0x30 Source/Drivers/BSP/X_NUCLEO_IKS01A1/x_nucleo_iks01a1.o
                0x08004a78                LPS25H_IO_Write
 .text.LPS25HB_IO_Write
                0x08004aa8       0x30 Source/Drivers/BSP/X_NUCLEO_IKS01A1/x_nucleo_iks01a1.o
                0x08004aa8                LPS25HB_IO_Write
 .text.LPS25H_IO_Read
                0x08004ad8       0x30 Source/Drivers/BSP/X_NUCLEO_IKS01A1/x_nucleo_iks01a1.o
                0x08004ad8                LPS25H_IO_Read
 .text.LPS25HB_IO_Read
                0x08004b08       0x30 Source/Drivers/BSP/X_NUCLEO_IKS01A1/x_nucleo_iks01a1.o
                0x08004b08                LPS25HB_IO_Read
 .text.HTS221_IO_Init
                0x08004b38       0x10 Source/Drivers/BSP/X_NUCLEO_IKS01A1/x_nucleo_iks01a1.o
                0x08004b38                HTS221_IO_Init
 .text.HTS221_IO_ITConfig
                0x08004b48       0x10 Source/Drivers/BSP/X_NUCLEO_IKS01A1/x_nucleo_iks01a1.o
                0x08004b48                HTS221_IO_ITConfig
 .text.HTS221_IO_Write
                0x08004b58       0x30 Source/Drivers/BSP/X_NUCLEO_IKS01A1/x_nucleo_iks01a1.o
                0x08004b58                HTS221_IO_Write
 .text.HTS221_IO_Read
                0x08004b88       0x30 Source/Drivers/BSP/X_NUCLEO_IKS01A1/x_nucleo_iks01a1.o
                0x08004b88                HTS221_IO_Read
 .text.IMU_6AXES_IO_Init
                0x08004bb8       0x18 Source/Drivers/BSP/X_NUCLEO_IKS01A1/x_nucleo_iks01a1.o
 .text.IMU_6AXES_IO_Write
                0x08004bd0       0x40 Source/Drivers/BSP/X_NUCLEO_IKS01A1/x_nucleo_iks01a1.o
 .text.IMU_6AXES_IO_Read
                0x08004c10       0x40 Source/Drivers/BSP/X_NUCLEO_IKS01A1/x_nucleo_iks01a1.o
 .text.MAGNETO_IO_Init
                0x08004c50       0x18 Source/Drivers/BSP/X_NUCLEO_IKS01A1/x_nucleo_iks01a1.o
 .text.MAGNETO_IO_Write
                0x08004c68       0x40 Source/Drivers/BSP/X_NUCLEO_IKS01A1/x_nucleo_iks01a1.o
 .text.MAGNETO_IO_Read
                0x08004ca8       0x40 Source/Drivers/BSP/X_NUCLEO_IKS01A1/x_nucleo_iks01a1.o
 .text.PRESSURE_IO_Init
                0x08004ce8       0x18 Source/Drivers/BSP/X_NUCLEO_IKS01A1/x_nucleo_iks01a1.o
 .text.PRESSURE_IO_Write
                0x08004d00       0x40 Source/Drivers/BSP/X_NUCLEO_IKS01A1/x_nucleo_iks01a1.o
 .text.PRESSURE_IO_Read
                0x08004d40       0x40 Source/Drivers/BSP/X_NUCLEO_IKS01A1/x_nucleo_iks01a1.o
 .text.HUM_TEMP_IO_Init
                0x08004d80       0x18 Source/Drivers/BSP/X_NUCLEO_IKS01A1/x_nucleo_iks01a1.o
 .text.HUM_TEMP_IO_Write
                0x08004d98       0x40 Source/Drivers/BSP/X_NUCLEO_IKS01A1/x_nucleo_iks01a1.o
 .text.HUM_TEMP_IO_Read
                0x08004dd8       0x40 Source/Drivers/BSP/X_NUCLEO_IKS01A1/x_nucleo_iks01a1.o
 .text.I2C_EXPBD_Init
                0x08004e18       0x5c Source/Drivers/BSP/X_NUCLEO_IKS01A1/x_nucleo_iks01a1.o
 .text.I2C_EXPBD_WriteData
                0x08004e74       0x60 Source/Drivers/BSP/X_NUCLEO_IKS01A1/x_nucleo_iks01a1.o
 .text.I2C_EXPBD_ReadData
                0x08004ed4       0x60 Source/Drivers/BSP/X_NUCLEO_IKS01A1/x_nucleo_iks01a1.o
 .text.I2C_EXPBD_Error
                0x08004f34       0x28 Source/Drivers/BSP/X_NUCLEO_IKS01A1/x_nucleo_iks01a1.o
 .text.I2C_EXPBD_MspInit
                0x08004f5c       0xa0 Source/Drivers/BSP/X_NUCLEO_IKS01A1/x_nucleo_iks01a1.o
 .text.BSP_HUM_TEMP_Init
                0x08004ffc       0xac Source/Drivers/BSP/X_NUCLEO_IKS01A1/x_nucleo_iks01a1_hum_temp.o
                0x08004ffc                BSP_HUM_TEMP_Init
 .text.BSP_HUM_TEMP_isInitialized
                0x080050a8       0x18 Source/Drivers/BSP/X_NUCLEO_IKS01A1/x_nucleo_iks01a1_hum_temp.o
                0x080050a8                BSP_HUM_TEMP_isInitialized
 .text.BSP_HUM_TEMP_GetHumidity
                0x080050c0       0x30 Source/Drivers/BSP/X_NUCLEO_IKS01A1/x_nucleo_iks01a1_hum_temp.o
                0x080050c0                BSP_HUM_TEMP_GetHumidity
 .text.BSP_HUM_TEMP_GetTemperature
                0x080050f0       0x30 Source/Drivers/BSP/X_NUCLEO_IKS01A1/x_nucleo_iks01a1_hum_temp.o
                0x080050f0                BSP_HUM_TEMP_GetTemperature
 .text.BSP_IMU_6AXES_Init
                0x08005120      0x1f0 Source/Drivers/BSP/X_NUCLEO_IKS01A1/x_nucleo_iks01a1_imu_6axes.o
                0x08005120                BSP_IMU_6AXES_Init
 .text.BSP_IMU_6AXES_isInitialized
                0x08005310       0x18 Source/Drivers/BSP/X_NUCLEO_IKS01A1/x_nucleo_iks01a1_imu_6axes.o
                0x08005310                BSP_IMU_6AXES_isInitialized
 .text.BSP_IMU_6AXES_X_GetAxes
                0x08005328       0x30 Source/Drivers/BSP/X_NUCLEO_IKS01A1/x_nucleo_iks01a1_imu_6axes.o
                0x08005328                BSP_IMU_6AXES_X_GetAxes
 .text.BSP_IMU_6AXES_G_GetAxes
                0x08005358       0x30 Source/Drivers/BSP/X_NUCLEO_IKS01A1/x_nucleo_iks01a1_imu_6axes.o
                0x08005358                BSP_IMU_6AXES_G_GetAxes
 .text.BSP_MAGNETO_Init
                0x08005388       0xb8 Source/Drivers/BSP/X_NUCLEO_IKS01A1/x_nucleo_iks01a1_magneto.o
                0x08005388                BSP_MAGNETO_Init
 .text.BSP_MAGNETO_isInitialized
                0x08005440       0x18 Source/Drivers/BSP/X_NUCLEO_IKS01A1/x_nucleo_iks01a1_magneto.o
                0x08005440                BSP_MAGNETO_isInitialized
 .text.BSP_MAGNETO_M_GetAxes
                0x08005458       0x30 Source/Drivers/BSP/X_NUCLEO_IKS01A1/x_nucleo_iks01a1_magneto.o
                0x08005458                BSP_MAGNETO_M_GetAxes
 .text.BSP_PRESSURE_Init
                0x08005488      0x1c0 Source/Drivers/BSP/X_NUCLEO_IKS01A1/x_nucleo_iks01a1_pressure.o
                0x08005488                BSP_PRESSURE_Init
 .text.BSP_PRESSURE_isInitialized
                0x08005648       0x18 Source/Drivers/BSP/X_NUCLEO_IKS01A1/x_nucleo_iks01a1_pressure.o
                0x08005648                BSP_PRESSURE_isInitialized
 .text.BSP_PRESSURE_GetPressure
                0x08005660       0x30 Source/Drivers/BSP/X_NUCLEO_IKS01A1/x_nucleo_iks01a1_pressure.o
                0x08005660                BSP_PRESSURE_GetPressure
 .text.HAL_Init
                0x08005690       0x44 Source/Drivers/STM32F4xx_HAL_Driver/Src/stm32f4xx_hal.o
                0x08005690                HAL_Init
 .text.HAL_MspInit
                0x080056d4       0x10 Source/Drivers/STM32F4xx_HAL_Driver/Src/stm32f4xx_hal.o
                0x080056d4                HAL_MspInit
 .text.HAL_InitTick
                0x080056e4       0x38 Source/Drivers/STM32F4xx_HAL_Driver/Src/stm32f4xx_hal.o
                0x080056e4                HAL_InitTick
 .text.HAL_IncTick
                0x0800571c       0x1c Source/Drivers/STM32F4xx_HAL_Driver/Src/stm32f4xx_hal.o
                0x0800571c                HAL_IncTick
 .text.HAL_GetTick
                0x08005738       0x18 Source/Drivers/STM32F4xx_HAL_Driver/Src/stm32f4xx_hal.o
                0x08005738                HAL_GetTick
 .text.HAL_Delay
                0x08005750       0x2c Source/Drivers/STM32F4xx_HAL_Driver/Src/stm32f4xx_hal.o
                0x08005750                HAL_Delay
 .text.NVIC_SetPriorityGrouping
                0x0800577c       0x48 Source/Drivers/STM32F4xx_HAL_Driver/Src/stm32f4xx_hal_cortex.o
 .text.NVIC_GetPriorityGrouping
                0x080057c4       0x1c Source/Drivers/STM32F4xx_HAL_Driver/Src/stm32f4xx_hal_cortex.o
 .text.NVIC_EnableIRQ
                0x080057e0       0x34 Source/Drivers/STM32F4xx_HAL_Driver/Src/stm32f4xx_hal_cortex.o
 .text.NVIC_SetPriority
                0x08005814       0x54 Source/Drivers/STM32F4xx_HAL_Driver/Src/stm32f4xx_hal_cortex.o
 .text.NVIC_EncodePriority
                0x08005868       0x68 Source/Drivers/STM32F4xx_HAL_Driver/Src/stm32f4xx_hal_cortex.o
 .text.SysTick_Config
                0x080058d0       0x44 Source/Drivers/STM32F4xx_HAL_Driver/Src/stm32f4xx_hal_cortex.o
 .text.HAL_NVIC_SetPriorityGrouping
                0x08005914       0x18 Source/Drivers/STM32F4xx_HAL_Driver/Src/stm32f4xx_hal_cortex.o
                0x08005914                HAL_NVIC_SetPriorityGrouping
 .text.HAL_NVIC_SetPriority
                0x0800592c       0x38 Source/Drivers/STM32F4xx_HAL_Driver/Src/stm32f4xx_hal_cortex.o
                0x0800592c                HAL_NVIC_SetPriority
 .text.HAL_NVIC_EnableIRQ
                0x08005964       0x1c Source/Drivers/STM32F4xx_HAL_Driver/Src/stm32f4xx_hal_cortex.o
                0x08005964                HAL_NVIC_EnableIRQ
 .text.HAL_SYSTICK_Config
                0x08005980       0x18 Source/Drivers/STM32F4xx_HAL_Driver/Src/stm32f4xx_hal_cortex.o
                0x08005980                HAL_SYSTICK_Config
 .text.HAL_GPIO_Init
                0x08005998      0x300 Source/Drivers/STM32F4xx_HAL_Driver/Src/stm32f4xx_hal_gpio.o
                0x08005998                HAL_GPIO_Init
 .text.HAL_GPIO_ReadPin
                0x08005c98       0x30 Source/Drivers/STM32F4xx_HAL_Driver/Src/stm32f4xx_hal_gpio.o
                0x08005c98                HAL_GPIO_ReadPin
 .text.HAL_GPIO_EXTI_IRQHandler
                0x08005cc8       0x30 Source/Drivers/STM32F4xx_HAL_Driver/Src/stm32f4xx_hal_gpio.o
                0x08005cc8                HAL_GPIO_EXTI_IRQHandler
 .text.HAL_GPIO_EXTI_Callback
                0x08005cf8       0x18 Source/Drivers/STM32F4xx_HAL_Driver/Src/stm32f4xx_hal_gpio.o
                0x08005cf8                HAL_GPIO_EXTI_Callback
 .text.HAL_I2C_Init
                0x08005d10      0x1b4 Source/Drivers/STM32F4xx_HAL_Driver/Src/stm32f4xx_hal_i2c.o
                0x08005d10                HAL_I2C_Init
 .text.HAL_I2C_DeInit
                0x08005ec4       0x50 Source/Drivers/STM32F4xx_HAL_Driver/Src/stm32f4xx_hal_i2c.o
                0x08005ec4                HAL_I2C_DeInit
 .text.HAL_I2C_MspInit
                0x08005f14       0x14 Source/Drivers/STM32F4xx_HAL_Driver/Src/stm32f4xx_hal_i2c.o
                0x08005f14                HAL_I2C_MspInit
 .text.HAL_I2C_MspDeInit
                0x08005f28       0x14 Source/Drivers/STM32F4xx_HAL_Driver/Src/stm32f4xx_hal_i2c.o
                0x08005f28                HAL_I2C_MspDeInit
 .text.HAL_I2C_Mem_Write
                0x08005f3c      0x160 Source/Drivers/STM32F4xx_HAL_Driver/Src/stm32f4xx_hal_i2c.o
                0x08005f3c                HAL_I2C_Mem_Write
 .text.HAL_I2C_Mem_Read
                0x0800609c      0x2fc Source/Drivers/STM32F4xx_HAL_Driver/Src/stm32f4xx_hal_i2c.o
                0x0800609c                HAL_I2C_Mem_Read
 .text.HAL_I2C_GetState
                0x08006398       0x1c Source/Drivers/STM32F4xx_HAL_Driver/Src/stm32f4xx_hal_i2c.o
                0x08006398                HAL_I2C_GetState
 .text.I2C_RequestMemoryWrite
                0x080063b4       0xec Source/Drivers/STM32F4xx_HAL_Driver/Src/stm32f4xx_hal_i2c.o
 .text.I2C_RequestMemoryRead
                0x080064a0      0x168 Source/Drivers/STM32F4xx_HAL_Driver/Src/stm32f4xx_hal_i2c.o
 .text.I2C_WaitOnFlagUntilTimeout
                0x08006608      0x114 Source/Drivers/STM32F4xx_HAL_Driver/Src/stm32f4xx_hal_i2c.o
 .text.I2C_WaitOnMasterAddressFlagUntilTimeout
                0x0800671c       0xd8 Source/Drivers/STM32F4xx_HAL_Driver/Src/stm32f4xx_hal_i2c.o
 .text.HAL_RCC_OscConfig
                0x080067f4      0x4b8 Source/Drivers/STM32F4xx_HAL_Driver/Src/stm32f4xx_hal_rcc.o
                0x080067f4                HAL_RCC_OscConfig
 .text.HAL_RCC_ClockConfig
                0x08006cac      0x314 Source/Drivers/STM32F4xx_HAL_Driver/Src/stm32f4xx_hal_rcc.o
                0x08006cac                HAL_RCC_ClockConfig
 .text.HAL_RCC_GetSysClockFreq
                0x08006fc0      0x118 Source/Drivers/STM32F4xx_HAL_Driver/Src/stm32f4xx_hal_rcc.o
                0x08006fc0                HAL_RCC_GetSysClockFreq
 .text.HAL_RCC_GetHCLKFreq
                0x080070d8       0x58 Source/Drivers/STM32F4xx_HAL_Driver/Src/stm32f4xx_hal_rcc.o
                0x080070d8                HAL_RCC_GetHCLKFreq
 .text.HAL_RCC_GetPCLK1Freq
                0x08007130       0x4c Source/Drivers/STM32F4xx_HAL_Driver/Src/stm32f4xx_hal_rcc.o
                0x08007130                HAL_RCC_GetPCLK1Freq
 .text._sbrk    0x0800717c       0x70 Source/Drivers/Utils/Trace/syscalls.o
                0x0800717c                _sbrk
 .text.trace_printf
                0x080071ec       0x44 Source/Drivers/Utils/Trace/trace.o
                0x080071ec                trace_printf
 .text.trace_write
                0x08007230       0x1c Source/Drivers/Utils/Trace/trace_impl.o
                0x08007230                trace_write
 .text._trace_write_semihosting_debug
                0x0800724c       0xb8 Source/Drivers/Utils/Trace/trace_impl.o
 .text.trunc    0x08007304       0x78 /home/ece/Ac6/SystemWorkbench/plugins/fr.ac6.mcu.externaltools.arm-none.linux64_1.13.1.201707031232/tools/compiler/bin/../lib/gcc/arm-none-eabi/5.4.1/../../../../arm-none-eabi/lib/armv7e-m/fpu/libm.a(lib_a-s_trunc.o)
                0x08007304                trunc
 *fill*         0x0800737c        0x4 
 .text.pow      0x08007380      0x338 /home/ece/Ac6/SystemWorkbench/plugins/fr.ac6.mcu.externaltools.arm-none.linux64_1.13.1.201707031232/tools/compiler/bin/../lib/gcc/arm-none-eabi/5.4.1/../../../../arm-none-eabi/lib/armv7e-m/fpu/libm.a(lib_a-w_pow.o)
                0x08007380                pow
 .text.__ieee754_pow
                0x080076b8      0xb10 /home/ece/Ac6/SystemWorkbench/plugins/fr.ac6.mcu.externaltools.arm-none.linux64_1.13.1.201707031232/tools/compiler/bin/../lib/gcc/arm-none-eabi/5.4.1/../../../../arm-none-eabi/lib/armv7e-m/fpu/libm.a(lib_a-e_pow.o)
                0x080076b8                __ieee754_pow
 .text.__ieee754_sqrt
                0x080081c8      0x1a0 /home/ece/Ac6/SystemWorkbench/plugins/fr.ac6.mcu.externaltools.arm-none.linux64_1.13.1.201707031232/tools/compiler/bin/../lib/gcc/arm-none-eabi/5.4.1/../../../../arm-none-eabi/lib/armv7e-m/fpu/libm.a(lib_a-e_sqrt.o)
                0x080081c8                __ieee754_sqrt
 .text.fabs     0x08008368       0x10 /home/ece/Ac6/SystemWorkbench/plugins/fr.ac6.mcu.externaltools.arm-none.linux64_1.13.1.201707031232/tools/compiler/bin/../lib/gcc/arm-none-eabi/5.4.1/../../../../arm-none-eabi/lib/armv7e-m/fpu/libm.a(lib_a-s_fabs.o)
                0x08008368                fabs
 .text.finite   0x08008378       0x10 /home/ece/Ac6/SystemWorkbench/plugins/fr.ac6.mcu.externaltools.arm-none.linux64_1.13.1.201707031232/tools/compiler/bin/../lib/gcc/arm-none-eabi/5.4.1/../../../../arm-none-eabi/lib/armv7e-m/fpu/libm.a(lib_a-s_finite.o)
                0x08008378                finite
 .text.matherr  0x08008388        0x4 /home/ece/Ac6/SystemWorkbench/plugins/fr.ac6.mcu.externaltools.arm-none.linux64_1.13.1.201707031232/tools/compiler/bin/../lib/gcc/arm-none-eabi/5.4.1/../../../../arm-none-eabi/lib/armv7e-m/fpu/libm.a(lib_a-s_matherr.o)
                0x08008388                matherr
 *fill*         0x0800838c        0x4 
 .text.nan      0x08008390       0x10 /home/ece/Ac6/SystemWorkbench/plugins/fr.ac6.mcu.externaltools.arm-none.linux64_1.13.1.201707031232/tools/compiler/bin/../lib/gcc/arm-none-eabi/5.4.1/../../../../arm-none-eabi/lib/armv7e-m/fpu/libm.a(lib_a-s_nan.o)
                0x08008390                nan
 .text.rint     0x080083a0      0x128 /home/ece/Ac6/SystemWorkbench/plugins/fr.ac6.mcu.externaltools.arm-none.linux64_1.13.1.201707031232/tools/compiler/bin/../lib/gcc/arm-none-eabi/5.4.1/../../../../arm-none-eabi/lib/armv7e-m/fpu/libm.a(lib_a-s_rint.o)
                0x080083a0                rint
 .text.scalbn   0x080084c8      0x10c /home/ece/Ac6/SystemWorkbench/plugins/fr.ac6.mcu.externaltools.arm-none.linux64_1.13.1.201707031232/tools/compiler/bin/../lib/gcc/arm-none-eabi/5.4.1/../../../../arm-none-eabi/lib/armv7e-m/fpu/libm.a(lib_a-s_scalbn.o)
                0x080084c8                scalbn
 .text.copysign
                0x080085d4       0x1c /home/ece/Ac6/SystemWorkbench/plugins/fr.ac6.mcu.externaltools.arm-none.linux64_1.13.1.201707031232/tools/compiler/bin/../lib/gcc/arm-none-eabi/5.4.1/../../../../arm-none-eabi/lib/armv7e-m/fpu/libm.a(lib_a-s_copysign.o)
                0x080085d4                copysign
 .text.__errno  0x080085f0        0xc /home/ece/Ac6/SystemWorkbench/plugins/fr.ac6.mcu.externaltools.arm-none.linux64_1.13.1.201707031232/tools/compiler/bin/../lib/gcc/arm-none-eabi/5.4.1/../../../../arm-none-eabi/lib/armv7e-m/fpu/libc.a(lib_a-errno.o)
                0x080085f0                __errno
 .text.__libc_init_array
                0x080085fc       0x50 /home/ece/Ac6/SystemWorkbench/plugins/fr.ac6.mcu.externaltools.arm-none.linux64_1.13.1.201707031232/tools/compiler/bin/../lib/gcc/arm-none-eabi/5.4.1/../../../../arm-none-eabi/lib/armv7e-m/fpu/libc.a(lib_a-init.o)
                0x080085fc                __libc_init_array
 .text.memset   0x0800864c       0x9c /home/ece/Ac6/SystemWorkbench/plugins/fr.ac6.mcu.externaltools.arm-none.linux64_1.13.1.201707031232/tools/compiler/bin/../lib/gcc/arm-none-eabi/5.4.1/../../../../arm-none-eabi/lib/armv7e-m/fpu/libc.a(lib_a-memset.o)
                0x0800864c                memset
 .text._vsnprintf_r
                0x080086e8       0x74 /home/ece/Ac6/SystemWorkbench/plugins/fr.ac6.mcu.externaltools.arm-none.linux64_1.13.1.201707031232/tools/compiler/bin/../lib/gcc/arm-none-eabi/5.4.1/../../../../arm-none-eabi/lib/armv7e-m/fpu/libc.a(lib_a-vsnprintf.o)
                0x080086e8                _vsnprintf_r
 .text.vsnprintf
                0x0800875c       0x20 /home/ece/Ac6/SystemWorkbench/plugins/fr.ac6.mcu.externaltools.arm-none.linux64_1.13.1.201707031232/tools/compiler/bin/../lib/gcc/arm-none-eabi/5.4.1/../../../../arm-none-eabi/lib/armv7e-m/fpu/libc.a(lib_a-vsnprintf.o)
                0x0800875c                vsnprintf
 .text.startup.register_fini
                0x0800877c       0x14 /home/ece/Ac6/SystemWorkbench/plugins/fr.ac6.mcu.externaltools.arm-none.linux64_1.13.1.201707031232/tools/compiler/bin/../lib/gcc/arm-none-eabi/5.4.1/../../../../arm-none-eabi/lib/armv7e-m/fpu/libc.a(lib_a-__call_atexit.o)
 .text.atexit   0x08008790        0xc /home/ece/Ac6/SystemWorkbench/plugins/fr.ac6.mcu.externaltools.arm-none.linux64_1.13.1.201707031232/tools/compiler/bin/../lib/gcc/arm-none-eabi/5.4.1/../../../../arm-none-eabi/lib/armv7e-m/fpu/libc.a(lib_a-atexit.o)
                0x08008790                atexit
 .text.__libc_fini_array
                0x0800879c       0x28 /home/ece/Ac6/SystemWorkbench/plugins/fr.ac6.mcu.externaltools.arm-none.linux64_1.13.1.201707031232/tools/compiler/bin/../lib/gcc/arm-none-eabi/5.4.1/../../../../arm-none-eabi/lib/armv7e-m/fpu/libc.a(lib_a-fini.o)
                0x0800879c                __libc_fini_array
 .text._malloc_trim_r
                0x080087c4       0x9c /home/ece/Ac6/SystemWorkbench/plugins/fr.ac6.mcu.externaltools.arm-none.linux64_1.13.1.201707031232/tools/compiler/bin/../lib/gcc/arm-none-eabi/5.4.1/../../../../arm-none-eabi/lib/armv7e-m/fpu/libc.a(lib_a-freer.o)
                0x080087c4                _malloc_trim_r
 .text._free_r  0x08008860      0x1d0 /home/ece/Ac6/SystemWorkbench/plugins/fr.ac6.mcu.externaltools.arm-none.linux64_1.13.1.201707031232/tools/compiler/bin/../lib/gcc/arm-none-eabi/5.4.1/../../../../arm-none-eabi/lib/armv7e-m/fpu/libc.a(lib_a-freer.o)
                0x08008860                _free_r
 .text._malloc_r
                0x08008a30      0x570 /home/ece/Ac6/SystemWorkbench/plugins/fr.ac6.mcu.externaltools.arm-none.linux64_1.13.1.201707031232/tools/compiler/bin/../lib/gcc/arm-none-eabi/5.4.1/../../../../arm-none-eabi/lib/armv7e-m/fpu/libc.a(lib_a-mallocr.o)
                0x08008a30                _malloc_r
 .text.__malloc_lock
                0x08008fa0        0x4 /home/ece/Ac6/SystemWorkbench/plugins/fr.ac6.mcu.externaltools.arm-none.linux64_1.13.1.201707031232/tools/compiler/bin/../lib/gcc/arm-none-eabi/5.4.1/../../../../arm-none-eabi/lib/armv7e-m/fpu/libc.a(lib_a-mlock.o)
                0x08008fa0                __malloc_lock
 .text.__malloc_unlock
                0x08008fa4        0x4 /home/ece/Ac6/SystemWorkbench/plugins/fr.ac6.mcu.externaltools.arm-none.linux64_1.13.1.201707031232/tools/compiler/bin/../lib/gcc/arm-none-eabi/5.4.1/../../../../arm-none-eabi/lib/armv7e-m/fpu/libc.a(lib_a-mlock.o)
                0x08008fa4                __malloc_unlock
 .text._sbrk_r  0x08008fa8       0x24 /home/ece/Ac6/SystemWorkbench/plugins/fr.ac6.mcu.externaltools.arm-none.linux64_1.13.1.201707031232/tools/compiler/bin/../lib/gcc/arm-none-eabi/5.4.1/../../../../arm-none-eabi/lib/armv7e-m/fpu/libc.a(lib_a-sbrkr.o)
                0x08008fa8                _sbrk_r
 *fill*         0x08008fcc        0x4 
 .text._svfprintf_r
                0x08008fd0     0x16e4 /home/ece/Ac6/SystemWorkbench/plugins/fr.ac6.mcu.externaltools.arm-none.linux64_1.13.1.201707031232/tools/compiler/bin/../lib/gcc/arm-none-eabi/5.4.1/../../../../arm-none-eabi/lib/armv7e-m/fpu/libc.a(lib_a-svfprintf.o)
                0x08008fd0                _svfprintf_r
 .text.__register_exitproc
                0x0800a6b4       0xa4 /home/ece/Ac6/SystemWorkbench/plugins/fr.ac6.mcu.externaltools.arm-none.linux64_1.13.1.201707031232/tools/compiler/bin/../lib/gcc/arm-none-eabi/5.4.1/../../../../arm-none-eabi/lib/armv7e-m/fpu/libc.a(lib_a-__atexit.o)
                0x0800a6b4                __register_exitproc
 .text.quorem   0x0800a758      0x128 /home/ece/Ac6/SystemWorkbench/plugins/fr.ac6.mcu.externaltools.arm-none.linux64_1.13.1.201707031232/tools/compiler/bin/../lib/gcc/arm-none-eabi/5.4.1/../../../../arm-none-eabi/lib/armv7e-m/fpu/libc.a(lib_a-dtoa.o)
 .text._dtoa_r  0x0800a880      0xe34 /home/ece/Ac6/SystemWorkbench/plugins/fr.ac6.mcu.externaltools.arm-none.linux64_1.13.1.201707031232/tools/compiler/bin/../lib/gcc/arm-none-eabi/5.4.1/../../../../arm-none-eabi/lib/armv7e-m/fpu/libc.a(lib_a-dtoa.o)
                0x0800a880                _dtoa_r
 .text._localeconv_r
                0x0800b6b4       0x1c /home/ece/Ac6/SystemWorkbench/plugins/fr.ac6.mcu.externaltools.arm-none.linux64_1.13.1.201707031232/tools/compiler/bin/../lib/gcc/arm-none-eabi/5.4.1/../../../../arm-none-eabi/lib/armv7e-m/fpu/libc.a(lib_a-localeconv.o)
                0x0800b6b4                _localeconv_r
 .text._Balloc  0x0800b6d0       0x4c /home/ece/Ac6/SystemWorkbench/plugins/fr.ac6.mcu.externaltools.arm-none.linux64_1.13.1.201707031232/tools/compiler/bin/../lib/gcc/arm-none-eabi/5.4.1/../../../../arm-none-eabi/lib/armv7e-m/fpu/libc.a(lib_a-mprec.o)
                0x0800b6d0                _Balloc
 .text._Bfree   0x0800b71c       0x14 /home/ece/Ac6/SystemWorkbench/plugins/fr.ac6.mcu.externaltools.arm-none.linux64_1.13.1.201707031232/tools/compiler/bin/../lib/gcc/arm-none-eabi/5.4.1/../../../../arm-none-eabi/lib/armv7e-m/fpu/libc.a(lib_a-mprec.o)
                0x0800b71c                _Bfree
 .text.__multadd
                0x0800b730       0x80 /home/ece/Ac6/SystemWorkbench/plugins/fr.ac6.mcu.externaltools.arm-none.linux64_1.13.1.201707031232/tools/compiler/bin/../lib/gcc/arm-none-eabi/5.4.1/../../../../arm-none-eabi/lib/armv7e-m/fpu/libc.a(lib_a-mprec.o)
                0x0800b730                __multadd
 .text.__hi0bits
                0x0800b7b0       0x40 /home/ece/Ac6/SystemWorkbench/plugins/fr.ac6.mcu.externaltools.arm-none.linux64_1.13.1.201707031232/tools/compiler/bin/../lib/gcc/arm-none-eabi/5.4.1/../../../../arm-none-eabi/lib/armv7e-m/fpu/libc.a(lib_a-mprec.o)
                0x0800b7b0                __hi0bits
 .text.__lo0bits
                0x0800b7f0       0x5c /home/ece/Ac6/SystemWorkbench/plugins/fr.ac6.mcu.externaltools.arm-none.linux64_1.13.1.201707031232/tools/compiler/bin/../lib/gcc/arm-none-eabi/5.4.1/../../../../arm-none-eabi/lib/armv7e-m/fpu/libc.a(lib_a-mprec.o)
                0x0800b7f0                __lo0bits
 .text.__i2b    0x0800b84c       0x14 /home/ece/Ac6/SystemWorkbench/plugins/fr.ac6.mcu.externaltools.arm-none.linux64_1.13.1.201707031232/tools/compiler/bin/../lib/gcc/arm-none-eabi/5.4.1/../../../../arm-none-eabi/lib/armv7e-m/fpu/libc.a(lib_a-mprec.o)
                0x0800b84c                __i2b
 .text.__multiply
                0x0800b860      0x130 /home/ece/Ac6/SystemWorkbench/plugins/fr.ac6.mcu.externaltools.arm-none.linux64_1.13.1.201707031232/tools/compiler/bin/../lib/gcc/arm-none-eabi/5.4.1/../../../../arm-none-eabi/lib/armv7e-m/fpu/libc.a(lib_a-mprec.o)
                0x0800b860                __multiply
 .text.__pow5mult
                0x0800b990       0xa0 /home/ece/Ac6/SystemWorkbench/plugins/fr.ac6.mcu.externaltools.arm-none.linux64_1.13.1.201707031232/tools/compiler/bin/../lib/gcc/arm-none-eabi/5.4.1/../../../../arm-none-eabi/lib/armv7e-m/fpu/libc.a(lib_a-mprec.o)
                0x0800b990                __pow5mult
 .text.__lshift
                0x0800ba30       0xb0 /home/ece/Ac6/SystemWorkbench/plugins/fr.ac6.mcu.externaltools.arm-none.linux64_1.13.1.201707031232/tools/compiler/bin/../lib/gcc/arm-none-eabi/5.4.1/../../../../arm-none-eabi/lib/armv7e-m/fpu/libc.a(lib_a-mprec.o)
                0x0800ba30                __lshift
 .text.__mcmp   0x0800bae0       0x44 /home/ece/Ac6/SystemWorkbench/plugins/fr.ac6.mcu.externaltools.arm-none.linux64_1.13.1.201707031232/tools/compiler/bin/../lib/gcc/arm-none-eabi/5.4.1/../../../../arm-none-eabi/lib/armv7e-m/fpu/libc.a(lib_a-mprec.o)
                0x0800bae0                __mcmp
 .text.__mdiff  0x0800bb24      0x114 /home/ece/Ac6/SystemWorkbench/plugins/fr.ac6.mcu.externaltools.arm-none.linux64_1.13.1.201707031232/tools/compiler/bin/../lib/gcc/arm-none-eabi/5.4.1/../../../../arm-none-eabi/lib/armv7e-m/fpu/libc.a(lib_a-mprec.o)
                0x0800bb24                __mdiff
 .text.__d2b    0x0800bc38       0xbc /home/ece/Ac6/SystemWorkbench/plugins/fr.ac6.mcu.externaltools.arm-none.linux64_1.13.1.201707031232/tools/compiler/bin/../lib/gcc/arm-none-eabi/5.4.1/../../../../arm-none-eabi/lib/armv7e-m/fpu/libc.a(lib_a-mprec.o)
                0x0800bc38                __d2b
 .text.__ssprint_r
                0x0800bcf4      0x100 /home/ece/Ac6/SystemWorkbench/plugins/fr.ac6.mcu.externaltools.arm-none.linux64_1.13.1.201707031232/tools/compiler/bin/../lib/gcc/arm-none-eabi/5.4.1/../../../../arm-none-eabi/lib/armv7e-m/fpu/libc.a(lib_a-svfiprintf.o)
                0x0800bcf4                __ssprint_r
 .text._calloc_r
                0x0800bdf4       0x60 /home/ece/Ac6/SystemWorkbench/plugins/fr.ac6.mcu.externaltools.arm-none.linux64_1.13.1.201707031232/tools/compiler/bin/../lib/gcc/arm-none-eabi/5.4.1/../../../../arm-none-eabi/lib/armv7e-m/fpu/libc.a(lib_a-callocr.o)
                0x0800bdf4                _calloc_r
 .text.__ascii_mbtowc
                0x0800be54       0x2c /home/ece/Ac6/SystemWorkbench/plugins/fr.ac6.mcu.externaltools.arm-none.linux64_1.13.1.201707031232/tools/compiler/bin/../lib/gcc/arm-none-eabi/5.4.1/../../../../arm-none-eabi/lib/armv7e-m/fpu/libc.a(lib_a-mbtowc_r.o)
                0x0800be54                __ascii_mbtowc
 .text.memmove  0x0800be80       0xc8 /home/ece/Ac6/SystemWorkbench/plugins/fr.ac6.mcu.externaltools.arm-none.linux64_1.13.1.201707031232/tools/compiler/bin/../lib/gcc/arm-none-eabi/5.4.1/../../../../arm-none-eabi/lib/armv7e-m/fpu/libc.a(lib_a-memmove.o)
                0x0800be80                memmove
 .text._realloc_r
                0x0800bf48      0x3e0 /home/ece/Ac6/SystemWorkbench/plugins/fr.ac6.mcu.externaltools.arm-none.linux64_1.13.1.201707031232/tools/compiler/bin/../lib/gcc/arm-none-eabi/5.4.1/../../../../arm-none-eabi/lib/armv7e-m/fpu/libc.a(lib_a-reallocr.o)
                0x0800bf48                _realloc_r
 .text.__ascii_wctomb
                0x0800c328       0x1c /home/ece/Ac6/SystemWorkbench/plugins/fr.ac6.mcu.externaltools.arm-none.linux64_1.13.1.201707031232/tools/compiler/bin/../lib/gcc/arm-none-eabi/5.4.1/../../../../arm-none-eabi/lib/armv7e-m/fpu/libc.a(lib_a-wctomb_r.o)
                0x0800c328                __ascii_wctomb
 *(.glue_7)
 .glue_7        0x0800c344        0x0 linker stubs
 *(.glue_7t)
 .glue_7t       0x0800c344        0x0 linker stubs
 *(.eh_frame)
 .eh_frame      0x0800c344        0x0 /home/ece/Ac6/SystemWorkbench/plugins/fr.ac6.mcu.externaltools.arm-none.linux64_1.13.1.201707031232/tools/compiler/bin/../lib/gcc/arm-none-eabi/5.4.1/armv7e-m/fpu/crtbegin.o
 *(.init)
 .init          0x0800c344        0x4 /home/ece/Ac6/SystemWorkbench/plugins/fr.ac6.mcu.externaltools.arm-none.linux64_1.13.1.201707031232/tools/compiler/bin/../lib/gcc/arm-none-eabi/5.4.1/armv7e-m/fpu/crti.o
                0x0800c344                _init
 .init          0x0800c348        0x8 /home/ece/Ac6/SystemWorkbench/plugins/fr.ac6.mcu.externaltools.arm-none.linux64_1.13.1.201707031232/tools/compiler/bin/../lib/gcc/arm-none-eabi/5.4.1/armv7e-m/fpu/crtn.o
 *(.fini)
 .fini          0x0800c350        0x4 /home/ece/Ac6/SystemWorkbench/plugins/fr.ac6.mcu.externaltools.arm-none.linux64_1.13.1.201707031232/tools/compiler/bin/../lib/gcc/arm-none-eabi/5.4.1/armv7e-m/fpu/crti.o
                0x0800c350                _fini
 .fini          0x0800c354        0x8 /home/ece/Ac6/SystemWorkbench/plugins/fr.ac6.mcu.externaltools.arm-none.linux64_1.13.1.201707031232/tools/compiler/bin/../lib/gcc/arm-none-eabi/5.4.1/armv7e-m/fpu/crtn.o
                0x0800c35c                . = ALIGN (0x4)
                0x0800c35c                _etext = .

.vfp11_veneer   0x0800c35c        0x0
 .vfp11_veneer  0x0800c35c        0x0 linker stubs

.v4_bx          0x0800c35c        0x0
 .v4_bx         0x0800c35c        0x0 linker stubs

.iplt           0x0800c35c        0x0
 .iplt          0x0800c35c        0x0 /home/ece/Ac6/SystemWorkbench/plugins/fr.ac6.mcu.externaltools.arm-none.linux64_1.13.1.201707031232/tools/compiler/bin/../lib/gcc/arm-none-eabi/5.4.1/armv7e-m/fpu/crtbegin.o

.rodata         0x0800c360      0x3b8
                0x0800c360                . = ALIGN (0x4)
 *(.rodata)
 .rodata        0x0800c360       0x5e Source/App/Button/button.o
 *fill*         0x0800c3be        0x2 
 .rodata        0x0800c3c0       0xa5 Source/App/MEMS/mems.o
 *fill*         0x0800c465        0x3 
 .rodata        0x0800c468       0x10 Source/Drivers/STM32F4xx_HAL_Driver/Src/stm32f4xx_hal_rcc.o
                0x0800c468                APBAHBPrescTable
 *(.rodata*)
 .rodata.str1.4
                0x0800c478        0x4 /home/ece/Ac6/SystemWorkbench/plugins/fr.ac6.mcu.externaltools.arm-none.linux64_1.13.1.201707031232/tools/compiler/bin/../lib/gcc/arm-none-eabi/5.4.1/../../../../arm-none-eabi/lib/armv7e-m/fpu/libm.a(lib_a-w_pow.o)
 .rodata.str1.4
                0x0800c47c        0x4 /home/ece/Ac6/SystemWorkbench/plugins/fr.ac6.mcu.externaltools.arm-none.linux64_1.13.1.201707031232/tools/compiler/bin/../lib/gcc/arm-none-eabi/5.4.1/../../../../arm-none-eabi/lib/armv7e-m/fpu/libm.a(lib_a-e_pow.o)
                                  0x1 (size before relaxing)
 *fill*         0x0800c47c        0x4 
 .rodata.TWO52  0x0800c480       0x10 /home/ece/Ac6/SystemWorkbench/plugins/fr.ac6.mcu.externaltools.arm-none.linux64_1.13.1.201707031232/tools/compiler/bin/../lib/gcc/arm-none-eabi/5.4.1/../../../../arm-none-eabi/lib/armv7e-m/fpu/libm.a(lib_a-s_rint.o)
 .rodata._global_impure_ptr
                0x0800c490        0x4 /home/ece/Ac6/SystemWorkbench/plugins/fr.ac6.mcu.externaltools.arm-none.linux64_1.13.1.201707031232/tools/compiler/bin/../lib/gcc/arm-none-eabi/5.4.1/../../../../arm-none-eabi/lib/armv7e-m/fpu/libc.a(lib_a-impure.o)
                0x0800c490                _global_impure_ptr
 .rodata.zeroes.7258
                0x0800c494       0x10 /home/ece/Ac6/SystemWorkbench/plugins/fr.ac6.mcu.externaltools.arm-none.linux64_1.13.1.201707031232/tools/compiler/bin/../lib/gcc/arm-none-eabi/5.4.1/../../../../arm-none-eabi/lib/armv7e-m/fpu/libc.a(lib_a-svfprintf.o)
 .rodata.str1.4
                0x0800c4a4       0x42 /home/ece/Ac6/SystemWorkbench/plugins/fr.ac6.mcu.externaltools.arm-none.linux64_1.13.1.201707031232/tools/compiler/bin/../lib/gcc/arm-none-eabi/5.4.1/../../../../arm-none-eabi/lib/armv7e-m/fpu/libc.a(lib_a-svfprintf.o)
 *fill*         0x0800c4e6        0x2 
 .rodata.blanks.7257
                0x0800c4e8       0x10 /home/ece/Ac6/SystemWorkbench/plugins/fr.ac6.mcu.externaltools.arm-none.linux64_1.13.1.201707031232/tools/compiler/bin/../lib/gcc/arm-none-eabi/5.4.1/../../../../arm-none-eabi/lib/armv7e-m/fpu/libc.a(lib_a-svfprintf.o)
 .rodata.str1.4
                0x0800c4f8       0x10 /home/ece/Ac6/SystemWorkbench/plugins/fr.ac6.mcu.externaltools.arm-none.linux64_1.13.1.201707031232/tools/compiler/bin/../lib/gcc/arm-none-eabi/5.4.1/../../../../arm-none-eabi/lib/armv7e-m/fpu/libc.a(lib_a-dtoa.o)
                                 0x12 (size before relaxing)
 .rodata.__mprec_tens
                0x0800c508       0xc8 /home/ece/Ac6/SystemWorkbench/plugins/fr.ac6.mcu.externaltools.arm-none.linux64_1.13.1.201707031232/tools/compiler/bin/../lib/gcc/arm-none-eabi/5.4.1/../../../../arm-none-eabi/lib/armv7e-m/fpu/libc.a(lib_a-mprec.o)
                0x0800c508                __mprec_tens
 .rodata.__mprec_bigtens
                0x0800c5d0       0x28 /home/ece/Ac6/SystemWorkbench/plugins/fr.ac6.mcu.externaltools.arm-none.linux64_1.13.1.201707031232/tools/compiler/bin/../lib/gcc/arm-none-eabi/5.4.1/../../../../arm-none-eabi/lib/armv7e-m/fpu/libc.a(lib_a-mprec.o)
                0x0800c5d0                __mprec_bigtens
 .rodata.p05.6087
                0x0800c5f8        0xc /home/ece/Ac6/SystemWorkbench/plugins/fr.ac6.mcu.externaltools.arm-none.linux64_1.13.1.201707031232/tools/compiler/bin/../lib/gcc/arm-none-eabi/5.4.1/../../../../arm-none-eabi/lib/armv7e-m/fpu/libc.a(lib_a-mprec.o)
 .rodata.str1.4
                0x0800c604       0x10 /home/ece/Ac6/SystemWorkbench/plugins/fr.ac6.mcu.externaltools.arm-none.linux64_1.13.1.201707031232/tools/compiler/bin/../lib/gcc/arm-none-eabi/5.4.1/../../../../arm-none-eabi/lib/armv7e-m/fpu/libc.a(lib_a-locale.o)
                                 0x12 (size before relaxing)
 .rodata._ctype_
                0x0800c614      0x101 /home/ece/Ac6/SystemWorkbench/plugins/fr.ac6.mcu.externaltools.arm-none.linux64_1.13.1.201707031232/tools/compiler/bin/../lib/gcc/arm-none-eabi/5.4.1/../../../../arm-none-eabi/lib/armv7e-m/fpu/libc.a(lib_a-ctype_.o)
                0x0800c614                _ctype_
                0x0800c718                . = ALIGN (0x4)
 *fill*         0x0800c715        0x3 

.ARM.extab
 *(.ARM.extab* .gnu.linkonce.armextab.*)

.ARM            0x0800c718        0x8
                0x0800c718                __exidx_start = .
 *(.ARM.exidx*)
 .ARM.exidx     0x0800c718        0x8 /home/ece/Ac6/SystemWorkbench/plugins/fr.ac6.mcu.externaltools.arm-none.linux64_1.13.1.201707031232/tools/compiler/bin/../lib/gcc/arm-none-eabi/5.4.1/armv7e-m/fpu/libgcc.a(_udivmoddi4.o)
                0x0800c720                __exidx_end = .

.rel.dyn        0x0800c720        0x0
 .rel.iplt      0x0800c720        0x0 /home/ece/Ac6/SystemWorkbench/plugins/fr.ac6.mcu.externaltools.arm-none.linux64_1.13.1.201707031232/tools/compiler/bin/../lib/gcc/arm-none-eabi/5.4.1/armv7e-m/fpu/crtbegin.o

.preinit_array  0x0800c720        0x0
                0x0800c720                PROVIDE (__preinit_array_start, .)
 *(.preinit_array*)
                0x0800c720                PROVIDE (__preinit_array_end, .)

.init_array     0x0800c720        0x8
                0x0800c720                PROVIDE (__init_array_start, .)
 *(SORT(.init_array.*))
 .init_array.00000
                0x0800c720        0x4 /home/ece/Ac6/SystemWorkbench/plugins/fr.ac6.mcu.externaltools.arm-none.linux64_1.13.1.201707031232/tools/compiler/bin/../lib/gcc/arm-none-eabi/5.4.1/../../../../arm-none-eabi/lib/armv7e-m/fpu/libc.a(lib_a-__call_atexit.o)
 *(.init_array*)
 .init_array    0x0800c724        0x4 /home/ece/Ac6/SystemWorkbench/plugins/fr.ac6.mcu.externaltools.arm-none.linux64_1.13.1.201707031232/tools/compiler/bin/../lib/gcc/arm-none-eabi/5.4.1/armv7e-m/fpu/crtbegin.o
                0x0800c728                PROVIDE (__init_array_end, .)

.fini_array     0x0800c728        0x4
                0x0800c728                PROVIDE (__fini_array_start, .)
 *(SORT(.fini_array.*))
 *(.fini_array*)
 .fini_array    0x0800c728        0x4 /home/ece/Ac6/SystemWorkbench/plugins/fr.ac6.mcu.externaltools.arm-none.linux64_1.13.1.201707031232/tools/compiler/bin/../lib/gcc/arm-none-eabi/5.4.1/armv7e-m/fpu/crtbegin.o
                0x0800c72c                PROVIDE (__fini_array_end, .)
                0x0800c72c                _sidata = LOADADDR (.data)

.data           0x20000000      0xb48 load address 0x0800c72c
                0x20000000                . = ALIGN (0x4)
                0x20000000                _sdata = .
 *(.data)
 .data          0x20000000       0x14 Source/App/Main/system_stm32f4xx.o
                0x20000000                SystemCoreClock
                0x20000004                AHBPrescTable
 .data          0x20000014       0x38 Source/Drivers/BSP/Components/hts221/hts221.o
                0x20000014                Hts221Drv
                0x20000044                Hts221Drv_ext
 .data          0x2000004c       0x1c Source/Drivers/BSP/Components/lis3mdl/lis3mdl.o
                0x2000004c                LIS3MDLDrv
                0x20000060                LIS3MDLDrv_ext
 .data          0x20000068       0x3d Source/Drivers/BSP/Components/lps25h/lps25h.o
                0x20000068                LPS25HDrv
                0x2000009c                LPS25HDrv_ext
                0x200000a4                LPS25H_SlaveAddress
 *fill*         0x200000a5        0x3 
 .data          0x200000a8       0x3d Source/Drivers/BSP/Components/lps25hb/lps25hb.o
                0x200000a8                LPS25HBDrv
                0x200000dc                LPS25HBDrv_ext
                0x200000e4                LPS25HB_SlaveAddress
 *fill*         0x200000e5        0x3 
 .data          0x200000e8       0x4c Source/Drivers/BSP/Components/lsm6ds0/lsm6ds0.o
                0x200000e8                LSM6DS0Drv
                0x2000012c                LSM6DS0Drv_ext
 .data          0x20000134       0x58 Source/Drivers/BSP/Components/lsm6ds3/lsm6ds3.o
                0x20000134                LSM6DS3Drv
                0x20000178                LSM6DS3Drv_ext_internal
                0x20000184                LSM6DS3Drv_ext
 .data          0x2000018c        0xc Source/Drivers/BSP/STM32F4xx-Nucleo/stm32f4xx_nucleo.o
                0x2000018c                GPIO_PORT
                0x20000190                BUTTON_PORT
                0x20000194                SpixTimeout
 .data          0x20000198        0x4 Source/Drivers/BSP/X_NUCLEO_IKS01A1/x_nucleo_iks01a1.o
                0x20000198                I2C_EXPBD_Timeout
 .data          0x2000019c        0x1 Source/Drivers/BSP/X_NUCLEO_IKS01A1/x_nucleo_iks01a1_imu_6axes.o
 .data          0x2000019d        0x1 Source/Drivers/BSP/X_NUCLEO_IKS01A1/x_nucleo_iks01a1_pressure.o
 *(.data*)
 .data.__fdlib_version
                0x2000019e        0x1 /home/ece/Ac6/SystemWorkbench/plugins/fr.ac6.mcu.externaltools.arm-none.linux64_1.13.1.201707031232/tools/compiler/bin/../lib/gcc/arm-none-eabi/5.4.1/../../../../arm-none-eabi/lib/armv7e-m/fpu/libm.a(lib_a-s_lib_ver.o)
                0x2000019e                __fdlib_version
 *fill*         0x2000019f        0x1 
 .data.impure_data
                0x200001a0      0x428 /home/ece/Ac6/SystemWorkbench/plugins/fr.ac6.mcu.externaltools.arm-none.linux64_1.13.1.201707031232/tools/compiler/bin/../lib/gcc/arm-none-eabi/5.4.1/../../../../arm-none-eabi/lib/armv7e-m/fpu/libc.a(lib_a-impure.o)
 .data._impure_ptr
                0x200005c8        0x4 /home/ece/Ac6/SystemWorkbench/plugins/fr.ac6.mcu.externaltools.arm-none.linux64_1.13.1.201707031232/tools/compiler/bin/../lib/gcc/arm-none-eabi/5.4.1/../../../../arm-none-eabi/lib/armv7e-m/fpu/libc.a(lib_a-impure.o)
                0x200005c8                _impure_ptr
 .data.__malloc_av_
                0x200005cc      0x408 /home/ece/Ac6/SystemWorkbench/plugins/fr.ac6.mcu.externaltools.arm-none.linux64_1.13.1.201707031232/tools/compiler/bin/../lib/gcc/arm-none-eabi/5.4.1/../../../../arm-none-eabi/lib/armv7e-m/fpu/libc.a(lib_a-mallocr.o)
                0x200005cc                __malloc_av_
 .data.__malloc_trim_threshold
                0x200009d4        0x4 /home/ece/Ac6/SystemWorkbench/plugins/fr.ac6.mcu.externaltools.arm-none.linux64_1.13.1.201707031232/tools/compiler/bin/../lib/gcc/arm-none-eabi/5.4.1/../../../../arm-none-eabi/lib/armv7e-m/fpu/libc.a(lib_a-mallocr.o)
                0x200009d4                __malloc_trim_threshold
 .data.__malloc_sbrk_base
                0x200009d8        0x4 /home/ece/Ac6/SystemWorkbench/plugins/fr.ac6.mcu.externaltools.arm-none.linux64_1.13.1.201707031232/tools/compiler/bin/../lib/gcc/arm-none-eabi/5.4.1/../../../../arm-none-eabi/lib/armv7e-m/fpu/libc.a(lib_a-mallocr.o)
                0x200009d8                __malloc_sbrk_base
 .data.__global_locale
                0x200009dc      0x16c /home/ece/Ac6/SystemWorkbench/plugins/fr.ac6.mcu.externaltools.arm-none.linux64_1.13.1.201707031232/tools/compiler/bin/../lib/gcc/arm-none-eabi/5.4.1/../../../../arm-none-eabi/lib/armv7e-m/fpu/libc.a(lib_a-locale.o)
                0x200009dc                __global_locale
                0x20000b48                . = ALIGN (0x4)
                0x20000b48                _edata = .

.jcr            0x20000b48        0x0 load address 0x0800d274
 .jcr           0x20000b48        0x0 /home/ece/Ac6/SystemWorkbench/plugins/fr.ac6.mcu.externaltools.arm-none.linux64_1.13.1.201707031232/tools/compiler/bin/../lib/gcc/arm-none-eabi/5.4.1/armv7e-m/fpu/crtbegin.o

.igot.plt       0x20000b48        0x0 load address 0x0800d274
 .igot.plt      0x20000b48        0x0 /home/ece/Ac6/SystemWorkbench/plugins/fr.ac6.mcu.externaltools.arm-none.linux64_1.13.1.201707031232/tools/compiler/bin/../lib/gcc/arm-none-eabi/5.4.1/armv7e-m/fpu/crtbegin.o
                0x20000b48                . = ALIGN (0x4)

.bss            0x20000b48      0x1a8 load address 0x0800d274
                0x20000b48                _sbss = .
                0x20000b48                __bss_start__ = _sbss
 *(.bss)
 .bss           0x20000b48       0x1c /home/ece/Ac6/SystemWorkbench/plugins/fr.ac6.mcu.externaltools.arm-none.linux64_1.13.1.201707031232/tools/compiler/bin/../lib/gcc/arm-none-eabi/5.4.1/armv7e-m/fpu/crtbegin.o
 .bss           0x20000b64       0x11 Source/App/Button/button.o
 *fill*         0x20000b75        0x3 
 .bss           0x20000b78        0xc Source/App/MEMS/mems.o
 .bss           0x20000b84       0x3c Source/Drivers/BSP/X_NUCLEO_IKS01A1/x_nucleo_iks01a1.o
 .bss           0x20000bc0        0x5 Source/Drivers/BSP/X_NUCLEO_IKS01A1/x_nucleo_iks01a1_hum_temp.o
 *fill*         0x20000bc5        0x3 
 .bss           0x20000bc8        0x5 Source/Drivers/BSP/X_NUCLEO_IKS01A1/x_nucleo_iks01a1_imu_6axes.o
 *fill*         0x20000bcd        0x3 
 .bss           0x20000bd0        0x5 Source/Drivers/BSP/X_NUCLEO_IKS01A1/x_nucleo_iks01a1_magneto.o
 *fill*         0x20000bd5        0x3 
 .bss           0x20000bd8        0x5 Source/Drivers/BSP/X_NUCLEO_IKS01A1/x_nucleo_iks01a1_pressure.o
 *fill*         0x20000bdd        0x3 
 .bss           0x20000be0        0x4 Source/Drivers/STM32F4xx_HAL_Driver/Src/stm32f4xx_hal.o
 .bss           0x20000be4        0x4 Source/Drivers/Utils/Trace/syscalls.o
 .bss           0x20000be8       0x80 Source/Drivers/Utils/Trace/trace.o
 *(.bss*)
 .bss.__malloc_max_total_mem
                0x20000c68        0x4 /home/ece/Ac6/SystemWorkbench/plugins/fr.ac6.mcu.externaltools.arm-none.linux64_1.13.1.201707031232/tools/compiler/bin/../lib/gcc/arm-none-eabi/5.4.1/../../../../arm-none-eabi/lib/armv7e-m/fpu/libc.a(lib_a-mallocr.o)
                0x20000c68                __malloc_max_total_mem
 .bss.__malloc_max_sbrked_mem
                0x20000c6c        0x4 /home/ece/Ac6/SystemWorkbench/plugins/fr.ac6.mcu.externaltools.arm-none.linux64_1.13.1.201707031232/tools/compiler/bin/../lib/gcc/arm-none-eabi/5.4.1/../../../../arm-none-eabi/lib/armv7e-m/fpu/libc.a(lib_a-mallocr.o)
                0x20000c6c                __malloc_max_sbrked_mem
 .bss.__malloc_top_pad
                0x20000c70        0x4 /home/ece/Ac6/SystemWorkbench/plugins/fr.ac6.mcu.externaltools.arm-none.linux64_1.13.1.201707031232/tools/compiler/bin/../lib/gcc/arm-none-eabi/5.4.1/../../../../arm-none-eabi/lib/armv7e-m/fpu/libc.a(lib_a-mallocr.o)
                0x20000c70                __malloc_top_pad
 .bss.__malloc_current_mallinfo
                0x20000c74       0x28 /home/ece/Ac6/SystemWorkbench/plugins/fr.ac6.mcu.externaltools.arm-none.linux64_1.13.1.201707031232/tools/compiler/bin/../lib/gcc/arm-none-eabi/5.4.1/../../../../arm-none-eabi/lib/armv7e-m/fpu/libc.a(lib_a-mallocr.o)
                0x20000c74                __malloc_current_mallinfo
 *(COMMON)
 COMMON         0x20000c9c       0x34 Source/App/MEMS/mems.o
                0x20000c9c                TEMPERATURE_Value
                0x20000ca0                PRESSURE_Value
                0x20000ca4                GYR_Value
                0x20000cb0                HUMIDITY_Value
                0x20000cb4                ACC_Value
                0x20000cc0                mems_read_period_ms
                0x20000cc4                MAG_Value
 COMMON         0x20000cd0       0x1c Source/Drivers/BSP/Components/hts221/hts221.o
                0x20000cd0                T0_out
                0x20000cd4                T0_degC
                0x20000cd8                T1_out
                0x20000cdc                T1_degC
                0x20000ce0                H0_rh
                0x20000ce4                H1_rh
                0x20000ce8                H0_T0_out
                0x20000cea                H1_T0_out
 COMMON         0x20000cec        0x4 /home/ece/Ac6/SystemWorkbench/plugins/fr.ac6.mcu.externaltools.arm-none.linux64_1.13.1.201707031232/tools/compiler/bin/../lib/gcc/arm-none-eabi/5.4.1/../../../../arm-none-eabi/lib/armv7e-m/fpu/libc.a(lib_a-reent.o)
                0x20000cec                errno
                0x20000cf0                . = ALIGN (0x4)
                0x20000cf0                _ebss = .
                0x20000cf0                __bss_end__ = _ebss

._user_heap_stack
                0x20000cf0      0x600 load address 0x0800d274
                0x20000cf0                . = ALIGN (0x4)
                0x20000cf0                PROVIDE (end, .)
                [!provide]                PROVIDE (_end, .)
                0x20000ef0                . = (. + _Min_Heap_Size)
 *fill*         0x20000cf0      0x200 
                0x200012f0                . = (. + _Min_Stack_Size)
 *fill*         0x20000ef0      0x400 
                0x200012f0                . = ALIGN (0x4)

/DISCARD/
 libc.a(*)
 libm.a(*)
 libgcc.a(*)

.ARM.attributes
                0x00000000       0x30
 *(.ARM.attributes)
 .ARM.attributes
                0x00000000       0x22 /home/ece/Ac6/SystemWorkbench/plugins/fr.ac6.mcu.externaltools.arm-none.linux64_1.13.1.201707031232/tools/compiler/bin/../lib/gcc/arm-none-eabi/5.4.1/armv7e-m/fpu/crti.o
 .ARM.attributes
                0x00000022       0x34 /home/ece/Ac6/SystemWorkbench/plugins/fr.ac6.mcu.externaltools.arm-none.linux64_1.13.1.201707031232/tools/compiler/bin/../lib/gcc/arm-none-eabi/5.4.1/armv7e-m/fpu/crtbegin.o
 .ARM.attributes
                0x00000056       0x39 Source/App/Button/button.o
 .ARM.attributes
                0x0000008f       0x39 Source/App/MEMS/mems.o
 .ARM.attributes
                0x000000c8       0x39 Source/App/Main/cube_hal_f4.o
 .ARM.attributes
                0x00000101       0x39 Source/App/Main/main.o
 .ARM.attributes
                0x0000013a       0x21 Source/App/Main/startup_stm32f401xe.o
 .ARM.attributes
                0x0000015b       0x39 Source/App/Main/stm32f4xx_it.o
 .ARM.attributes
                0x00000194       0x39 Source/App/Main/system_stm32f4xx.o
 .ARM.attributes
                0x000001cd       0x39 Source/App/Motion/motion.o
 .ARM.attributes
                0x00000206       0x39 Source/App/Time/clock.o
 .ARM.attributes
                0x0000023f       0x39 Source/App/Time/gp_timer.o
 .ARM.attributes
                0x00000278       0x39 Source/Drivers/BSP/Components/hts221/hts221.o
 .ARM.attributes
                0x000002b1       0x39 Source/Drivers/BSP/Components/lis3mdl/lis3mdl.o
 .ARM.attributes
                0x000002ea       0x39 Source/Drivers/BSP/Components/lps25h/lps25h.o
 .ARM.attributes
                0x00000323       0x39 Source/Drivers/BSP/Components/lps25hb/lps25hb.o
 .ARM.attributes
                0x0000035c       0x39 Source/Drivers/BSP/Components/lsm6ds0/lsm6ds0.o
 .ARM.attributes
                0x00000395       0x39 Source/Drivers/BSP/Components/lsm6ds3/lsm6ds3.o
 .ARM.attributes
                0x000003ce       0x39 Source/Drivers/BSP/STM32F4xx-Nucleo/stm32f4xx_nucleo.o
 .ARM.attributes
                0x00000407       0x39 Source/Drivers/BSP/X_NUCLEO_IKS01A1/x_nucleo_iks01a1.o
 .ARM.attributes
                0x00000440       0x39 Source/Drivers/BSP/X_NUCLEO_IKS01A1/x_nucleo_iks01a1_hum_temp.o
 .ARM.attributes
                0x00000479       0x39 Source/Drivers/BSP/X_NUCLEO_IKS01A1/x_nucleo_iks01a1_imu_6axes.o
 .ARM.attributes
                0x000004b2       0x39 Source/Drivers/BSP/X_NUCLEO_IKS01A1/x_nucleo_iks01a1_magneto.o
 .ARM.attributes
                0x000004eb       0x39 Source/Drivers/BSP/X_NUCLEO_IKS01A1/x_nucleo_iks01a1_pressure.o
 .ARM.attributes
                0x00000524       0x39 Source/Drivers/STM32F4xx_HAL_Driver/Src/stm32f4xx_hal.o
 .ARM.attributes
                0x0000055d       0x39 Source/Drivers/STM32F4xx_HAL_Driver/Src/stm32f4xx_hal_cortex.o
 .ARM.attributes
                0x00000596       0x39 Source/Drivers/STM32F4xx_HAL_Driver/Src/stm32f4xx_hal_gpio.o
 .ARM.attributes
                0x000005cf       0x39 Source/Drivers/STM32F4xx_HAL_Driver/Src/stm32f4xx_hal_i2c.o
 .ARM.attributes
                0x00000608       0x39 Source/Drivers/STM32F4xx_HAL_Driver/Src/stm32f4xx_hal_rcc.o
 .ARM.attributes
                0x00000641       0x39 Source/Drivers/Utils/Trace/syscalls.o
 .ARM.attributes
                0x0000067a       0x39 Source/Drivers/Utils/Trace/trace.o
 .ARM.attributes
                0x000006b3       0x39 Source/Drivers/Utils/Trace/trace_impl.o
 .ARM.attributes
                0x000006ec       0x34 /home/ece/Ac6/SystemWorkbench/plugins/fr.ac6.mcu.externaltools.arm-none.linux64_1.13.1.201707031232/tools/compiler/bin/../lib/gcc/arm-none-eabi/5.4.1/../../../../arm-none-eabi/lib/armv7e-m/fpu/libm.a(lib_a-s_trunc.o)
 .ARM.attributes
                0x00000720       0x34 /home/ece/Ac6/SystemWorkbench/plugins/fr.ac6.mcu.externaltools.arm-none.linux64_1.13.1.201707031232/tools/compiler/bin/../lib/gcc/arm-none-eabi/5.4.1/../../../../arm-none-eabi/lib/armv7e-m/fpu/libm.a(lib_a-w_pow.o)
 .ARM.attributes
                0x00000754       0x34 /home/ece/Ac6/SystemWorkbench/plugins/fr.ac6.mcu.externaltools.arm-none.linux64_1.13.1.201707031232/tools/compiler/bin/../lib/gcc/arm-none-eabi/5.4.1/../../../../arm-none-eabi/lib/armv7e-m/fpu/libm.a(lib_a-e_pow.o)
 .ARM.attributes
                0x00000788       0x34 /home/ece/Ac6/SystemWorkbench/plugins/fr.ac6.mcu.externaltools.arm-none.linux64_1.13.1.201707031232/tools/compiler/bin/../lib/gcc/arm-none-eabi/5.4.1/../../../../arm-none-eabi/lib/armv7e-m/fpu/libm.a(lib_a-e_sqrt.o)
 .ARM.attributes
                0x000007bc       0x34 /home/ece/Ac6/SystemWorkbench/plugins/fr.ac6.mcu.externaltools.arm-none.linux64_1.13.1.201707031232/tools/compiler/bin/../lib/gcc/arm-none-eabi/5.4.1/../../../../arm-none-eabi/lib/armv7e-m/fpu/libm.a(lib_a-s_fabs.o)
 .ARM.attributes
                0x000007f0       0x34 /home/ece/Ac6/SystemWorkbench/plugins/fr.ac6.mcu.externaltools.arm-none.linux64_1.13.1.201707031232/tools/compiler/bin/../lib/gcc/arm-none-eabi/5.4.1/../../../../arm-none-eabi/lib/armv7e-m/fpu/libm.a(lib_a-s_finite.o)
 .ARM.attributes
                0x00000824       0x34 /home/ece/Ac6/SystemWorkbench/plugins/fr.ac6.mcu.externaltools.arm-none.linux64_1.13.1.201707031232/tools/compiler/bin/../lib/gcc/arm-none-eabi/5.4.1/../../../../arm-none-eabi/lib/armv7e-m/fpu/libm.a(lib_a-s_lib_ver.o)
 .ARM.attributes
                0x00000858       0x34 /home/ece/Ac6/SystemWorkbench/plugins/fr.ac6.mcu.externaltools.arm-none.linux64_1.13.1.201707031232/tools/compiler/bin/../lib/gcc/arm-none-eabi/5.4.1/../../../../arm-none-eabi/lib/armv7e-m/fpu/libm.a(lib_a-s_matherr.o)
 .ARM.attributes
                0x0000088c       0x34 /home/ece/Ac6/SystemWorkbench/plugins/fr.ac6.mcu.externaltools.arm-none.linux64_1.13.1.201707031232/tools/compiler/bin/../lib/gcc/arm-none-eabi/5.4.1/../../../../arm-none-eabi/lib/armv7e-m/fpu/libm.a(lib_a-s_nan.o)
 .ARM.attributes
                0x000008c0       0x34 /home/ece/Ac6/SystemWorkbench/plugins/fr.ac6.mcu.externaltools.arm-none.linux64_1.13.1.201707031232/tools/compiler/bin/../lib/gcc/arm-none-eabi/5.4.1/../../../../arm-none-eabi/lib/armv7e-m/fpu/libm.a(lib_a-s_rint.o)
 .ARM.attributes
                0x000008f4       0x34 /home/ece/Ac6/SystemWorkbench/plugins/fr.ac6.mcu.externaltools.arm-none.linux64_1.13.1.201707031232/tools/compiler/bin/../lib/gcc/arm-none-eabi/5.4.1/../../../../arm-none-eabi/lib/armv7e-m/fpu/libm.a(lib_a-s_scalbn.o)
 .ARM.attributes
                0x00000928       0x34 /home/ece/Ac6/SystemWorkbench/plugins/fr.ac6.mcu.externaltools.arm-none.linux64_1.13.1.201707031232/tools/compiler/bin/../lib/gcc/arm-none-eabi/5.4.1/../../../../arm-none-eabi/lib/armv7e-m/fpu/libm.a(lib_a-s_copysign.o)
 .ARM.attributes
                0x0000095c       0x22 /home/ece/Ac6/SystemWorkbench/plugins/fr.ac6.mcu.externaltools.arm-none.linux64_1.13.1.201707031232/tools/compiler/bin/../lib/gcc/arm-none-eabi/5.4.1/armv7e-m/fpu/libgcc.a(_arm_addsubdf3.o)
 .ARM.attributes
                0x0000097e       0x22 /home/ece/Ac6/SystemWorkbench/plugins/fr.ac6.mcu.externaltools.arm-none.linux64_1.13.1.201707031232/tools/compiler/bin/../lib/gcc/arm-none-eabi/5.4.1/armv7e-m/fpu/libgcc.a(_arm_muldivdf3.o)
 .ARM.attributes
                0x000009a0       0x22 /home/ece/Ac6/SystemWorkbench/plugins/fr.ac6.mcu.externaltools.arm-none.linux64_1.13.1.201707031232/tools/compiler/bin/../lib/gcc/arm-none-eabi/5.4.1/armv7e-m/fpu/libgcc.a(_arm_cmpdf2.o)
 .ARM.attributes
                0x000009c2       0x22 /home/ece/Ac6/SystemWorkbench/plugins/fr.ac6.mcu.externaltools.arm-none.linux64_1.13.1.201707031232/tools/compiler/bin/../lib/gcc/arm-none-eabi/5.4.1/armv7e-m/fpu/libgcc.a(_arm_unorddf2.o)
 .ARM.attributes
                0x000009e4       0x22 /home/ece/Ac6/SystemWorkbench/plugins/fr.ac6.mcu.externaltools.arm-none.linux64_1.13.1.201707031232/tools/compiler/bin/../lib/gcc/arm-none-eabi/5.4.1/armv7e-m/fpu/libgcc.a(_arm_fixdfsi.o)
 .ARM.attributes
                0x00000a06       0x22 /home/ece/Ac6/SystemWorkbench/plugins/fr.ac6.mcu.externaltools.arm-none.linux64_1.13.1.201707031232/tools/compiler/bin/../lib/gcc/arm-none-eabi/5.4.1/armv7e-m/fpu/libgcc.a(_arm_fixunsdfsi.o)
 .ARM.attributes
                0x00000a28       0x34 /home/ece/Ac6/SystemWorkbench/plugins/fr.ac6.mcu.externaltools.arm-none.linux64_1.13.1.201707031232/tools/compiler/bin/../lib/gcc/arm-none-eabi/5.4.1/../../../../arm-none-eabi/lib/armv7e-m/fpu/libc.a(lib_a-errno.o)
 .ARM.attributes
                0x00000a5c       0x34 /home/ece/Ac6/SystemWorkbench/plugins/fr.ac6.mcu.externaltools.arm-none.linux64_1.13.1.201707031232/tools/compiler/bin/../lib/gcc/arm-none-eabi/5.4.1/../../../../arm-none-eabi/lib/armv7e-m/fpu/libc.a(lib_a-impure.o)
 .ARM.attributes
                0x00000a90       0x34 /home/ece/Ac6/SystemWorkbench/plugins/fr.ac6.mcu.externaltools.arm-none.linux64_1.13.1.201707031232/tools/compiler/bin/../lib/gcc/arm-none-eabi/5.4.1/../../../../arm-none-eabi/lib/armv7e-m/fpu/libc.a(lib_a-init.o)
 .ARM.attributes
                0x00000ac4       0x34 /home/ece/Ac6/SystemWorkbench/plugins/fr.ac6.mcu.externaltools.arm-none.linux64_1.13.1.201707031232/tools/compiler/bin/../lib/gcc/arm-none-eabi/5.4.1/../../../../arm-none-eabi/lib/armv7e-m/fpu/libc.a(lib_a-memset.o)
 .ARM.attributes
                0x00000af8       0x34 /home/ece/Ac6/SystemWorkbench/plugins/fr.ac6.mcu.externaltools.arm-none.linux64_1.13.1.201707031232/tools/compiler/bin/../lib/gcc/arm-none-eabi/5.4.1/../../../../arm-none-eabi/lib/armv7e-m/fpu/libc.a(lib_a-reent.o)
 .ARM.attributes
                0x00000b2c       0x20 /home/ece/Ac6/SystemWorkbench/plugins/fr.ac6.mcu.externaltools.arm-none.linux64_1.13.1.201707031232/tools/compiler/bin/../lib/gcc/arm-none-eabi/5.4.1/../../../../arm-none-eabi/lib/armv7e-m/fpu/libc.a(lib_a-strlen.o)
 .ARM.attributes
                0x00000b4c       0x34 /home/ece/Ac6/SystemWorkbench/plugins/fr.ac6.mcu.externaltools.arm-none.linux64_1.13.1.201707031232/tools/compiler/bin/../lib/gcc/arm-none-eabi/5.4.1/../../../../arm-none-eabi/lib/armv7e-m/fpu/libc.a(lib_a-vsnprintf.o)
 .ARM.attributes
                0x00000b80       0x34 /home/ece/Ac6/SystemWorkbench/plugins/fr.ac6.mcu.externaltools.arm-none.linux64_1.13.1.201707031232/tools/compiler/bin/../lib/gcc/arm-none-eabi/5.4.1/../../../../arm-none-eabi/lib/armv7e-m/fpu/libc.a(lib_a-__call_atexit.o)
 .ARM.attributes
                0x00000bb4       0x34 /home/ece/Ac6/SystemWorkbench/plugins/fr.ac6.mcu.externaltools.arm-none.linux64_1.13.1.201707031232/tools/compiler/bin/../lib/gcc/arm-none-eabi/5.4.1/../../../../arm-none-eabi/lib/armv7e-m/fpu/libc.a(lib_a-atexit.o)
 .ARM.attributes
                0x00000be8       0x34 /home/ece/Ac6/SystemWorkbench/plugins/fr.ac6.mcu.externaltools.arm-none.linux64_1.13.1.201707031232/tools/compiler/bin/../lib/gcc/arm-none-eabi/5.4.1/../../../../arm-none-eabi/lib/armv7e-m/fpu/libc.a(lib_a-fini.o)
 .ARM.attributes
                0x00000c1c       0x34 /home/ece/Ac6/SystemWorkbench/plugins/fr.ac6.mcu.externaltools.arm-none.linux64_1.13.1.201707031232/tools/compiler/bin/../lib/gcc/arm-none-eabi/5.4.1/../../../../arm-none-eabi/lib/armv7e-m/fpu/libc.a(lib_a-freer.o)
 .ARM.attributes
                0x00000c50       0x34 /home/ece/Ac6/SystemWorkbench/plugins/fr.ac6.mcu.externaltools.arm-none.linux64_1.13.1.201707031232/tools/compiler/bin/../lib/gcc/arm-none-eabi/5.4.1/../../../../arm-none-eabi/lib/armv7e-m/fpu/libc.a(lib_a-mallocr.o)
 .ARM.attributes
                0x00000c84       0x34 /home/ece/Ac6/SystemWorkbench/plugins/fr.ac6.mcu.externaltools.arm-none.linux64_1.13.1.201707031232/tools/compiler/bin/../lib/gcc/arm-none-eabi/5.4.1/../../../../arm-none-eabi/lib/armv7e-m/fpu/libc.a(lib_a-mlock.o)
 .ARM.attributes
                0x00000cb8       0x34 /home/ece/Ac6/SystemWorkbench/plugins/fr.ac6.mcu.externaltools.arm-none.linux64_1.13.1.201707031232/tools/compiler/bin/../lib/gcc/arm-none-eabi/5.4.1/../../../../arm-none-eabi/lib/armv7e-m/fpu/libc.a(lib_a-sbrkr.o)
 .ARM.attributes
                0x00000cec       0x34 /home/ece/Ac6/SystemWorkbench/plugins/fr.ac6.mcu.externaltools.arm-none.linux64_1.13.1.201707031232/tools/compiler/bin/../lib/gcc/arm-none-eabi/5.4.1/../../../../arm-none-eabi/lib/armv7e-m/fpu/libc.a(lib_a-svfprintf.o)
 .ARM.attributes
                0x00000d20       0x34 /home/ece/Ac6/SystemWorkbench/plugins/fr.ac6.mcu.externaltools.arm-none.linux64_1.13.1.201707031232/tools/compiler/bin/../lib/gcc/arm-none-eabi/5.4.1/../../../../arm-none-eabi/lib/armv7e-m/fpu/libc.a(lib_a-__atexit.o)
 .ARM.attributes
                0x00000d54       0x34 /home/ece/Ac6/SystemWorkbench/plugins/fr.ac6.mcu.externaltools.arm-none.linux64_1.13.1.201707031232/tools/compiler/bin/../lib/gcc/arm-none-eabi/5.4.1/../../../../arm-none-eabi/lib/armv7e-m/fpu/libc.a(lib_a-dtoa.o)
 .ARM.attributes
                0x00000d88       0x34 /home/ece/Ac6/SystemWorkbench/plugins/fr.ac6.mcu.externaltools.arm-none.linux64_1.13.1.201707031232/tools/compiler/bin/../lib/gcc/arm-none-eabi/5.4.1/../../../../arm-none-eabi/lib/armv7e-m/fpu/libc.a(lib_a-localeconv.o)
 .ARM.attributes
                0x00000dbc       0x20 /home/ece/Ac6/SystemWorkbench/plugins/fr.ac6.mcu.externaltools.arm-none.linux64_1.13.1.201707031232/tools/compiler/bin/../lib/gcc/arm-none-eabi/5.4.1/../../../../arm-none-eabi/lib/armv7e-m/fpu/libc.a(lib_a-memchr.o)
 .ARM.attributes
                0x00000ddc       0x20 /home/ece/Ac6/SystemWorkbench/plugins/fr.ac6.mcu.externaltools.arm-none.linux64_1.13.1.201707031232/tools/compiler/bin/../lib/gcc/arm-none-eabi/5.4.1/../../../../arm-none-eabi/lib/armv7e-m/fpu/libc.a(lib_a-memcpy.o)
 .ARM.attributes
                0x00000dfc       0x34 /home/ece/Ac6/SystemWorkbench/plugins/fr.ac6.mcu.externaltools.arm-none.linux64_1.13.1.201707031232/tools/compiler/bin/../lib/gcc/arm-none-eabi/5.4.1/../../../../arm-none-eabi/lib/armv7e-m/fpu/libc.a(lib_a-mprec.o)
 .ARM.attributes
                0x00000e30       0x34 /home/ece/Ac6/SystemWorkbench/plugins/fr.ac6.mcu.externaltools.arm-none.linux64_1.13.1.201707031232/tools/compiler/bin/../lib/gcc/arm-none-eabi/5.4.1/../../../../arm-none-eabi/lib/armv7e-m/fpu/libc.a(lib_a-svfiprintf.o)
 .ARM.attributes
                0x00000e64       0x34 /home/ece/Ac6/SystemWorkbench/plugins/fr.ac6.mcu.externaltools.arm-none.linux64_1.13.1.201707031232/tools/compiler/bin/../lib/gcc/arm-none-eabi/5.4.1/../../../../arm-none-eabi/lib/armv7e-m/fpu/libc.a(lib_a-callocr.o)
 .ARM.attributes
                0x00000e98       0x34 /home/ece/Ac6/SystemWorkbench/plugins/fr.ac6.mcu.externaltools.arm-none.linux64_1.13.1.201707031232/tools/compiler/bin/../lib/gcc/arm-none-eabi/5.4.1/../../../../arm-none-eabi/lib/armv7e-m/fpu/libc.a(lib_a-locale.o)
 .ARM.attributes
                0x00000ecc       0x34 /home/ece/Ac6/SystemWorkbench/plugins/fr.ac6.mcu.externaltools.arm-none.linux64_1.13.1.201707031232/tools/compiler/bin/../lib/gcc/arm-none-eabi/5.4.1/../../../../arm-none-eabi/lib/armv7e-m/fpu/libc.a(lib_a-mbtowc_r.o)
 .ARM.attributes
                0x00000f00       0x34 /home/ece/Ac6/SystemWorkbench/plugins/fr.ac6.mcu.externaltools.arm-none.linux64_1.13.1.201707031232/tools/compiler/bin/../lib/gcc/arm-none-eabi/5.4.1/../../../../arm-none-eabi/lib/armv7e-m/fpu/libc.a(lib_a-memmove.o)
 .ARM.attributes
                0x00000f34       0x34 /home/ece/Ac6/SystemWorkbench/plugins/fr.ac6.mcu.externaltools.arm-none.linux64_1.13.1.201707031232/tools/compiler/bin/../lib/gcc/arm-none-eabi/5.4.1/../../../../arm-none-eabi/lib/armv7e-m/fpu/libc.a(lib_a-reallocr.o)
 .ARM.attributes
                0x00000f68       0x34 /home/ece/Ac6/SystemWorkbench/plugins/fr.ac6.mcu.externaltools.arm-none.linux64_1.13.1.201707031232/tools/compiler/bin/../lib/gcc/arm-none-eabi/5.4.1/../../../../arm-none-eabi/lib/armv7e-m/fpu/libc.a(lib_a-wctomb_r.o)
 .ARM.attributes
                0x00000f9c       0x34 /home/ece/Ac6/SystemWorkbench/plugins/fr.ac6.mcu.externaltools.arm-none.linux64_1.13.1.201707031232/tools/compiler/bin/../lib/gcc/arm-none-eabi/5.4.1/../../../../arm-none-eabi/lib/armv7e-m/fpu/libc.a(lib_a-ctype_.o)
 .ARM.attributes
                0x00000fd0       0x22 /home/ece/Ac6/SystemWorkbench/plugins/fr.ac6.mcu.externaltools.arm-none.linux64_1.13.1.201707031232/tools/compiler/bin/../lib/gcc/arm-none-eabi/5.4.1/armv7e-m/fpu/libgcc.a(_aeabi_uldivmod.o)
 .ARM.attributes
                0x00000ff2       0x34 /home/ece/Ac6/SystemWorkbench/plugins/fr.ac6.mcu.externaltools.arm-none.linux64_1.13.1.201707031232/tools/compiler/bin/../lib/gcc/arm-none-eabi/5.4.1/armv7e-m/fpu/libgcc.a(_udivmoddi4.o)
 .ARM.attributes
                0x00001026       0x22 /home/ece/Ac6/SystemWorkbench/plugins/fr.ac6.mcu.externaltools.arm-none.linux64_1.13.1.201707031232/tools/compiler/bin/../lib/gcc/arm-none-eabi/5.4.1/armv7e-m/fpu/libgcc.a(_dvmd_tls.o)
 .ARM.attributes
                0x00001048       0x22 /home/ece/Ac6/SystemWorkbench/plugins/fr.ac6.mcu.externaltools.arm-none.linux64_1.13.1.201707031232/tools/compiler/bin/../lib/gcc/arm-none-eabi/5.4.1/armv7e-m/fpu/crtn.o
OUTPUT(Mems.elf elf32-littlearm)

.debug_info     0x00000000     0xcc44
 .debug_info    0x00000000      0x226 Source/App/Button/button.o
 .debug_info    0x00000226      0x4eb Source/App/MEMS/mems.o
 .debug_info    0x00000711      0x723 Source/App/Main/cube_hal_f4.o
 .debug_info    0x00000e34       0xe0 Source/App/Main/main.o
 .debug_info    0x00000f14       0x6c Source/App/Main/startup_stm32f401xe.o
 .debug_info    0x00000f80      0x117 Source/App/Main/stm32f4xx_it.o
 .debug_info    0x00001097      0x4da Source/App/Main/system_stm32f4xx.o
 .debug_info    0x00001571      0x19a Source/App/Motion/motion.o
 .debug_info    0x0000170b      0x12b Source/App/Time/clock.o
 .debug_info    0x00001836      0x1ec Source/App/Time/gp_timer.o
 .debug_info    0x00001a22      0x608 Source/Drivers/BSP/Components/hts221/hts221.o
 .debug_info    0x0000202a      0x384 Source/Drivers/BSP/Components/lis3mdl/lis3mdl.o
 .debug_info    0x000023ae      0x59c Source/Drivers/BSP/Components/lps25h/lps25h.o
 .debug_info    0x0000294a      0x59c Source/Drivers/BSP/Components/lps25hb/lps25hb.o
 .debug_info    0x00002ee6      0x86f Source/Drivers/BSP/Components/lsm6ds0/lsm6ds0.o
 .debug_info    0x00003755      0x982 Source/Drivers/BSP/Components/lsm6ds3/lsm6ds3.o
 .debug_info    0x000040d7     0x1458 Source/Drivers/BSP/STM32F4xx-Nucleo/stm32f4xx_nucleo.o
 .debug_info    0x0000552f     0x14b1 Source/Drivers/BSP/X_NUCLEO_IKS01A1/x_nucleo_iks01a1.o
 .debug_info    0x000069e0      0x442 Source/Drivers/BSP/X_NUCLEO_IKS01A1/x_nucleo_iks01a1_hum_temp.o
 .debug_info    0x00006e22      0x802 Source/Drivers/BSP/X_NUCLEO_IKS01A1/x_nucleo_iks01a1_imu_6axes.o
 .debug_info    0x00007624      0x422 Source/Drivers/BSP/X_NUCLEO_IKS01A1/x_nucleo_iks01a1_magneto.o
 .debug_info    0x00007a46      0x47c Source/Drivers/BSP/X_NUCLEO_IKS01A1/x_nucleo_iks01a1_pressure.o
 .debug_info    0x00007ec2      0x84b Source/Drivers/STM32F4xx_HAL_Driver/Src/stm32f4xx_hal.o
 .debug_info    0x0000870d      0xaea Source/Drivers/STM32F4xx_HAL_Driver/Src/stm32f4xx_hal_cortex.o
 .debug_info    0x000091f7      0x71f Source/Drivers/STM32F4xx_HAL_Driver/Src/stm32f4xx_hal_gpio.o
 .debug_info    0x00009916     0x187d Source/Drivers/STM32F4xx_HAL_Driver/Src/stm32f4xx_hal_i2c.o
 .debug_info    0x0000b193      0xe39 Source/Drivers/STM32F4xx_HAL_Driver/Src/stm32f4xx_hal_rcc.o
 .debug_info    0x0000bfcc      0x745 Source/Drivers/Utils/Trace/syscalls.o
 .debug_info    0x0000c711      0x1cf Source/Drivers/Utils/Trace/trace.o
 .debug_info    0x0000c8e0      0x364 Source/Drivers/Utils/Trace/trace_impl.o

.debug_abbrev   0x00000000     0x296c
 .debug_abbrev  0x00000000       0xd2 Source/App/Button/button.o
 .debug_abbrev  0x000000d2      0x15d Source/App/MEMS/mems.o
 .debug_abbrev  0x0000022f      0x190 Source/App/Main/cube_hal_f4.o
 .debug_abbrev  0x000003bf       0x84 Source/App/Main/main.o
 .debug_abbrev  0x00000443       0x12 Source/App/Main/startup_stm32f401xe.o
 .debug_abbrev  0x00000455       0x82 Source/App/Main/stm32f4xx_it.o
 .debug_abbrev  0x000004d7      0x104 Source/App/Main/system_stm32f4xx.o
 .debug_abbrev  0x000005db       0x82 Source/App/Motion/motion.o
 .debug_abbrev  0x0000065d       0xc5 Source/App/Time/clock.o
 .debug_abbrev  0x00000722       0xf6 Source/App/Time/gp_timer.o
 .debug_abbrev  0x00000818      0x162 Source/Drivers/BSP/Components/hts221/hts221.o
 .debug_abbrev  0x0000097a       0xfa Source/Drivers/BSP/Components/lis3mdl/lis3mdl.o
 .debug_abbrev  0x00000a74      0x16b Source/Drivers/BSP/Components/lps25h/lps25h.o
 .debug_abbrev  0x00000bdf      0x16b Source/Drivers/BSP/Components/lps25hb/lps25hb.o
 .debug_abbrev  0x00000d4a      0x150 Source/Drivers/BSP/Components/lsm6ds0/lsm6ds0.o
 .debug_abbrev  0x00000e9a      0x182 Source/Drivers/BSP/Components/lsm6ds3/lsm6ds3.o
 .debug_abbrev  0x0000101c      0x270 Source/Drivers/BSP/STM32F4xx-Nucleo/stm32f4xx_nucleo.o
 .debug_abbrev  0x0000128c      0x287 Source/Drivers/BSP/X_NUCLEO_IKS01A1/x_nucleo_iks01a1.o
 .debug_abbrev  0x00001513      0x130 Source/Drivers/BSP/X_NUCLEO_IKS01A1/x_nucleo_iks01a1_hum_temp.o
 .debug_abbrev  0x00001643      0x1ab Source/Drivers/BSP/X_NUCLEO_IKS01A1/x_nucleo_iks01a1_imu_6axes.o
 .debug_abbrev  0x000017ee      0x10b Source/Drivers/BSP/X_NUCLEO_IKS01A1/x_nucleo_iks01a1_magneto.o
 .debug_abbrev  0x000018f9      0x175 Source/Drivers/BSP/X_NUCLEO_IKS01A1/x_nucleo_iks01a1_pressure.o
 .debug_abbrev  0x00001a6e      0x238 Source/Drivers/STM32F4xx_HAL_Driver/Src/stm32f4xx_hal.o
 .debug_abbrev  0x00001ca6      0x2a7 Source/Drivers/STM32F4xx_HAL_Driver/Src/stm32f4xx_hal_cortex.o
 .debug_abbrev  0x00001f4d      0x1af Source/Drivers/STM32F4xx_HAL_Driver/Src/stm32f4xx_hal_gpio.o
 .debug_abbrev  0x000020fc      0x1fe Source/Drivers/STM32F4xx_HAL_Driver/Src/stm32f4xx_hal_i2c.o
 .debug_abbrev  0x000022fa      0x25f Source/Drivers/STM32F4xx_HAL_Driver/Src/stm32f4xx_hal_rcc.o
 .debug_abbrev  0x00002559      0x15d Source/Drivers/Utils/Trace/syscalls.o
 .debug_abbrev  0x000026b6       0xf0 Source/Drivers/Utils/Trace/trace.o
 .debug_abbrev  0x000027a6      0x1c6 Source/Drivers/Utils/Trace/trace_impl.o

.debug_aranges  0x00000000      0xf68
 .debug_aranges
                0x00000000       0x50 Source/App/Button/button.o
 .debug_aranges
                0x00000050       0x90 Source/App/MEMS/mems.o
 .debug_aranges
                0x000000e0       0x38 Source/App/Main/cube_hal_f4.o
 .debug_aranges
                0x00000118       0x28 Source/App/Main/main.o
 .debug_aranges
                0x00000140       0x28 Source/App/Main/startup_stm32f401xe.o
 .debug_aranges
                0x00000168       0x40 Source/App/Main/stm32f4xx_it.o
 .debug_aranges
                0x000001a8       0x28 Source/App/Main/system_stm32f4xx.o
 .debug_aranges
                0x000001d0       0x88 Source/App/Motion/motion.o
 .debug_aranges
                0x00000258       0x30 Source/App/Time/clock.o
 .debug_aranges
                0x00000288       0x48 Source/App/Time/gp_timer.o
 .debug_aranges
                0x000002d0       0x58 Source/Drivers/BSP/Components/hts221/hts221.o
 .debug_aranges
                0x00000328       0x38 Source/Drivers/BSP/Components/lis3mdl/lis3mdl.o
 .debug_aranges
                0x00000360       0x68 Source/Drivers/BSP/Components/lps25h/lps25h.o
 .debug_aranges
                0x000003c8       0x68 Source/Drivers/BSP/Components/lps25hb/lps25hb.o
 .debug_aranges
                0x00000430       0xa8 Source/Drivers/BSP/Components/lsm6ds0/lsm6ds0.o
 .debug_aranges
                0x000004d8       0xc8 Source/Drivers/BSP/Components/lsm6ds3/lsm6ds3.o
 .debug_aranges
                0x000005a0       0xf0 Source/Drivers/BSP/STM32F4xx-Nucleo/stm32f4xx_nucleo.o
 .debug_aranges
                0x00000690      0x160 Source/Drivers/BSP/X_NUCLEO_IKS01A1/x_nucleo_iks01a1.o
 .debug_aranges
                0x000007f0       0x60 Source/Drivers/BSP/X_NUCLEO_IKS01A1/x_nucleo_iks01a1_hum_temp.o
 .debug_aranges
                0x00000850       0xc8 Source/Drivers/BSP/X_NUCLEO_IKS01A1/x_nucleo_iks01a1_imu_6axes.o
 .debug_aranges
                0x00000918       0x50 Source/Drivers/BSP/X_NUCLEO_IKS01A1/x_nucleo_iks01a1_magneto.o
 .debug_aranges
                0x00000968       0x58 Source/Drivers/BSP/X_NUCLEO_IKS01A1/x_nucleo_iks01a1_pressure.o
 .debug_aranges
                0x000009c0       0xc0 Source/Drivers/STM32F4xx_HAL_Driver/Src/stm32f4xx_hal.o
 .debug_aranges
                0x00000a80      0x100 Source/Drivers/STM32F4xx_HAL_Driver/Src/stm32f4xx_hal_cortex.o
 .debug_aranges
                0x00000b80       0x58 Source/Drivers/STM32F4xx_HAL_Driver/Src/stm32f4xx_hal_gpio.o
 .debug_aranges
                0x00000bd8      0x1e8 Source/Drivers/STM32F4xx_HAL_Driver/Src/stm32f4xx_hal_i2c.o
 .debug_aranges
                0x00000dc0       0x88 Source/Drivers/STM32F4xx_HAL_Driver/Src/stm32f4xx_hal_rcc.o
 .debug_aranges
                0x00000e48       0xb8 Source/Drivers/Utils/Trace/syscalls.o
 .debug_aranges
                0x00000f00       0x38 Source/Drivers/Utils/Trace/trace.o
 .debug_aranges
                0x00000f38       0x30 Source/Drivers/Utils/Trace/trace_impl.o

.debug_ranges   0x00000000      0xd90
 .debug_ranges  0x00000000       0x40 Source/App/Button/button.o
 .debug_ranges  0x00000040       0x80 Source/App/MEMS/mems.o
 .debug_ranges  0x000000c0       0x28 Source/App/Main/cube_hal_f4.o
 .debug_ranges  0x000000e8       0x18 Source/App/Main/main.o
 .debug_ranges  0x00000100       0x20 Source/App/Main/startup_stm32f401xe.o
 .debug_ranges  0x00000120       0x30 Source/App/Main/stm32f4xx_it.o
 .debug_ranges  0x00000150       0x18 Source/App/Main/system_stm32f4xx.o
 .debug_ranges  0x00000168       0x78 Source/App/Motion/motion.o
 .debug_ranges  0x000001e0       0x20 Source/App/Time/clock.o
 .debug_ranges  0x00000200       0x38 Source/App/Time/gp_timer.o
 .debug_ranges  0x00000238       0x48 Source/Drivers/BSP/Components/hts221/hts221.o
 .debug_ranges  0x00000280       0x28 Source/Drivers/BSP/Components/lis3mdl/lis3mdl.o
 .debug_ranges  0x000002a8       0x58 Source/Drivers/BSP/Components/lps25h/lps25h.o
 .debug_ranges  0x00000300       0x58 Source/Drivers/BSP/Components/lps25hb/lps25hb.o
 .debug_ranges  0x00000358       0x98 Source/Drivers/BSP/Components/lsm6ds0/lsm6ds0.o
 .debug_ranges  0x000003f0       0xb8 Source/Drivers/BSP/Components/lsm6ds3/lsm6ds3.o
 .debug_ranges  0x000004a8       0xe0 Source/Drivers/BSP/STM32F4xx-Nucleo/stm32f4xx_nucleo.o
 .debug_ranges  0x00000588      0x150 Source/Drivers/BSP/X_NUCLEO_IKS01A1/x_nucleo_iks01a1.o
 .debug_ranges  0x000006d8       0x50 Source/Drivers/BSP/X_NUCLEO_IKS01A1/x_nucleo_iks01a1_hum_temp.o
 .debug_ranges  0x00000728       0xb8 Source/Drivers/BSP/X_NUCLEO_IKS01A1/x_nucleo_iks01a1_imu_6axes.o
 .debug_ranges  0x000007e0       0x40 Source/Drivers/BSP/X_NUCLEO_IKS01A1/x_nucleo_iks01a1_magneto.o
 .debug_ranges  0x00000820       0x48 Source/Drivers/BSP/X_NUCLEO_IKS01A1/x_nucleo_iks01a1_pressure.o
 .debug_ranges  0x00000868       0xb0 Source/Drivers/STM32F4xx_HAL_Driver/Src/stm32f4xx_hal.o
 .debug_ranges  0x00000918       0xf0 Source/Drivers/STM32F4xx_HAL_Driver/Src/stm32f4xx_hal_cortex.o
 .debug_ranges  0x00000a08       0x48 Source/Drivers/STM32F4xx_HAL_Driver/Src/stm32f4xx_hal_gpio.o
 .debug_ranges  0x00000a50      0x1d8 Source/Drivers/STM32F4xx_HAL_Driver/Src/stm32f4xx_hal_i2c.o
 .debug_ranges  0x00000c28       0x78 Source/Drivers/STM32F4xx_HAL_Driver/Src/stm32f4xx_hal_rcc.o
 .debug_ranges  0x00000ca0       0xa8 Source/Drivers/Utils/Trace/syscalls.o
 .debug_ranges  0x00000d48       0x28 Source/Drivers/Utils/Trace/trace.o
 .debug_ranges  0x00000d70       0x20 Source/Drivers/Utils/Trace/trace_impl.o

.debug_macro    0x00000000    0x150da
 .debug_macro   0x00000000      0x391 Source/App/Button/button.o
 .debug_macro   0x00000391      0x8a4 Source/App/Button/button.o
 .debug_macro   0x00000c35       0x10 Source/App/Button/button.o
 .debug_macro   0x00000c45      0x1ba Source/App/Button/button.o
 .debug_macro   0x00000dff       0x2e Source/App/Button/button.o
 .debug_macro   0x00000e2d       0x28 Source/App/Button/button.o
 .debug_macro   0x00000e55       0x3b Source/App/Button/button.o
 .debug_macro   0x00000e90       0x22 Source/App/Button/button.o
 .debug_macro   0x00000eb2       0x87 Source/App/Button/button.o
 .debug_macro   0x00000f39       0x44 Source/App/Button/button.o
 .debug_macro   0x00000f7d       0xfd Source/App/Button/button.o
 .debug_macro   0x0000107a       0x5e Source/App/Button/button.o
 .debug_macro   0x000010d8      0x1df Source/App/Button/button.o
 .debug_macro   0x000012b7       0x2d Source/App/Button/button.o
 .debug_macro   0x000012e4       0x26 Source/App/Button/button.o
 .debug_macro   0x0000130a      0xd39 Source/App/Button/button.o
 .debug_macro   0x00002043     0x501b Source/App/Button/button.o
 .debug_macro   0x0000705e       0x43 Source/App/Button/button.o
 .debug_macro   0x000070a1     0x296e Source/App/Button/button.o
 .debug_macro   0x00009a0f       0x52 Source/App/Button/button.o
 .debug_macro   0x00009a61       0x35 Source/App/Button/button.o
 .debug_macro   0x00009a96       0x9c Source/App/Button/button.o
 .debug_macro   0x00009b32       0x16 Source/App/Button/button.o
 .debug_macro   0x00009b48       0x97 Source/App/Button/button.o
 .debug_macro   0x00009bdf      0x30d Source/App/Button/button.o
 .debug_macro   0x00009eec       0xfd Source/App/Button/button.o
 .debug_macro   0x00009fe9       0x10 Source/App/Button/button.o
 .debug_macro   0x00009ff9       0x52 Source/App/Button/button.o
 .debug_macro   0x0000a04b       0x1f Source/App/Button/button.o
 .debug_macro   0x0000a06a       0x43 Source/App/Button/button.o
 .debug_macro   0x0000a0ad       0x20 Source/App/Button/button.o
 .debug_macro   0x0000a0cd      0x187 Source/App/Button/button.o
 .debug_macro   0x0000a254       0x10 Source/App/Button/button.o
 .debug_macro   0x0000a264       0x1c Source/App/Button/button.o
 .debug_macro   0x0000a280       0x52 Source/App/Button/button.o
 .debug_macro   0x0000a2d2       0x40 Source/App/Button/button.o
 .debug_macro   0x0000a312       0x10 Source/App/Button/button.o
 .debug_macro   0x0000a322       0x40 Source/App/Button/button.o
 .debug_macro   0x0000a362       0xd7 Source/App/Button/button.o
 .debug_macro   0x0000a439       0x16 Source/App/Button/button.o
 .debug_macro   0x0000a44f      0x18b Source/App/Button/button.o
 .debug_macro   0x0000a5da       0x57 Source/App/Button/button.o
 .debug_macro   0x0000a631       0x65 Source/App/Button/button.o
 .debug_macro   0x0000a696      0xbb0 Source/App/Button/button.o
 .debug_macro   0x0000b246      0x11e Source/App/Button/button.o
 .debug_macro   0x0000b364       0xf8 Source/App/Button/button.o
 .debug_macro   0x0000b45c       0x27 Source/App/Button/button.o
 .debug_macro   0x0000b483      0x272 Source/App/Button/button.o
 .debug_macro   0x0000b6f5       0x5f Source/App/Button/button.o
 .debug_macro   0x0000b754       0x5d Source/App/Button/button.o
 .debug_macro   0x0000b7b1      0x31a Source/App/Button/button.o
 .debug_macro   0x0000bacb      0x15b Source/App/Button/button.o
 .debug_macro   0x0000bc26       0xd6 Source/App/Button/button.o
 .debug_macro   0x0000bcfc      0x133 Source/App/Button/button.o
 .debug_macro   0x0000be2f      0x25d Source/App/Button/button.o
 .debug_macro   0x0000c08c       0x2e Source/App/Button/button.o
 .debug_macro   0x0000c0ba      0x17d Source/App/Button/button.o
 .debug_macro   0x0000c237       0x22 Source/App/Button/button.o
 .debug_macro   0x0000c259       0x9e Source/App/Button/button.o
 .debug_macro   0x0000c2f7      0x12c Source/App/Button/button.o
 .debug_macro   0x0000c423       0x77 Source/App/Button/button.o
 .debug_macro   0x0000c49a       0x90 Source/App/Button/button.o
 .debug_macro   0x0000c52a      0x31a Source/App/Button/button.o
 .debug_macro   0x0000c844      0x409 Source/App/Button/button.o
 .debug_macro   0x0000cc4d       0xe4 Source/App/Button/button.o
 .debug_macro   0x0000cd31      0x202 Source/App/Button/button.o
 .debug_macro   0x0000cf33      0x287 Source/App/Button/button.o
 .debug_macro   0x0000d1ba      0x11e Source/App/Button/button.o
 .debug_macro   0x0000d2d8      0x177 Source/App/Button/button.o
 .debug_macro   0x0000d44f       0x16 Source/App/Button/button.o
 .debug_macro   0x0000d465       0x35 Source/App/Button/button.o
 .debug_macro   0x0000d49a      0x513 Source/App/Button/button.o
 .debug_macro   0x0000d9ad       0x16 Source/App/Button/button.o
 .debug_macro   0x0000d9c3      0x454 Source/App/MEMS/mems.o
 .debug_macro   0x0000de17      0x17d Source/App/MEMS/mems.o
 .debug_macro   0x0000df94       0x10 Source/App/MEMS/mems.o
 .debug_macro   0x0000dfa4      0x16f Source/App/MEMS/mems.o
 .debug_macro   0x0000e113      0x1e3 Source/App/MEMS/mems.o
 .debug_macro   0x0000e2f6      0x5ee Source/App/MEMS/mems.o
 .debug_macro   0x0000e8e4      0x284 Source/App/MEMS/mems.o
 .debug_macro   0x0000eb68      0x1b2 Source/App/MEMS/mems.o
 .debug_macro   0x0000ed1a      0x1aa Source/App/MEMS/mems.o
 .debug_macro   0x0000eec4      0x1aa Source/App/MEMS/mems.o
 .debug_macro   0x0000f06e       0x34 Source/App/MEMS/mems.o
 .debug_macro   0x0000f0a2      0x1e1 Source/App/MEMS/mems.o
 .debug_macro   0x0000f283      0x354 Source/App/Main/cube_hal_f4.o
 .debug_macro   0x0000f5d7       0x1c Source/App/Main/cube_hal_f4.o
 .debug_macro   0x0000f5f3      0x478 Source/App/Main/main.o
 .debug_macro   0x0000fa6b       0x16 Source/App/Main/main.o
 .debug_macro   0x0000fa81       0x16 Source/App/Main/main.o
 .debug_macro   0x0000fa97      0x364 Source/App/Main/stm32f4xx_it.o
 .debug_macro   0x0000fdfb      0x331 Source/App/Main/system_stm32f4xx.o
 .debug_macro   0x0001012c      0x37e Source/App/Motion/motion.o
 .debug_macro   0x000104aa      0x344 Source/App/Time/clock.o
 .debug_macro   0x000107ee      0x34e Source/App/Time/gp_timer.o
 .debug_macro   0x00010b3c      0x120 Source/Drivers/BSP/Components/hts221/hts221.o
 .debug_macro   0x00010c5c      0x1e3 Source/Drivers/BSP/Components/hts221/hts221.o
 .debug_macro   0x00010e3f      0x174 Source/Drivers/BSP/Components/hts221/hts221.o
 .debug_macro   0x00010fb3      0x120 Source/Drivers/BSP/Components/lis3mdl/lis3mdl.o
 .debug_macro   0x000110d3      0x1b2 Source/Drivers/BSP/Components/lis3mdl/lis3mdl.o
 .debug_macro   0x00011285       0x7c Source/Drivers/BSP/Components/lps25h/lps25h.o
 .debug_macro   0x00011301      0x1aa Source/Drivers/BSP/Components/lps25h/lps25h.o
 .debug_macro   0x000114ab       0x7c Source/Drivers/BSP/Components/lps25hb/lps25hb.o
 .debug_macro   0x00011527      0x1aa Source/Drivers/BSP/Components/lps25hb/lps25hb.o
 .debug_macro   0x000116d1      0x120 Source/Drivers/BSP/Components/lsm6ds0/lsm6ds0.o
 .debug_macro   0x000117f1      0x284 Source/Drivers/BSP/Components/lsm6ds0/lsm6ds0.o
 .debug_macro   0x00011a75      0x120 Source/Drivers/BSP/Components/lsm6ds3/lsm6ds3.o
 .debug_macro   0x00011b95      0x5ee Source/Drivers/BSP/Components/lsm6ds3/lsm6ds3.o
 .debug_macro   0x00012183      0x364 Source/Drivers/BSP/STM32F4xx-Nucleo/stm32f4xx_nucleo.o
 .debug_macro   0x000124e7      0x362 Source/Drivers/BSP/X_NUCLEO_IKS01A1/x_nucleo_iks01a1.o
 .debug_macro   0x00012849       0x86 Source/Drivers/BSP/X_NUCLEO_IKS01A1/x_nucleo_iks01a1_hum_temp.o
 .debug_macro   0x000128cf      0x37e Source/Drivers/BSP/X_NUCLEO_IKS01A1/x_nucleo_iks01a1_imu_6axes.o
 .debug_macro   0x00012c4d      0x375 Source/Drivers/BSP/X_NUCLEO_IKS01A1/x_nucleo_iks01a1_magneto.o
 .debug_macro   0x00012fc2       0x8f Source/Drivers/BSP/X_NUCLEO_IKS01A1/x_nucleo_iks01a1_pressure.o
 .debug_macro   0x00013051      0x379 Source/Drivers/STM32F4xx_HAL_Driver/Src/stm32f4xx_hal.o
 .debug_macro   0x000133ca      0x32b Source/Drivers/STM32F4xx_HAL_Driver/Src/stm32f4xx_hal_cortex.o
 .debug_macro   0x000136f5      0x363 Source/Drivers/STM32F4xx_HAL_Driver/Src/stm32f4xx_hal_gpio.o
 .debug_macro   0x00013a58      0x33a Source/Drivers/STM32F4xx_HAL_Driver/Src/stm32f4xx_hal_i2c.o
 .debug_macro   0x00013d92      0x355 Source/Drivers/STM32F4xx_HAL_Driver/Src/stm32f4xx_hal_rcc.o
 .debug_macro   0x000140e7      0x25c Source/Drivers/Utils/Trace/syscalls.o
 .debug_macro   0x00014343       0x4c Source/Drivers/Utils/Trace/syscalls.o
 .debug_macro   0x0001438f       0x8d Source/Drivers/Utils/Trace/syscalls.o
 .debug_macro   0x0001441c       0x4a Source/Drivers/Utils/Trace/syscalls.o
 .debug_macro   0x00014466       0x10 Source/Drivers/Utils/Trace/syscalls.o
 .debug_macro   0x00014476       0x10 Source/Drivers/Utils/Trace/syscalls.o
 .debug_macro   0x00014486       0x10 Source/Drivers/Utils/Trace/syscalls.o
 .debug_macro   0x00014496       0x35 Source/Drivers/Utils/Trace/syscalls.o
 .debug_macro   0x000144cb      0x122 Source/Drivers/Utils/Trace/syscalls.o
 .debug_macro   0x000145ed      0x1da Source/Drivers/Utils/Trace/syscalls.o
 .debug_macro   0x000147c7       0x10 Source/Drivers/Utils/Trace/syscalls.o
 .debug_macro   0x000147d7       0x1c Source/Drivers/Utils/Trace/syscalls.o
 .debug_macro   0x000147f3       0x10 Source/Drivers/Utils/Trace/syscalls.o
 .debug_macro   0x00014803       0x88 Source/Drivers/Utils/Trace/syscalls.o
 .debug_macro   0x0001488b       0x10 Source/Drivers/Utils/Trace/syscalls.o
 .debug_macro   0x0001489b      0x241 Source/Drivers/Utils/Trace/syscalls.o
 .debug_macro   0x00014adc       0x16 Source/Drivers/Utils/Trace/syscalls.o
 .debug_macro   0x00014af2       0x3a Source/Drivers/Utils/Trace/syscalls.o
 .debug_macro   0x00014b2c      0x1d9 Source/Drivers/Utils/Trace/trace.o
 .debug_macro   0x00014d05       0x4c Source/Drivers/Utils/Trace/trace.o
 .debug_macro   0x00014d51      0x367 Source/Drivers/Utils/Trace/trace_impl.o
 .debug_macro   0x000150b8       0x22 Source/Drivers/Utils/Trace/trace_impl.o

.debug_line     0x00000000    0x10531
 .debug_line    0x00000000      0x987 Source/App/Button/button.o
 .debug_line    0x00000987      0xd45 Source/App/MEMS/mems.o
 .debug_line    0x000016cc      0xafc Source/App/Main/cube_hal_f4.o
 .debug_line    0x000021c8      0xce2 Source/App/Main/main.o
 .debug_line    0x00002eaa       0x87 Source/App/Main/startup_stm32f401xe.o
 .debug_line    0x00002f31      0x8db Source/App/Main/stm32f4xx_it.o
 .debug_line    0x0000380c      0x82d Source/App/Main/system_stm32f4xx.o
 .debug_line    0x00004039      0x995 Source/App/Motion/motion.o
 .debug_line    0x000049ce      0x875 Source/App/Time/clock.o
 .debug_line    0x00005243      0x8c0 Source/App/Time/gp_timer.o
 .debug_line    0x00005b03      0x4f8 Source/Drivers/BSP/Components/hts221/hts221.o
 .debug_line    0x00005ffb      0x45c Source/Drivers/BSP/Components/lis3mdl/lis3mdl.o
 .debug_line    0x00006457      0x489 Source/Drivers/BSP/Components/lps25h/lps25h.o
 .debug_line    0x000068e0      0x48c Source/Drivers/BSP/Components/lps25hb/lps25hb.o
 .debug_line    0x00006d6c      0x7a4 Source/Drivers/BSP/Components/lsm6ds0/lsm6ds0.o
 .debug_line    0x00007510      0x8ca Source/Drivers/BSP/Components/lsm6ds3/lsm6ds3.o
 .debug_line    0x00007dda      0xb2b Source/Drivers/BSP/STM32F4xx-Nucleo/stm32f4xx_nucleo.o
 .debug_line    0x00008905      0xbbd Source/Drivers/BSP/X_NUCLEO_IKS01A1/x_nucleo_iks01a1.o
 .debug_line    0x000094c2      0x48e Source/Drivers/BSP/X_NUCLEO_IKS01A1/x_nucleo_iks01a1_hum_temp.o
 .debug_line    0x00009950      0xb7c Source/Drivers/BSP/X_NUCLEO_IKS01A1/x_nucleo_iks01a1_imu_6axes.o
 .debug_line    0x0000a4cc      0x9ab Source/Drivers/BSP/X_NUCLEO_IKS01A1/x_nucleo_iks01a1_magneto.o
 .debug_line    0x0000ae77      0x4f5 Source/Drivers/BSP/X_NUCLEO_IKS01A1/x_nucleo_iks01a1_pressure.o
 .debug_line    0x0000b36c      0x9ba Source/Drivers/STM32F4xx_HAL_Driver/Src/stm32f4xx_hal.o
 .debug_line    0x0000bd26      0xad1 Source/Drivers/STM32F4xx_HAL_Driver/Src/stm32f4xx_hal_cortex.o
 .debug_line    0x0000c7f7      0x9b2 Source/Drivers/STM32F4xx_HAL_Driver/Src/stm32f4xx_hal_gpio.o
 .debug_line    0x0000d1a9     0x14c3 Source/Drivers/STM32F4xx_HAL_Driver/Src/stm32f4xx_hal_i2c.o
 .debug_line    0x0000e66c      0xb72 Source/Drivers/STM32F4xx_HAL_Driver/Src/stm32f4xx_hal_rcc.o
 .debug_line    0x0000f1de      0x63a Source/Drivers/Utils/Trace/syscalls.o
 .debug_line    0x0000f818      0x487 Source/Drivers/Utils/Trace/trace.o
 .debug_line    0x0000fc9f      0x892 Source/Drivers/Utils/Trace/trace_impl.o

.debug_str      0x00000000    0x69794
 .debug_str     0x00000000    0x5d9c7 Source/App/Button/button.o
                              0x5dc87 (size before relaxing)
 .debug_str     0x0005d9c7     0x61af Source/App/MEMS/mems.o
                              0x63cb0 (size before relaxing)
 .debug_str     0x00063b76      0x568 Source/App/Main/cube_hal_f4.o
                              0x5d056 (size before relaxing)
 .debug_str     0x000640de       0x54 Source/App/Main/main.o
                              0x63a49 (size before relaxing)
 .debug_str     0x00064132       0x88 Source/App/Main/stm32f4xx_it.o
                              0x5cb88 (size before relaxing)
 .debug_str     0x000641ba       0xdb Source/App/Main/system_stm32f4xx.o
                              0x5c2de (size before relaxing)
 .debug_str     0x00064295      0x20f Source/App/Motion/motion.o
                              0x5dc9b (size before relaxing)
 .debug_str     0x000644a4       0x49 Source/App/Time/clock.o
                              0x5caca (size before relaxing)
 .debug_str     0x000644ed       0x70 Source/App/Time/gp_timer.o
                              0x5cb16 (size before relaxing)
 .debug_str     0x0006455d      0x326 Source/Drivers/BSP/Components/hts221/hts221.o
                               0x7267 (size before relaxing)
 .debug_str     0x00064883      0x1e8 Source/Drivers/BSP/Components/lis3mdl/lis3mdl.o
                               0x7067 (size before relaxing)
 .debug_str     0x00064a6b      0x2aa Source/Drivers/BSP/Components/lps25h/lps25h.o
                               0x3f3d (size before relaxing)
 .debug_str     0x00064d15      0x12e Source/Drivers/BSP/Components/lps25hb/lps25hb.o
                               0x3f89 (size before relaxing)
 .debug_str     0x00064e43      0x40c Source/Drivers/BSP/Components/lsm6ds0/lsm6ds0.o
                               0x76d0 (size before relaxing)
 .debug_str     0x0006524f      0x266 Source/Drivers/BSP/Components/lsm6ds3/lsm6ds3.o
                               0x8cb3 (size before relaxing)
 .debug_str     0x000654b5      0xccb Source/Drivers/BSP/STM32F4xx-Nucleo/stm32f4xx_nucleo.o
                              0x5dc09 (size before relaxing)
 .debug_str     0x00066180      0x51e Source/Drivers/BSP/X_NUCLEO_IKS01A1/x_nucleo_iks01a1.o
                              0x5d812 (size before relaxing)
 .debug_str     0x0006669e      0x142 Source/Drivers/BSP/X_NUCLEO_IKS01A1/x_nucleo_iks01a1_hum_temp.o
                               0x4019 (size before relaxing)
 .debug_str     0x000667e0      0x2fc Source/Drivers/BSP/X_NUCLEO_IKS01A1/x_nucleo_iks01a1_imu_6axes.o
                              0x5fce5 (size before relaxing)
 .debug_str     0x00066adc      0x104 Source/Drivers/BSP/X_NUCLEO_IKS01A1/x_nucleo_iks01a1_magneto.o
                              0x5d456 (size before relaxing)
 .debug_str     0x00066be0      0x134 Source/Drivers/BSP/X_NUCLEO_IKS01A1/x_nucleo_iks01a1_pressure.o
                               0x46f5 (size before relaxing)
 .debug_str     0x00066d14      0x497 Source/Drivers/STM32F4xx_HAL_Driver/Src/stm32f4xx_hal.o
                              0x5cb2e (size before relaxing)
 .debug_str     0x000671ab      0x297 Source/Drivers/STM32F4xx_HAL_Driver/Src/stm32f4xx_hal_cortex.o
                              0x5c8cb (size before relaxing)
 .debug_str     0x00067442      0x26b Source/Drivers/STM32F4xx_HAL_Driver/Src/stm32f4xx_hal_gpio.o
                              0x5c557 (size before relaxing)
 .debug_str     0x000676ad      0x60b Source/Drivers/STM32F4xx_HAL_Driver/Src/stm32f4xx_hal_i2c.o
                              0x5cbcd (size before relaxing)
 .debug_str     0x00067cb8      0x26d Source/Drivers/STM32F4xx_HAL_Driver/Src/stm32f4xx_hal_rcc.o
                              0x5c6db (size before relaxing)
 .debug_str     0x00067f25     0x1367 Source/Drivers/Utils/Trace/syscalls.o
                               0x88cd (size before relaxing)
 .debug_str     0x0006928c      0x168 Source/Drivers/Utils/Trace/trace.o
                               0x76a4 (size before relaxing)
 .debug_str     0x000693f4      0x3a0 Source/Drivers/Utils/Trace/trace_impl.o
                              0x5d437 (size before relaxing)

.comment        0x00000000       0x6e
 .comment       0x00000000       0x6e Source/App/Button/button.o
                                 0x6f (size before relaxing)
 .comment       0x0000006e       0x6f Source/App/MEMS/mems.o
 .comment       0x0000006e       0x6f Source/App/Main/cube_hal_f4.o
 .comment       0x0000006e       0x6f Source/App/Main/main.o
 .comment       0x0000006e       0x6f Source/App/Main/stm32f4xx_it.o
 .comment       0x0000006e       0x6f Source/App/Main/system_stm32f4xx.o
 .comment       0x0000006e       0x6f Source/App/Motion/motion.o
 .comment       0x0000006e       0x6f Source/App/Time/clock.o
 .comment       0x0000006e       0x6f Source/App/Time/gp_timer.o
 .comment       0x0000006e       0x6f Source/Drivers/BSP/Components/hts221/hts221.o
 .comment       0x0000006e       0x6f Source/Drivers/BSP/Components/lis3mdl/lis3mdl.o
 .comment       0x0000006e       0x6f Source/Drivers/BSP/Components/lps25h/lps25h.o
 .comment       0x0000006e       0x6f Source/Drivers/BSP/Components/lps25hb/lps25hb.o
 .comment       0x0000006e       0x6f Source/Drivers/BSP/Components/lsm6ds0/lsm6ds0.o
 .comment       0x0000006e       0x6f Source/Drivers/BSP/Components/lsm6ds3/lsm6ds3.o
 .comment       0x0000006e       0x6f Source/Drivers/BSP/STM32F4xx-Nucleo/stm32f4xx_nucleo.o
 .comment       0x0000006e       0x6f Source/Drivers/BSP/X_NUCLEO_IKS01A1/x_nucleo_iks01a1.o
 .comment       0x0000006e       0x6f Source/Drivers/BSP/X_NUCLEO_IKS01A1/x_nucleo_iks01a1_hum_temp.o
 .comment       0x0000006e       0x6f Source/Drivers/BSP/X_NUCLEO_IKS01A1/x_nucleo_iks01a1_imu_6axes.o
 .comment       0x0000006e       0x6f Source/Drivers/BSP/X_NUCLEO_IKS01A1/x_nucleo_iks01a1_magneto.o
 .comment       0x0000006e       0x6f Source/Drivers/BSP/X_NUCLEO_IKS01A1/x_nucleo_iks01a1_pressure.o
 .comment       0x0000006e       0x6f Source/Drivers/STM32F4xx_HAL_Driver/Src/stm32f4xx_hal.o
 .comment       0x0000006e       0x6f Source/Drivers/STM32F4xx_HAL_Driver/Src/stm32f4xx_hal_cortex.o
 .comment       0x0000006e       0x6f Source/Drivers/STM32F4xx_HAL_Driver/Src/stm32f4xx_hal_gpio.o
 .comment       0x0000006e       0x6f Source/Drivers/STM32F4xx_HAL_Driver/Src/stm32f4xx_hal_i2c.o
 .comment       0x0000006e       0x6f Source/Drivers/STM32F4xx_HAL_Driver/Src/stm32f4xx_hal_rcc.o
 .comment       0x0000006e       0x6f Source/Drivers/Utils/Trace/syscalls.o
 .comment       0x0000006e       0x6f Source/Drivers/Utils/Trace/trace.o
 .comment       0x0000006e       0x6f Source/Drivers/Utils/Trace/trace_impl.o

.debug_frame    0x00000000     0x44a8
 .debug_frame   0x00000000       0xd8 Source/App/Button/button.o
 .debug_frame   0x000000d8      0x220 Source/App/MEMS/mems.o
 .debug_frame   0x000002f8       0xac Source/App/Main/cube_hal_f4.o
 .debug_frame   0x000003a4       0x44 Source/App/Main/main.o
 .debug_frame   0x000003e8       0xa0 Source/App/Main/stm32f4xx_it.o
 .debug_frame   0x00000488       0x58 Source/App/Main/system_stm32f4xx.o
 .debug_frame   0x000004e0      0x1a0 Source/App/Motion/motion.o
 .debug_frame   0x00000680       0x70 Source/App/Time/clock.o
 .debug_frame   0x000006f0       0xf0 Source/App/Time/gp_timer.o
 .debug_frame   0x000007e0      0x138 Source/Drivers/BSP/Components/hts221/hts221.o
 .debug_frame   0x00000918       0xa0 Source/Drivers/BSP/Components/lis3mdl/lis3mdl.o
 .debug_frame   0x000009b8      0x17c Source/Drivers/BSP/Components/lps25h/lps25h.o
 .debug_frame   0x00000b34      0x17c Source/Drivers/BSP/Components/lps25hb/lps25hb.o
 .debug_frame   0x00000cb0      0x298 Source/Drivers/BSP/Components/lsm6ds0/lsm6ds0.o
 .debug_frame   0x00000f48      0x328 Source/Drivers/BSP/Components/lsm6ds3/lsm6ds3.o
 .debug_frame   0x00001270      0x3b8 Source/Drivers/BSP/STM32F4xx-Nucleo/stm32f4xx_nucleo.o
 .debug_frame   0x00001628      0x570 Source/Drivers/BSP/X_NUCLEO_IKS01A1/x_nucleo_iks01a1.o
 .debug_frame   0x00001b98      0x13c Source/Drivers/BSP/X_NUCLEO_IKS01A1/x_nucleo_iks01a1_hum_temp.o
 .debug_frame   0x00001cd4      0x310 Source/Drivers/BSP/X_NUCLEO_IKS01A1/x_nucleo_iks01a1_imu_6axes.o
 .debug_frame   0x00001fe4      0x104 Source/Drivers/BSP/X_NUCLEO_IKS01A1/x_nucleo_iks01a1_magneto.o
 .debug_frame   0x000020e8      0x120 Source/Drivers/BSP/X_NUCLEO_IKS01A1/x_nucleo_iks01a1_pressure.o
 .debug_frame   0x00002208      0x2c0 Source/Drivers/STM32F4xx_HAL_Driver/Src/stm32f4xx_hal.o
 .debug_frame   0x000024c8      0x428 Source/Drivers/STM32F4xx_HAL_Driver/Src/stm32f4xx_hal_cortex.o
 .debug_frame   0x000028f0      0x14c Source/Drivers/STM32F4xx_HAL_Driver/Src/stm32f4xx_hal_gpio.o
 .debug_frame   0x00002a3c      0x8a4 Source/Drivers/STM32F4xx_HAL_Driver/Src/stm32f4xx_hal_i2c.o
 .debug_frame   0x000032e0      0x204 Source/Drivers/STM32F4xx_HAL_Driver/Src/stm32f4xx_hal_rcc.o
 .debug_frame   0x000034e4      0x318 Source/Drivers/Utils/Trace/syscalls.o
 .debug_frame   0x000037fc       0xb8 Source/Drivers/Utils/Trace/trace.o
 .debug_frame   0x000038b4       0x7c Source/Drivers/Utils/Trace/trace_impl.o
 .debug_frame   0x00003930       0x2c /home/ece/Ac6/SystemWorkbench/plugins/fr.ac6.mcu.externaltools.arm-none.linux64_1.13.1.201707031232/tools/compiler/bin/../lib/gcc/arm-none-eabi/5.4.1/../../../../arm-none-eabi/lib/armv7e-m/fpu/libm.a(lib_a-s_trunc.o)
 .debug_frame   0x0000395c       0x6c /home/ece/Ac6/SystemWorkbench/plugins/fr.ac6.mcu.externaltools.arm-none.linux64_1.13.1.201707031232/tools/compiler/bin/../lib/gcc/arm-none-eabi/5.4.1/../../../../arm-none-eabi/lib/armv7e-m/fpu/libm.a(lib_a-w_pow.o)
 .debug_frame   0x000039c8       0x64 /home/ece/Ac6/SystemWorkbench/plugins/fr.ac6.mcu.externaltools.arm-none.linux64_1.13.1.201707031232/tools/compiler/bin/../lib/gcc/arm-none-eabi/5.4.1/../../../../arm-none-eabi/lib/armv7e-m/fpu/libm.a(lib_a-e_pow.o)
 .debug_frame   0x00003a2c       0x30 /home/ece/Ac6/SystemWorkbench/plugins/fr.ac6.mcu.externaltools.arm-none.linux64_1.13.1.201707031232/tools/compiler/bin/../lib/gcc/arm-none-eabi/5.4.1/../../../../arm-none-eabi/lib/armv7e-m/fpu/libm.a(lib_a-e_sqrt.o)
 .debug_frame   0x00003a5c       0x20 /home/ece/Ac6/SystemWorkbench/plugins/fr.ac6.mcu.externaltools.arm-none.linux64_1.13.1.201707031232/tools/compiler/bin/../lib/gcc/arm-none-eabi/5.4.1/../../../../arm-none-eabi/lib/armv7e-m/fpu/libm.a(lib_a-s_fabs.o)
 .debug_frame   0x00003a7c       0x20 /home/ece/Ac6/SystemWorkbench/plugins/fr.ac6.mcu.externaltools.arm-none.linux64_1.13.1.201707031232/tools/compiler/bin/../lib/gcc/arm-none-eabi/5.4.1/../../../../arm-none-eabi/lib/armv7e-m/fpu/libm.a(lib_a-s_finite.o)
 .debug_frame   0x00003a9c       0x20 /home/ece/Ac6/SystemWorkbench/plugins/fr.ac6.mcu.externaltools.arm-none.linux64_1.13.1.201707031232/tools/compiler/bin/../lib/gcc/arm-none-eabi/5.4.1/../../../../arm-none-eabi/lib/armv7e-m/fpu/libm.a(lib_a-s_matherr.o)
 .debug_frame   0x00003abc       0x20 /home/ece/Ac6/SystemWorkbench/plugins/fr.ac6.mcu.externaltools.arm-none.linux64_1.13.1.201707031232/tools/compiler/bin/../lib/gcc/arm-none-eabi/5.4.1/../../../../arm-none-eabi/lib/armv7e-m/fpu/libm.a(lib_a-s_nan.o)
 .debug_frame   0x00003adc       0x3c /home/ece/Ac6/SystemWorkbench/plugins/fr.ac6.mcu.externaltools.arm-none.linux64_1.13.1.201707031232/tools/compiler/bin/../lib/gcc/arm-none-eabi/5.4.1/../../../../arm-none-eabi/lib/armv7e-m/fpu/libm.a(lib_a-s_rint.o)
 .debug_frame   0x00003b18       0x2c /home/ece/Ac6/SystemWorkbench/plugins/fr.ac6.mcu.externaltools.arm-none.linux64_1.13.1.201707031232/tools/compiler/bin/../lib/gcc/arm-none-eabi/5.4.1/../../../../arm-none-eabi/lib/armv7e-m/fpu/libm.a(lib_a-s_scalbn.o)
 .debug_frame   0x00003b44       0x20 /home/ece/Ac6/SystemWorkbench/plugins/fr.ac6.mcu.externaltools.arm-none.linux64_1.13.1.201707031232/tools/compiler/bin/../lib/gcc/arm-none-eabi/5.4.1/../../../../arm-none-eabi/lib/armv7e-m/fpu/libm.a(lib_a-s_copysign.o)
 .debug_frame   0x00003b64       0x20 /home/ece/Ac6/SystemWorkbench/plugins/fr.ac6.mcu.externaltools.arm-none.linux64_1.13.1.201707031232/tools/compiler/bin/../lib/gcc/arm-none-eabi/5.4.1/../../../../arm-none-eabi/lib/armv7e-m/fpu/libc.a(lib_a-errno.o)
 .debug_frame   0x00003b84       0x2c /home/ece/Ac6/SystemWorkbench/plugins/fr.ac6.mcu.externaltools.arm-none.linux64_1.13.1.201707031232/tools/compiler/bin/../lib/gcc/arm-none-eabi/5.4.1/../../../../arm-none-eabi/lib/armv7e-m/fpu/libc.a(lib_a-init.o)
 .debug_frame   0x00003bb0       0x34 /home/ece/Ac6/SystemWorkbench/plugins/fr.ac6.mcu.externaltools.arm-none.linux64_1.13.1.201707031232/tools/compiler/bin/../lib/gcc/arm-none-eabi/5.4.1/../../../../arm-none-eabi/lib/armv7e-m/fpu/libc.a(lib_a-memset.o)
 .debug_frame   0x00003be4       0x58 /home/ece/Ac6/SystemWorkbench/plugins/fr.ac6.mcu.externaltools.arm-none.linux64_1.13.1.201707031232/tools/compiler/bin/../lib/gcc/arm-none-eabi/5.4.1/../../../../arm-none-eabi/lib/armv7e-m/fpu/libc.a(lib_a-reent.o)
 .debug_frame   0x00003c3c       0x60 /home/ece/Ac6/SystemWorkbench/plugins/fr.ac6.mcu.externaltools.arm-none.linux64_1.13.1.201707031232/tools/compiler/bin/../lib/gcc/arm-none-eabi/5.4.1/../../../../arm-none-eabi/lib/armv7e-m/fpu/libc.a(lib_a-vsnprintf.o)
 .debug_frame   0x00003c9c       0x50 /home/ece/Ac6/SystemWorkbench/plugins/fr.ac6.mcu.externaltools.arm-none.linux64_1.13.1.201707031232/tools/compiler/bin/../lib/gcc/arm-none-eabi/5.4.1/../../../../arm-none-eabi/lib/armv7e-m/fpu/libc.a(lib_a-__call_atexit.o)
 .debug_frame   0x00003cec       0x20 /home/ece/Ac6/SystemWorkbench/plugins/fr.ac6.mcu.externaltools.arm-none.linux64_1.13.1.201707031232/tools/compiler/bin/../lib/gcc/arm-none-eabi/5.4.1/../../../../arm-none-eabi/lib/armv7e-m/fpu/libc.a(lib_a-atexit.o)
 .debug_frame   0x00003d0c       0x34 /home/ece/Ac6/SystemWorkbench/plugins/fr.ac6.mcu.externaltools.arm-none.linux64_1.13.1.201707031232/tools/compiler/bin/../lib/gcc/arm-none-eabi/5.4.1/../../../../arm-none-eabi/lib/armv7e-m/fpu/libc.a(lib_a-fini.o)
 .debug_frame   0x00003d40       0x74 /home/ece/Ac6/SystemWorkbench/plugins/fr.ac6.mcu.externaltools.arm-none.linux64_1.13.1.201707031232/tools/compiler/bin/../lib/gcc/arm-none-eabi/5.4.1/../../../../arm-none-eabi/lib/armv7e-m/fpu/libc.a(lib_a-freer.o)
 .debug_frame   0x00003db4       0x58 /home/ece/Ac6/SystemWorkbench/plugins/fr.ac6.mcu.externaltools.arm-none.linux64_1.13.1.201707031232/tools/compiler/bin/../lib/gcc/arm-none-eabi/5.4.1/../../../../arm-none-eabi/lib/armv7e-m/fpu/libc.a(lib_a-mallocr.o)
 .debug_frame   0x00003e0c       0x30 /home/ece/Ac6/SystemWorkbench/plugins/fr.ac6.mcu.externaltools.arm-none.linux64_1.13.1.201707031232/tools/compiler/bin/../lib/gcc/arm-none-eabi/5.4.1/../../../../arm-none-eabi/lib/armv7e-m/fpu/libc.a(lib_a-mlock.o)
 .debug_frame   0x00003e3c       0x2c /home/ece/Ac6/SystemWorkbench/plugins/fr.ac6.mcu.externaltools.arm-none.linux64_1.13.1.201707031232/tools/compiler/bin/../lib/gcc/arm-none-eabi/5.4.1/../../../../arm-none-eabi/lib/armv7e-m/fpu/libc.a(lib_a-sbrkr.o)
 .debug_frame   0x00003e68       0x44 /home/ece/Ac6/SystemWorkbench/plugins/fr.ac6.mcu.externaltools.arm-none.linux64_1.13.1.201707031232/tools/compiler/bin/../lib/gcc/arm-none-eabi/5.4.1/../../../../arm-none-eabi/lib/armv7e-m/fpu/libc.a(lib_a-svfprintf.o)
 .debug_frame   0x00003eac       0x34 /home/ece/Ac6/SystemWorkbench/plugins/fr.ac6.mcu.externaltools.arm-none.linux64_1.13.1.201707031232/tools/compiler/bin/../lib/gcc/arm-none-eabi/5.4.1/../../../../arm-none-eabi/lib/armv7e-m/fpu/libc.a(lib_a-__atexit.o)
 .debug_frame   0x00003ee0       0x88 /home/ece/Ac6/SystemWorkbench/plugins/fr.ac6.mcu.externaltools.arm-none.linux64_1.13.1.201707031232/tools/compiler/bin/../lib/gcc/arm-none-eabi/5.4.1/../../../../arm-none-eabi/lib/armv7e-m/fpu/libc.a(lib_a-dtoa.o)
 .debug_frame   0x00003f68       0x40 /home/ece/Ac6/SystemWorkbench/plugins/fr.ac6.mcu.externaltools.arm-none.linux64_1.13.1.201707031232/tools/compiler/bin/../lib/gcc/arm-none-eabi/5.4.1/../../../../arm-none-eabi/lib/armv7e-m/fpu/libc.a(lib_a-localeconv.o)
 .debug_frame   0x00003fa8      0x264 /home/ece/Ac6/SystemWorkbench/plugins/fr.ac6.mcu.externaltools.arm-none.linux64_1.13.1.201707031232/tools/compiler/bin/../lib/gcc/arm-none-eabi/5.4.1/../../../../arm-none-eabi/lib/armv7e-m/fpu/libc.a(lib_a-mprec.o)
 .debug_frame   0x0000420c       0x78 /home/ece/Ac6/SystemWorkbench/plugins/fr.ac6.mcu.externaltools.arm-none.linux64_1.13.1.201707031232/tools/compiler/bin/../lib/gcc/arm-none-eabi/5.4.1/../../../../arm-none-eabi/lib/armv7e-m/fpu/libc.a(lib_a-svfiprintf.o)
 .debug_frame   0x00004284       0x28 /home/ece/Ac6/SystemWorkbench/plugins/fr.ac6.mcu.externaltools.arm-none.linux64_1.13.1.201707031232/tools/compiler/bin/../lib/gcc/arm-none-eabi/5.4.1/../../../../arm-none-eabi/lib/armv7e-m/fpu/libc.a(lib_a-callocr.o)
 .debug_frame   0x000042ac       0x84 /home/ece/Ac6/SystemWorkbench/plugins/fr.ac6.mcu.externaltools.arm-none.linux64_1.13.1.201707031232/tools/compiler/bin/../lib/gcc/arm-none-eabi/5.4.1/../../../../arm-none-eabi/lib/armv7e-m/fpu/libc.a(lib_a-locale.o)
 .debug_frame   0x00004330       0x4c /home/ece/Ac6/SystemWorkbench/plugins/fr.ac6.mcu.externaltools.arm-none.linux64_1.13.1.201707031232/tools/compiler/bin/../lib/gcc/arm-none-eabi/5.4.1/../../../../arm-none-eabi/lib/armv7e-m/fpu/libc.a(lib_a-mbtowc_r.o)
 .debug_frame   0x0000437c       0x30 /home/ece/Ac6/SystemWorkbench/plugins/fr.ac6.mcu.externaltools.arm-none.linux64_1.13.1.201707031232/tools/compiler/bin/../lib/gcc/arm-none-eabi/5.4.1/../../../../arm-none-eabi/lib/armv7e-m/fpu/libc.a(lib_a-memmove.o)
 .debug_frame   0x000043ac       0x60 /home/ece/Ac6/SystemWorkbench/plugins/fr.ac6.mcu.externaltools.arm-none.linux64_1.13.1.201707031232/tools/compiler/bin/../lib/gcc/arm-none-eabi/5.4.1/../../../../arm-none-eabi/lib/armv7e-m/fpu/libc.a(lib_a-reallocr.o)
 .debug_frame   0x0000440c       0x3c /home/ece/Ac6/SystemWorkbench/plugins/fr.ac6.mcu.externaltools.arm-none.linux64_1.13.1.201707031232/tools/compiler/bin/../lib/gcc/arm-none-eabi/5.4.1/../../../../arm-none-eabi/lib/armv7e-m/fpu/libc.a(lib_a-wctomb_r.o)
 .debug_frame   0x00004448       0x2c /home/ece/Ac6/SystemWorkbench/plugins/fr.ac6.mcu.externaltools.arm-none.linux64_1.13.1.201707031232/tools/compiler/bin/../lib/gcc/arm-none-eabi/5.4.1/armv7e-m/fpu/libgcc.a(_aeabi_uldivmod.o)
 .debug_frame   0x00004474       0x34 /home/ece/Ac6/SystemWorkbench/plugins/fr.ac6.mcu.externaltools.arm-none.linux64_1.13.1.201707031232/tools/compiler/bin/../lib/gcc/arm-none-eabi/5.4.1/armv7e-m/fpu/libgcc.a(_udivmoddi4.o)
